{
  "_format": "hh-sol-artifact-1",
  "contractName": "LSP1GraveForwader",
  "sourceName": "contracts/LSP1GraveForwarder.sol",
  "abi": [
    {
      "inputs": [
        {
          "internalType": "address",
          "name": "caller",
          "type": "address"
        }
      ],
      "name": "CannotRegisterEOAsAsAssets",
      "type": "error"
    },
    {
      "anonymous": false,
      "inputs": [
        {
          "indexed": true,
          "internalType": "address",
          "name": "newVaultAddress",
          "type": "address"
        }
      ],
      "name": "VaultCreated",
      "type": "event"
    },
    {
      "inputs": [],
      "name": "LSP1UniversalReceiverDelegate_KEY",
      "outputs": [
        {
          "internalType": "bytes32",
          "name": "",
          "type": "bytes32"
        }
      ],
      "stateMutability": "view",
      "type": "function"
    },
    {
      "inputs": [],
      "name": "LSP1_URD_VAULT_TESTNET",
      "outputs": [
        {
          "internalType": "bytes",
          "name": "",
          "type": "bytes"
        }
      ],
      "stateMutability": "view",
      "type": "function"
    },
    {
      "inputs": [],
      "name": "VERSION",
      "outputs": [
        {
          "internalType": "string",
          "name": "",
          "type": "string"
        }
      ],
      "stateMutability": "view",
      "type": "function"
    },
    {
      "inputs": [
        {
          "internalType": "address",
          "name": "token",
          "type": "address"
        }
      ],
      "name": "addTokenToAllowlist",
      "outputs": [],
      "stateMutability": "nonpayable",
      "type": "function"
    },
    {
      "inputs": [
        {
          "internalType": "address",
          "name": "token",
          "type": "address"
        }
      ],
      "name": "getAddressStatus",
      "outputs": [
        {
          "internalType": "bool",
          "name": "",
          "type": "bool"
        }
      ],
      "stateMutability": "view",
      "type": "function"
    },
    {
      "inputs": [],
      "name": "getGrave",
      "outputs": [
        {
          "internalType": "address",
          "name": "",
          "type": "address"
        }
      ],
      "stateMutability": "view",
      "type": "function"
    },
    {
      "inputs": [
        {
          "internalType": "address",
          "name": "",
          "type": "address"
        }
      ],
      "name": "graveVaults",
      "outputs": [
        {
          "internalType": "address",
          "name": "",
          "type": "address"
        }
      ],
      "stateMutability": "view",
      "type": "function"
    },
    {
      "inputs": [],
      "name": "joinGrave",
      "outputs": [
        {
          "internalType": "address",
          "name": "",
          "type": "address"
        }
      ],
      "stateMutability": "nonpayable",
      "type": "function"
    },
    {
      "inputs": [
        {
          "internalType": "address",
          "name": "token",
          "type": "address"
        }
      ],
      "name": "removeTokenFromAllowlist",
      "outputs": [],
      "stateMutability": "nonpayable",
      "type": "function"
    },
    {
      "inputs": [
        {
          "internalType": "address",
          "name": "grave",
          "type": "address"
        }
      ],
      "name": "setGrave",
      "outputs": [],
      "stateMutability": "nonpayable",
      "type": "function"
    },
    {
      "inputs": [
        {
          "internalType": "bytes4",
          "name": "interfaceId",
          "type": "bytes4"
        }
      ],
      "name": "supportsInterface",
      "outputs": [
        {
          "internalType": "bool",
          "name": "",
          "type": "bool"
        }
      ],
      "stateMutability": "view",
      "type": "function"
    },
    {
      "inputs": [
        {
          "internalType": "address",
          "name": "",
          "type": "address"
        },
        {
          "internalType": "address",
          "name": "",
          "type": "address"
        }
      ],
      "name": "tokenAllowlist",
      "outputs": [
        {
          "internalType": "bool",
          "name": "",
          "type": "bool"
        }
      ],
      "stateMutability": "view",
      "type": "function"
    },
    {
      "inputs": [
        {
          "internalType": "address",
          "name": "notifier",
          "type": "address"
        },
        {
          "internalType": "uint256",
          "name": "value",
          "type": "uint256"
        },
        {
          "internalType": "bytes32",
          "name": "typeId",
          "type": "bytes32"
        },
        {
          "internalType": "bytes",
          "name": "data",
          "type": "bytes"
        }
      ],
      "name": "universalReceiverDelegate",
      "outputs": [
        {
          "internalType": "bytes",
          "name": "",
          "type": "bytes"
        }
      ],
      "stateMutability": "nonpayable",
      "type": "function"
    },
    {
      "inputs": [],
      "name": "vaultFactoryAddress",
      "outputs": [
        {
          "internalType": "address",
          "name": "",
          "type": "address"
        }
      ],
      "stateMutability": "view",
      "type": "function"
    }
  ],
  "bytecode": "0x608060405273121828ece3cc0f8cd30fe612fae12a72a9595943600260006101000a81548173ffffffffffffffffffffffffffffffffffffffff021916908373ffffffffffffffffffffffffffffffffffffffff16021790555073bc7b3980614215c8090df310661685cc393b601a6040516020016200008091906200015f565b604051602081830303815290604052600390816200009f9190620003f6565b507f0cfc51aec37c55a4d0b1a65c6255c4bf2fbdf6277f3cc0730c45b828b6db8b4760001b600455348015620000d457600080fd5b50620004dd565b600073ffffffffffffffffffffffffffffffffffffffff82169050919050565b60006200010882620000db565b9050919050565b60008160601b9050919050565b600062000129826200010f565b9050919050565b60006200013d826200011c565b9050919050565b620001596200015382620000fb565b62000130565b82525050565b60006200016d828462000144565b60148201915081905092915050565b600081519050919050565b7f4e487b7100000000000000000000000000000000000000000000000000000000600052604160045260246000fd5b7f4e487b7100000000000000000000000000000000000000000000000000000000600052602260045260246000fd5b60006002820490506001821680620001fe57607f821691505b602082108103620002145762000213620001b6565b5b50919050565b60008190508160005260206000209050919050565b60006020601f8301049050919050565b600082821b905092915050565b6000600883026200027e7fffffffffffffffffffffffffffffffffffffffffffffffffffffffffffffffff826200023f565b6200028a86836200023f565b95508019841693508086168417925050509392505050565b6000819050919050565b6000819050919050565b6000620002d7620002d1620002cb84620002a2565b620002ac565b620002a2565b9050919050565b6000819050919050565b620002f383620002b6565b6200030b6200030282620002de565b8484546200024c565b825550505050565b600090565b6200032262000313565b6200032f818484620002e8565b505050565b5b8181101562000357576200034b60008262000318565b60018101905062000335565b5050565b601f821115620003a65762000370816200021a565b6200037b846200022f565b810160208510156200038b578190505b620003a36200039a856200022f565b83018262000334565b50505b505050565b600082821c905092915050565b6000620003cb60001984600802620003ab565b1980831691505092915050565b6000620003e68383620003b8565b9150826002028217905092915050565b62000401826200017c565b67ffffffffffffffff8111156200041d576200041c62000187565b5b620004298254620001e5565b620004368282856200035b565b600060209050601f8311600181146200046e576000841562000459578287015190505b620004658582620003d8565b865550620004d5565b601f1984166200047e866200021a565b60005b82811015620004a85784890151825560018201915060208501945060208101905062000481565b86831015620004c85784890151620004c4601f891682620003b8565b8355505b6001600288020188555050505b505050505050565b613e5f80620004ed6000396000f3fe608060405234801561001057600080fd5b50600436106100ea5760003560e01c80639c70e2271161008c578063ac0d987c11610066578063ac0d987c1461025d578063d61f7ea31461027b578063e226a1b614610299578063ffa1ad74146102c9576100ea565b80639c70e227146101f1578063a245bbda1461020f578063a9114b6a1461023f576100ea565b80633841ddf8116100c85780633841ddf814610157578063420897911461018757806359ff6d3b146101a5578063623c2515146101c1576100ea565b806301ffc9a7146100ef5780631957fba41461011f5780632ad722e21461013b575b600080fd5b61010960048036038101906101049190612ada565b6102e7565b6040516101169190612b22565b60405180910390f35b61013960048036038101906101349190612b9b565b610348565b005b61015560048036038101906101509190612b9b565b6103e0565b005b610171600480360381019061016c9190612bc8565b610460565b60405161017e9190612b22565b60405180910390f35b61018f61048f565b60405161019c9190612c17565b60405180910390f35b6101bf60048036038101906101ba9190612b9b565b6104b5565b005b6101db60048036038101906101d69190612b9b565b61054c565b6040516101e89190612c17565b60405180910390f35b6101f961057f565b6040516102069190612c17565b60405180910390f35b61022960048036038101906102249190612de4565b6106e9565b6040516102369190612ee6565b60405180910390f35b610247610cbe565b6040516102549190612f17565b60405180910390f35b610265610cc4565b6040516102729190612c17565b60405180910390f35b610283610d2a565b6040516102909190612ee6565b60405180910390f35b6102b360048036038101906102ae9190612b9b565b610db8565b6040516102c09190612b22565b60405180910390f35b6102d1610e4b565b6040516102de9190612f87565b60405180910390f35b600063a245bbda60e01b7bffffffffffffffffffffffffffffffffffffffffffffffffffffffff1916827bffffffffffffffffffffffffffffffffffffffffffffffffffffffff19161480610341575061034082610e84565b5b9050919050565b6000600160003373ffffffffffffffffffffffffffffffffffffffff1673ffffffffffffffffffffffffffffffffffffffff16815260200190815260200160002060008373ffffffffffffffffffffffffffffffffffffffff1673ffffffffffffffffffffffffffffffffffffffff16815260200190815260200160002060006101000a81548160ff02191690831515021790555050565b806000803373ffffffffffffffffffffffffffffffffffffffff1673ffffffffffffffffffffffffffffffffffffffff16815260200190815260200160002060006101000a81548173ffffffffffffffffffffffffffffffffffffffff021916908373ffffffffffffffffffffffffffffffffffffffff16021790555050565b60016020528160005260406000206020528060005260406000206000915091509054906101000a900460ff1681565b600260009054906101000a900473ffffffffffffffffffffffffffffffffffffffff1681565b60018060003373ffffffffffffffffffffffffffffffffffffffff1673ffffffffffffffffffffffffffffffffffffffff16815260200190815260200160002060008373ffffffffffffffffffffffffffffffffffffffff1673ffffffffffffffffffffffffffffffffffffffff16815260200190815260200160002060006101000a81548160ff02191690831515021790555050565b60006020528060005260406000206000915054906101000a900473ffffffffffffffffffffffffffffffffffffffff1681565b600080600260009054906101000a900473ffffffffffffffffffffffffffffffffffffffff1673ffffffffffffffffffffffffffffffffffffffff16631df94eb4336040518263ffffffff1660e01b81526004016105dd9190612c17565b6020604051808303816000875af11580156105fc573d6000803e3d6000fd5b505050506040513d601f19601f820116820180604052508101906106209190612fbe565b9050806000803373ffffffffffffffffffffffffffffffffffffffff1673ffffffffffffffffffffffffffffffffffffffff16815260200190815260200160002060006101000a81548173ffffffffffffffffffffffffffffffffffffffff021916908373ffffffffffffffffffffffffffffffffffffffff1602179055508073ffffffffffffffffffffffffffffffffffffffff167f2e49a5810fda2439a23771848b4acec786b0a64d4de3d124ac57fc8739c3887560405160405180910390a28091505090565b6060600160003373ffffffffffffffffffffffffffffffffffffffff1673ffffffffffffffffffffffffffffffffffffffff16815260200190815260200160002060008673ffffffffffffffffffffffffffffffffffffffff1673ffffffffffffffffffffffffffffffffffffffff16815260200190815260200160002060009054906101000a900460ff161561078d5761078685858585610eee565b9050610cb6565b600073ffffffffffffffffffffffffffffffffffffffff166000803373ffffffffffffffffffffffffffffffffffffffff1673ffffffffffffffffffffffffffffffffffffffff16815260200190815260200160002060009054906101000a900473ffffffffffffffffffffffffffffffffffffffff1673ffffffffffffffffffffffffffffffffffffffff160361085a576040517f08c379a00000000000000000000000000000000000000000000000000000000081526004016108519061305d565b60405180910390fd5b61086b336324871b3d60e01b61109d565b61088f57604051806060016040528060278152602001613dc9602791399050610cb6565b60008573ffffffffffffffffffffffffffffffffffffffff163b1115610971578473ffffffffffffffffffffffffffffffffffffffff166370a08231336040518263ffffffff1660e01b81526004016108e89190612c17565b602060405180830381865afa92505050801561092257506040513d601f19601f8201168201806040525081019061091f9190613092565b60015b610946576040518060600160405280603a8152602001613df0603a91399050610cb6565b6000810361096f57604051806060016040528060258152602001613da460259139915050610cb6565b505b7f20804611b3e2ea21c480dc465142210acf4a2485947541770ec1fb87dee4a55c60001b8303610b0a576000828060200190518101906109b1919061316d565b5093505050506000336000803373ffffffffffffffffffffffffffffffffffffffff1673ffffffffffffffffffffffffffffffffffffffff16815260200190815260200160002060009054906101000a900473ffffffffffffffffffffffffffffffffffffffff1683600087604051602401610a31959493929190613213565b60405160208183030381529060405263760d9bba60e01b6020820180517bffffffffffffffffffffffffffffffffffffffffffffffffffffffff838183161783525050505090503373ffffffffffffffffffffffffffffffffffffffff166344c028fe6000896000856040518563ffffffff1660e01b8152600401610ab994939291906132b2565b6000604051808303816000875af1158015610ad8573d6000803e3d6000fd5b505050506040513d6000823e3d601f19601f82011682018060405250810190610b0191906132fe565b92505050610cb6565b7f0b084a55ebf70fd3c06fd755269dac2212c4d3f0f4d09079780bfa50c1b2984d60001b8303610ca357600082806020019051810190610b4a919061335c565b5093505050506000336000803373ffffffffffffffffffffffffffffffffffffffff1673ffffffffffffffffffffffffffffffffffffffff16815260200190815260200160002060009054906101000a900473ffffffffffffffffffffffffffffffffffffffff1683600087604051602401610bca9594939291906133f3565b60405160208183030381529060405263511b695260e01b6020820180517bffffffffffffffffffffffffffffffffffffffffffffffffffffffff838183161783525050505090503373ffffffffffffffffffffffffffffffffffffffff166344c028fe6000896000856040518563ffffffff1660e01b8152600401610c5294939291906132b2565b6000604051808303816000875af1158015610c71573d6000803e3d6000fd5b505050506040513d6000823e3d601f19601f82011682018060405250810190610c9a91906132fe565b92505050610cb6565b6040518060200160405280600081525090505b949350505050565b60045481565b60008060003373ffffffffffffffffffffffffffffffffffffffff1673ffffffffffffffffffffffffffffffffffffffff16815260200190815260200160002060009054906101000a900473ffffffffffffffffffffffffffffffffffffffff16905090565b60038054610d379061347c565b80601f0160208091040260200160405190810160405280929190818152602001828054610d639061347c565b8015610db05780601f10610d8557610100808354040283529160200191610db0565b820191906000526020600020905b815481529060010190602001808311610d9357829003601f168201915b505050505081565b6000600160003373ffffffffffffffffffffffffffffffffffffffff1673ffffffffffffffffffffffffffffffffffffffff16815260200190815260200160002060008373ffffffffffffffffffffffffffffffffffffffff1673ffffffffffffffffffffffffffffffffffffffff16815260200190815260200160002060009054906101000a900460ff169050919050565b6040518060400160405280600681526020017f302e31342e30000000000000000000000000000000000000000000000000000081525081565b60007f01ffc9a7000000000000000000000000000000000000000000000000000000007bffffffffffffffffffffffffffffffffffffffffffffffffffffffff1916827bffffffffffffffffffffffffffffffffffffffffffffffffffffffff1916149050919050565b60607f429ac7a06903dbc9c13dfcb3c9d11df8194581fa047c96d7a4171fc7402958ea60001b8303610f2a57610f238561115c565b9050611095565b7f20804611b3e2ea21c480dc465142210acf4a2485947541770ec1fb87dee4a55c60001b8303610f6c57610f658563b3c4928f60e01b61130c565b9050611095565b7fb23eae7e6d1564b295b4c3e3be402d9a2f0776c57bdf365903496f6fa481ab0060001b8303610fa657610f9f8561115c565b9050611095565b7f0b084a55ebf70fd3c06fd755269dac2212c4d3f0f4d09079780bfa50c1b2984d60001b8303610fe857610fe185633a27170660e01b61130c565b9050611095565b7f0c622e58e6b7089ae35f1af1c86d997be92fcdd8c9509652022d41aa6516947160001b83036110225761101b856114de565b9050611095565b7f79855c97dbc259ce395421d933d7bc0699b0f1561f988f09a9e8633fd542fe5c60001b830361105c57611055856115b0565b9050611095565b6040518060400160405280601981526020017f4c5350313a20747970654964206f7574206f662073636f70650000000000000081525090505b949350505050565b6000806301ffc9a760e01b836040516024016110b991906134bc565b604051602081830303815290604052907bffffffffffffffffffffffffffffffffffffffffffffffffffffffff19166020820180517bffffffffffffffffffffffffffffffffffffffffffffffffffffffff838183161783525050505090506000806000602060008551602087018a617530fa92503d91506000519050828015611144575060208210155b80156111505750600081115b94505050505092915050565b6060813273ffffffffffffffffffffffffffffffffffffffff168173ffffffffffffffffffffffffffffffffffffffff16036111cf57806040517fa52953450000000000000000000000000000000000000000000000000000000081526004016111c69190612c17565b60405180910390fd5b8273ffffffffffffffffffffffffffffffffffffffff166370a08231336040518263ffffffff1660e01b81526004016112089190612c17565b602060405180830381865afa92505050801561124257506040513d601f19601f8201168201806040525081019061123f9190613092565b60015b611266576040518060600160405280602d8152602001613d77602d91399150611306565b600081146112ac576040518060400160405280601e81526020017f4c5350313a2066756c6c2062616c616e6365206973206e6f742073656e740000815250925050611306565b506000806112ba3386611682565b91509150600082511480156112d0575060008151145b156112f7576040518060600160405280602b8152602001613d20602b913993505050611306565b61130182826118f8565b935050505b50919050565b6060823273ffffffffffffffffffffffffffffffffffffffff168173ffffffffffffffffffffffffffffffffffffffff160361137f57806040517fa52953450000000000000000000000000000000000000000000000000000000081526004016113769190612c17565b60405180910390fd5b60008473ffffffffffffffffffffffffffffffffffffffff163b1461147d578373ffffffffffffffffffffffffffffffffffffffff166370a08231336040518263ffffffff1660e01b81526004016113d79190612c17565b602060405180830381865afa92505050801561141157506040513d601f19601f8201168201806040525081019061140e9190613092565b60015b611435576040518060600160405280602d8152602001613d77602d913991506114d7565b6000810361147b576040518060400160405280601581526020017f4c5350313a2062616c616e6365206973207a65726f00000000000000000000008152509250506114d7565b505b60008061148b3387876119b8565b91509150600082511480156114a1575060008151145b156114c8576040518060600160405280602b8152602001613d20602b9139935050506114d7565b6114d282826118f8565b935050505b5092915050565b6060813273ffffffffffffffffffffffffffffffffffffffff168173ffffffffffffffffffffffffffffffffffffffff160361155157806040517fa52953450000000000000000000000000000000000000000000000000000000081526004016115489190612c17565b60405180910390fd5b60008061155e3386611d2f565b9150915060008251148015611574575060008151145b1561159b576040518060600160405280602c8152602001613d4b602c9139935050506115aa565b6115a582826118f8565b935050505b50919050565b6060813273ffffffffffffffffffffffffffffffffffffffff168173ffffffffffffffffffffffffffffffffffffffff160361162357806040517fa529534500000000000000000000000000000000000000000000000000000000815260040161161a9190612c17565b60405180910390fd5b6000806116303386611fb2565b9150915060008251148015611646575060008151145b1561166d576040518060600160405280602c8152602001613d4b602c91399350505061167c565b61167782826118f8565b935050505b50919050565b606080600084905060006116958261232f565b90506116a0816123da565b6116ab5750506118f1565b600060801b6fffffffffffffffffffffffffffffffff1916816116cd90613535565b6fffffffffffffffffffffffffffffffff1916036116ec5750506118f1565b60006001826116fa90613535565b60801c61170791906135e7565b9050600061172569812c4334633eb816c80d60b01b8860601b6123f8565b905060008473ffffffffffffffffffffffffffffffffffffffff166354f6127f836040518263ffffffff1660e01b81526004016117629190612f17565b600060405180830381865afa15801561177f573d6000803e3d6000fd5b505050506040513d6000823e3d601f19601f820116820180604052508101906117a891906132fe565b905060148151146117bd5750505050506118f1565b60006020826117cb9061366c565b6bffffffffffffffffffffffff1916901b60801c905060006118107f6460ee3c0aac563ccbf76d6e1d07bada78e3a9514e6382b736ed3f478ab7b90b60001b83612438565b9050846fffffffffffffffffffffffffffffffff16826fffffffffffffffffffffffffffffffff160361187c5761186c7f6460ee3c0aac563ccbf76d6e1d07bada78e3a9514e6382b736ed3f478ab7b90b60001b868387612475565b98509850505050505050506118f1565b846fffffffffffffffffffffffffffffffff16826fffffffffffffffffffffffffffffffff1610156118e9576118d9877f6460ee3c0aac563ccbf76d6e1d07bada78e3a9514e6382b736ed3f478ab7b90b60001b8784868961261e565b98509850505050505050506118f1565b505050505050505b9250929050565b60603373ffffffffffffffffffffffffffffffffffffffff16639790242184846040518363ffffffff1660e01b815260040161193592919061389d565b600060405180830381600087803b15801561194f57600080fd5b505af1925050508015611960575060015b61199f573d8060008114611990576040519150601f19603f3d011682016040523d82523d6000602084013e611995565b606091505b50809150506119b2565b6040518060200160405280600081525090505b92915050565b606080600085905060006119cb8261232f565b90506119d6816123da565b611a16576000815103611a0e57600060801b6040516020016119f891906138f5565b6040516020818303038152906040529050611a15565b5050611d27565b5b600081611a2290613535565b60801c90506fffffffffffffffffffffffffffffffff8016816fffffffffffffffffffffffffffffffff1603611a5a57505050611d27565b6000611a7669812c4334633eb816c80d60b01b8960601b6123f8565b905060008473ffffffffffffffffffffffffffffffffffffffff166354f6127f836040518263ffffffff1660e01b8152600401611ab39190612f17565b600060405180830381865afa158015611ad0573d6000803e3d6000fd5b505050506040513d6000823e3d601f19601f82011682018060405250810190611af991906132fe565b5114611b085750505050611d27565b600367ffffffffffffffff811115611b2357611b22612cb9565b5b604051908082528060200260200182016040528015611b515781602001602082028036833780820191505090505b509550600367ffffffffffffffff811115611b6f57611b6e612cb9565b5b604051908082528060200260200182016040528015611ba257816020015b6060815260200190600190039081611b8d5790505b5094507f6460ee3c0aac563ccbf76d6e1d07bada78e3a9514e6382b736ed3f478ab7b90b60001b86600081518110611bdd57611bdc613910565b5b602002602001018181525050600182611bf6919061393f565b604051602001611c0691906139b9565b60405160208183030381529060405285600081518110611c2957611c28613910565b5b6020026020010181905250611c617f6460ee3c0aac563ccbf76d6e1d07bada78e3a9514e6382b736ed3f478ab7b90b60001b83612438565b86600181518110611c7557611c74613910565b5b60200260200101818152505087604051602001611c929190613a1c565b60405160208183030381529060405285600181518110611cb557611cb4613910565b5b60200260200101819052508086600281518110611cd557611cd4613910565b5b6020026020010181815250508683604051602001611cf4929190613a94565b60405160208183030381529060405285600281518110611d1757611d16613910565b5b6020026020010181905250505050505b935093915050565b60608060008490506000611d42826129c3565b9050611d4d816123da565b611d58575050611fab565b600081511480611d9a5750600060801b6fffffffffffffffffffffffffffffffff191681611d8590613535565b6fffffffffffffffffffffffffffffffff1916145b15611da6575050611fab565b6000600182611db490613535565b60801c611dc191906135e7565b90506000611ddf69192448c3c0f88c7f238c60b01b8860601b6123f8565b905060008473ffffffffffffffffffffffffffffffffffffffff166354f6127f836040518263ffffffff1660e01b8152600401611e1c9190612f17565b600060405180830381865afa158015611e39573d6000803e3d6000fd5b505050506040513d6000823e3d601f19601f82011682018060405250810190611e6291906132fe565b90506014815114611e77575050505050611fab565b6000602082611e859061366c565b6bffffffffffffffffffffffff1916901b60801c90506000611eca7f55482936e01da86729a45d2b87a6b1d3bc582bea0ec00e38bdb340e3af6f9f0660001b83612438565b9050846fffffffffffffffffffffffffffffffff16826fffffffffffffffffffffffffffffffff1603611f3657611f267f55482936e01da86729a45d2b87a6b1d3bc582bea0ec00e38bdb340e3af6f9f0660001b868387612475565b9850985050505050505050611fab565b846fffffffffffffffffffffffffffffffff16826fffffffffffffffffffffffffffffffff161015611fa357611f93877f55482936e01da86729a45d2b87a6b1d3bc582bea0ec00e38bdb340e3af6f9f0660001b8784868961261e565b9850985050505050505050611fab565b505050505050505b9250929050565b60608060008490506000611fc5826129c3565b9050611fd0816123da565b61201057600081510361200857600060801b604051602001611ff291906138f5565b604051602081830303815290604052905061200f565b5050612328565b5b60008161201c90613535565b60801c90506fffffffffffffffffffffffffffffffff8016816fffffffffffffffffffffffffffffffff160361205457505050612328565b600061207069192448c3c0f88c7f238c60b01b8860601b6123f8565b905060008473ffffffffffffffffffffffffffffffffffffffff166354f6127f836040518263ffffffff1660e01b81526004016120ad9190612f17565b600060405180830381865afa1580156120ca573d6000803e3d6000fd5b505050506040513d6000823e3d601f19601f820116820180604052508101906120f391906132fe565b51146121025750505050612328565b600367ffffffffffffffff81111561211d5761211c612cb9565b5b60405190808252806020026020018201604052801561214b5781602001602082028036833780820191505090505b509550600367ffffffffffffffff81111561216957612168612cb9565b5b60405190808252806020026020018201604052801561219c57816020015b60608152602001906001900390816121875790505b5094507f55482936e01da86729a45d2b87a6b1d3bc582bea0ec00e38bdb340e3af6f9f0660001b866000815181106121d7576121d6613910565b5b6020026020010181815250506001826121f0919061393f565b60405160200161220091906139b9565b6040516020818303038152906040528560008151811061222357612222613910565b5b602002602001018190525061225b7f55482936e01da86729a45d2b87a6b1d3bc582bea0ec00e38bdb340e3af6f9f0660001b83612438565b8660018151811061226f5761226e613910565b5b6020026020010181815250508660405160200161228c9190613a1c565b604051602081830303815290604052856001815181106122af576122ae613910565b5b602002602001018190525080866002815181106122cf576122ce613910565b5b6020026020010181815250506328af17e660e01b836040516020016122f5929190613a94565b6040516020818303038152906040528560028151811061231857612317613910565b5b6020026020010181905250505050505b9250929050565b60608173ffffffffffffffffffffffffffffffffffffffff166354f6127f7f6460ee3c0aac563ccbf76d6e1d07bada78e3a9514e6382b736ed3f478ab7b90b60001b6040518263ffffffff1660e01b815260040161238d9190612f17565b600060405180830381865afa1580156123aa573d6000803e3d6000fd5b505050506040513d6000823e3d601f19601f820116820180604052508101906123d391906132fe565b9050919050565b600060108251036123ee57600190506123f3565b600090505b919050565b60008083600060f01b8460405160200161241493929190613b77565b60405160208183030381529060405290508061242f90613bc9565b91505092915050565b600080838360801b604051602001612451929190613c30565b60405160208183030381529060405290508061246c90613bc9565b91505092915050565b606080600367ffffffffffffffff81111561249357612492612cb9565b5b6040519080825280602002602001820160405280156124c15781602001602082028036833780820191505090505b509150600367ffffffffffffffff8111156124df576124de612cb9565b5b60405190808252806020026020018201604052801561251257816020015b60608152602001906001900390816124fd5790505b509050858260008151811061252a57612529613910565b5b6020026020010181815250508460405160200161254791906139b9565b6040516020818303038152906040528160008151811061256a57612569613910565b5b6020026020010181905250828260018151811061258a57612589613910565b5b60200260200101818152505060405180602001604052806000815250816001815181106125ba576125b9613910565b5b602002602001018190525083826002815181106125da576125d9613910565b5b602002602001018181525050604051806020016040528060008152508160028151811061260a57612609613910565b5b602002602001018190525094509492505050565b606080600567ffffffffffffffff81111561263c5761263b612cb9565b5b60405190808252806020026020018201604052801561266a5781602001602082028036833780820191505090505b509150600567ffffffffffffffff81111561268857612687612cb9565b5b6040519080825280602002602001820160405280156126bb57816020015b60608152602001906001900390816126a65790505b50905086826000815181106126d3576126d2613910565b5b602002602001018181525050856040516020016126f091906139b9565b6040516020818303038152906040528160008151811061271357612712613910565b5b6020026020010181905250828260018151811061273357612732613910565b5b602002602001018181525050604051806020016040528060008152508160018151811061276357612762613910565b5b6020026020010181905250600061277a8888612438565b905060008973ffffffffffffffffffffffffffffffffffffffff166354f6127f836040518263ffffffff1660e01b81526004016127b79190612f17565b600060405180830381865afa1580156127d4573d6000803e3d6000fd5b505050506040513d6000823e3d601f19601f820116820180604052508101906127fd91906132fe565b6128069061366c565b9050868460028151811061281d5761281c613910565b5b6020026020010181815250508060405160200161283a9190613c5c565b6040516020818303038152906040528360028151811061285d5761285c613910565b5b6020026020010181905250818460038151811061287d5761287c613910565b5b60200260200101818152505060405180602001604052806000815250836003815181106128ad576128ac613910565b5b602002602001018190525060006128c486836123f8565b905060008b73ffffffffffffffffffffffffffffffffffffffff166354f6127f836040518263ffffffff1660e01b81526004016129019190612f17565b600060405180830381865afa15801561291e573d6000803e3d6000fd5b505050506040513d6000823e3d601f19601f8201168201806040525081019061294791906132fe565b61295090613c8c565b88604051602001612962929190613cf3565b6040516020818303038152906040529050818660048151811061298857612987613910565b5b60200260200101818152505080856004815181106129a9576129a8613910565b5b602002602001018190525050505050965096945050505050565b60608173ffffffffffffffffffffffffffffffffffffffff166354f6127f7f55482936e01da86729a45d2b87a6b1d3bc582bea0ec00e38bdb340e3af6f9f0660001b6040518263ffffffff1660e01b8152600401612a219190612f17565b600060405180830381865afa158015612a3e573d6000803e3d6000fd5b505050506040513d6000823e3d601f19601f82011682018060405250810190612a6791906132fe565b9050919050565b6000604051905090565b600080fd5b600080fd5b60007fffffffff0000000000000000000000000000000000000000000000000000000082169050919050565b612ab781612a82565b8114612ac257600080fd5b50565b600081359050612ad481612aae565b92915050565b600060208284031215612af057612aef612a78565b5b6000612afe84828501612ac5565b91505092915050565b60008115159050919050565b612b1c81612b07565b82525050565b6000602082019050612b376000830184612b13565b92915050565b600073ffffffffffffffffffffffffffffffffffffffff82169050919050565b6000612b6882612b3d565b9050919050565b612b7881612b5d565b8114612b8357600080fd5b50565b600081359050612b9581612b6f565b92915050565b600060208284031215612bb157612bb0612a78565b5b6000612bbf84828501612b86565b91505092915050565b60008060408385031215612bdf57612bde612a78565b5b6000612bed85828601612b86565b9250506020612bfe85828601612b86565b9150509250929050565b612c1181612b5d565b82525050565b6000602082019050612c2c6000830184612c08565b92915050565b6000819050919050565b612c4581612c32565b8114612c5057600080fd5b50565b600081359050612c6281612c3c565b92915050565b6000819050919050565b612c7b81612c68565b8114612c8657600080fd5b50565b600081359050612c9881612c72565b92915050565b600080fd5b600080fd5b6000601f19601f8301169050919050565b7f4e487b7100000000000000000000000000000000000000000000000000000000600052604160045260246000fd5b612cf182612ca8565b810181811067ffffffffffffffff82111715612d1057612d0f612cb9565b5b80604052505050565b6000612d23612a6e565b9050612d2f8282612ce8565b919050565b600067ffffffffffffffff821115612d4f57612d4e612cb9565b5b612d5882612ca8565b9050602081019050919050565b82818337600083830152505050565b6000612d87612d8284612d34565b612d19565b905082815260208101848484011115612da357612da2612ca3565b5b612dae848285612d65565b509392505050565b600082601f830112612dcb57612dca612c9e565b5b8135612ddb848260208601612d74565b91505092915050565b60008060008060808587031215612dfe57612dfd612a78565b5b6000612e0c87828801612b86565b9450506020612e1d87828801612c53565b9350506040612e2e87828801612c89565b925050606085013567ffffffffffffffff811115612e4f57612e4e612a7d565b5b612e5b87828801612db6565b91505092959194509250565b600081519050919050565b600082825260208201905092915050565b60005b83811015612ea1578082015181840152602081019050612e86565b60008484015250505050565b6000612eb882612e67565b612ec28185612e72565b9350612ed2818560208601612e83565b612edb81612ca8565b840191505092915050565b60006020820190508181036000830152612f008184612ead565b905092915050565b612f1181612c68565b82525050565b6000602082019050612f2c6000830184612f08565b92915050565b600081519050919050565b600082825260208201905092915050565b6000612f5982612f32565b612f638185612f3d565b9350612f73818560208601612e83565b612f7c81612ca8565b840191505092915050565b60006020820190508181036000830152612fa18184612f4e565b905092915050565b600081519050612fb881612b6f565b92915050565b600060208284031215612fd457612fd3612a78565b5b6000612fe284828501612fa9565b91505092915050565b7f4c5350314772617665466f7277616465723a2075736572207661756c74206e6f60008201527f7420736574000000000000000000000000000000000000000000000000000000602082015250565b6000613047602583612f3d565b915061305282612feb565b604082019050919050565b600060208201905081810360008301526130768161303a565b9050919050565b60008151905061308c81612c3c565b92915050565b6000602082840312156130a8576130a7612a78565b5b60006130b68482850161307d565b91505092915050565b60006130ca82612b3d565b9050919050565b6130da816130bf565b81146130e557600080fd5b50565b6000815190506130f7816130d1565b92915050565b600061311061310b84612d34565b612d19565b90508281526020810184848401111561312c5761312b612ca3565b5b613137848285612e83565b509392505050565b600082601f83011261315457613153612c9e565b5b81516131648482602086016130fd565b91505092915050565b600080600080600060a0868803121561318957613188612a78565b5b6000613197888289016130e8565b95505060206131a8888289016130e8565b94505060406131b9888289016130e8565b93505060606131ca8882890161307d565b925050608086015167ffffffffffffffff8111156131eb576131ea612a7d565b5b6131f78882890161313f565b9150509295509295909350565b61320d81612c32565b82525050565b600060a0820190506132286000830188612c08565b6132356020830187612c08565b6132426040830186613204565b61324f6060830185612b13565b81810360808301526132618184612ead565b90509695505050505050565b6000819050919050565b6000819050919050565b600061329c6132976132928461326d565b613277565b612c32565b9050919050565b6132ac81613281565b82525050565b60006080820190506132c760008301876132a3565b6132d46020830186612c08565b6132e160408301856132a3565b81810360608301526132f38184612ead565b905095945050505050565b60006020828403121561331457613313612a78565b5b600082015167ffffffffffffffff81111561333257613331612a7d565b5b61333e8482850161313f565b91505092915050565b60008151905061335681612c72565b92915050565b600080600080600060a0868803121561337857613377612a78565b5b6000613386888289016130e8565b9550506020613397888289016130e8565b94505060406133a8888289016130e8565b93505060606133b988828901613347565b925050608086015167ffffffffffffffff8111156133da576133d9612a7d565b5b6133e68882890161313f565b9150509295509295909350565b600060a0820190506134086000830188612c08565b6134156020830187612c08565b6134226040830186612f08565b61342f6060830185612b13565b81810360808301526134418184612ead565b90509695505050505050565b7f4e487b7100000000000000000000000000000000000000000000000000000000600052602260045260246000fd5b6000600282049050600182168061349457607f821691505b6020821081036134a7576134a661344d565b5b50919050565b6134b681612a82565b82525050565b60006020820190506134d160008301846134ad565b92915050565b6000819050602082019050919050565b60007fffffffffffffffffffffffffffffffff0000000000000000000000000000000082169050919050565b600061351f82516134e7565b80915050919050565b600082821b905092915050565b600061354082612e67565b8261354a846134d7565b905061355581613513565b92506010821015613595576135907fffffffffffffffffffffffffffffffff0000000000000000000000000000000083601003600802613528565b831692505b5050919050565b60006fffffffffffffffffffffffffffffffff82169050919050565b7f4e487b7100000000000000000000000000000000000000000000000000000000600052601160045260246000fd5b60006135f28261359c565b91506135fd8361359c565b925082820390506fffffffffffffffffffffffffffffffff811115613625576136246135b8565b5b92915050565b60007fffffffffffffffffffffffffffffffffffffffff00000000000000000000000082169050919050565b6000613663825161362b565b80915050919050565b600061367782612e67565b82613681846134d7565b905061368c81613657565b925060148210156136cc576136c77fffffffffffffffffffffffffffffffffffffffff00000000000000000000000083601403600802613528565b831692505b5050919050565b600081519050919050565b600082825260208201905092915050565b6000819050602082019050919050565b61370881612c68565b82525050565b600061371a83836136ff565b60208301905092915050565b6000602082019050919050565b600061373e826136d3565b61374881856136de565b9350613753836136ef565b8060005b8381101561378457815161376b888261370e565b975061377683613726565b925050600181019050613757565b5085935050505092915050565b600081519050919050565b600082825260208201905092915050565b6000819050602082019050919050565b600082825260208201905092915050565b60006137d982612e67565b6137e381856137bd565b93506137f3818560208601612e83565b6137fc81612ca8565b840191505092915050565b600061381383836137ce565b905092915050565b6000602082019050919050565b600061383382613791565b61383d818561379c565b93508360208202850161384f856137ad565b8060005b8581101561388b578484038952815161386c8582613807565b94506138778361381b565b925060208a01995050600181019050613853565b50829750879550505050505092915050565b600060408201905081810360008301526138b78185613733565b905081810360208301526138cb8184613828565b90509392505050565b6000819050919050565b6138ef6138ea826134e7565b6138d4565b82525050565b600061390182846138de565b60108201915081905092915050565b7f4e487b7100000000000000000000000000000000000000000000000000000000600052603260045260246000fd5b600061394a8261359c565b91506139558361359c565b925082820190506fffffffffffffffffffffffffffffffff81111561397d5761397c6135b8565b5b92915050565b60008160801b9050919050565b600061399b82613983565b9050919050565b6139b36139ae8261359c565b613990565b82525050565b60006139c582846139a2565b60108201915081905092915050565b60008160601b9050919050565b60006139ec826139d4565b9050919050565b60006139fe826139e1565b9050919050565b613a16613a1182612b5d565b6139f3565b82525050565b6000613a288284613a05565b60148201915081905092915050565b6000819050919050565b613a52613a4d82612a82565b613a37565b82525050565b600081905092915050565b6000613a6e82612e67565b613a788185613a58565b9350613a88818560208601612e83565b80840191505092915050565b6000613aa08285613a41565b600482019150613ab08284613a63565b91508190509392505050565b60007fffffffffffffffffffff0000000000000000000000000000000000000000000082169050919050565b6000819050919050565b613b03613afe82613abc565b613ae8565b82525050565b60007fffff00000000000000000000000000000000000000000000000000000000000082169050919050565b6000819050919050565b613b50613b4b82613b09565b613b35565b82525050565b6000819050919050565b613b71613b6c8261362b565b613b56565b82525050565b6000613b838286613af2565b600a82019150613b938285613b3f565b600282019150613ba38284613b60565b601482019150819050949350505050565b6000613bc08251612c68565b80915050919050565b6000613bd482612e67565b82613bde846134d7565b9050613be981613bb4565b92506020821015613c2957613c247fffffffffffffffffffffffffffffffffffffffffffffffffffffffffffffffff83602003600802613528565b831692505b5050919050565b6000613c3c82856138de565b601082019150613c4c82846138de565b6010820191508190509392505050565b6000613c688284613b60565b60148201915081905092915050565b6000613c838251612a82565b80915050919050565b6000613c9782612e67565b82613ca1846134d7565b9050613cac81613c77565b92506004821015613cec57613ce77fffffffff0000000000000000000000000000000000000000000000000000000083600403600802613528565b831692505b5050919050565b6000613cff8285613a41565b600482019150613d0f82846139a2565b601082019150819050939250505056fe4c5350353a204572726f722067656e65726174696e672064617461206b65792f76616c75652070616972734c535031303a204572726f722067656e65726174696e672064617461206b65792f76616c75652070616972734c5350313a206062616c616e63654f66286164647265737329602066756e6374696f6e206e6f7420666f756e644c5350314772617665466f7277616465723a2055502062616c616e6365206973207a65726f4c5350314772617665466f7277616465723a2063616c6c6572206973206e6f742061204c5350304c5350314772617665466f7277616465723a206062616c616e63654f66286164647265737329602066756e6374696f6e206e6f7420666f756e64a264697066735822122062d94f189a17cb798e94b657c791618a54a6020e2e22c7a301829b283318eb4364736f6c63430008110033",
  "linkReferences": {},
  "deployedLinkReferences": {}
}