{
  "_format": "hh-sol-artifact-1",
  "contractName": "LSP1GraveForwarder",
  "sourceName": "contracts/LSP1GraveForwarder.sol",
  "abi": [
    {
      "inputs": [
        {
          "internalType": "address",
          "name": "caller",
          "type": "address"
        }
      ],
      "name": "CannotRegisterEOAsAsAssets",
      "type": "error"
    },
    {
      "inputs": [],
      "name": "VERSION",
      "outputs": [
        {
          "internalType": "string",
          "name": "",
          "type": "string"
        }
      ],
      "stateMutability": "view",
      "type": "function"
    },
    {
      "inputs": [
        {
          "internalType": "address",
          "name": "token",
          "type": "address"
        }
      ],
      "name": "addTokenToAllowlist",
      "outputs": [],
      "stateMutability": "nonpayable",
      "type": "function"
    },
    {
      "inputs": [
        {
          "internalType": "address",
          "name": "token",
          "type": "address"
        }
      ],
      "name": "getAddressStatus",
      "outputs": [
        {
          "internalType": "bool",
          "name": "",
          "type": "bool"
        }
      ],
      "stateMutability": "view",
      "type": "function"
    },
    {
      "inputs": [],
      "name": "getGrave",
      "outputs": [
        {
          "internalType": "address",
          "name": "",
          "type": "address"
        }
      ],
      "stateMutability": "view",
      "type": "function"
    },
    {
      "inputs": [
        {
          "internalType": "address",
          "name": "",
          "type": "address"
        }
      ],
      "name": "graveVaults",
      "outputs": [
        {
          "internalType": "address",
          "name": "",
          "type": "address"
        }
      ],
      "stateMutability": "view",
      "type": "function"
    },
    {
      "inputs": [
        {
          "internalType": "address",
          "name": "token",
          "type": "address"
        }
      ],
      "name": "removeTokenFromAllowlist",
      "outputs": [],
      "stateMutability": "nonpayable",
      "type": "function"
    },
    {
      "inputs": [
        {
          "internalType": "address",
          "name": "grave",
          "type": "address"
        }
      ],
      "name": "setGrave",
      "outputs": [],
      "stateMutability": "nonpayable",
      "type": "function"
    },
    {
      "inputs": [
        {
          "internalType": "bytes4",
          "name": "interfaceId",
          "type": "bytes4"
        }
      ],
      "name": "supportsInterface",
      "outputs": [
        {
          "internalType": "bool",
          "name": "",
          "type": "bool"
        }
      ],
      "stateMutability": "view",
      "type": "function"
    },
    {
      "inputs": [
        {
          "internalType": "address",
          "name": "",
          "type": "address"
        },
        {
          "internalType": "address",
          "name": "",
          "type": "address"
        }
      ],
      "name": "tokenAllowlist",
      "outputs": [
        {
          "internalType": "bool",
          "name": "",
          "type": "bool"
        }
      ],
      "stateMutability": "view",
      "type": "function"
    },
    {
      "inputs": [
        {
          "internalType": "address",
          "name": "notifier",
          "type": "address"
        },
        {
          "internalType": "uint256",
          "name": "value",
          "type": "uint256"
        },
        {
          "internalType": "bytes32",
          "name": "typeId",
          "type": "bytes32"
        },
        {
          "internalType": "bytes",
          "name": "data",
          "type": "bytes"
        }
      ],
      "name": "universalReceiverDelegate",
      "outputs": [
        {
          "internalType": "bytes",
          "name": "",
          "type": "bytes"
        }
      ],
      "stateMutability": "nonpayable",
      "type": "function"
    }
  ],
  "bytecode": "0x608060405234801561001057600080fd5b50613bfd806100206000396000f3fe608060405234801561001057600080fd5b506004361061009e5760003560e01c8063623c251511610066578063623c251514610157578063a245bbda14610187578063ac0d987c146101b7578063e226a1b6146101d5578063ffa1ad74146102055761009e565b806301ffc9a7146100a35780631957fba4146100d35780632ad722e2146100ef5780633841ddf81461010b57806359ff6d3b1461013b575b600080fd5b6100bd60048036038101906100b891906128e5565b610223565b6040516100ca919061292d565b60405180910390f35b6100ed60048036038101906100e891906129a6565b610284565b005b610109600480360381019061010491906129a6565b610313565b005b610125600480360381019061012091906129d3565b6103e3565b604051610132919061292d565b60405180910390f35b610155600480360381019061015091906129a6565b610412565b005b610171600480360381019061016c91906129a6565b6104a9565b60405161017e9190612a22565b60405180910390f35b6101a1600480360381019061019c9190612bef565b6104dc565b6040516101ae9190612cf1565b60405180910390f35b6101bf610aeb565b6040516101cc9190612a22565b60405180910390f35b6101ef60048036038101906101ea91906129a6565b610b51565b6040516101fc919061292d565b60405180910390f35b61020d610be4565b60405161021a9190612d68565b60405180910390f35b600063a245bbda60e01b7bffffffffffffffffffffffffffffffffffffffffffffffffffffffff1916827bffffffffffffffffffffffffffffffffffffffffffffffffffffffff1916148061027d575061027c82610c1d565b5b9050919050565b600160003373ffffffffffffffffffffffffffffffffffffffff1673ffffffffffffffffffffffffffffffffffffffff16815260200190815260200160002060008273ffffffffffffffffffffffffffffffffffffffff1673ffffffffffffffffffffffffffffffffffffffff16815260200190815260200160002060006101000a81549060ff021916905550565b610324816328af17e660e01b610c87565b610363576040517f08c379a000000000000000000000000000000000000000000000000000000000815260040161035a90612dfc565b60405180910390fd5b806000803373ffffffffffffffffffffffffffffffffffffffff1673ffffffffffffffffffffffffffffffffffffffff16815260200190815260200160002060006101000a81548173ffffffffffffffffffffffffffffffffffffffff021916908373ffffffffffffffffffffffffffffffffffffffff16021790555050565b60016020528160005260406000206020528060005260406000206000915091509054906101000a900460ff1681565b60018060003373ffffffffffffffffffffffffffffffffffffffff1673ffffffffffffffffffffffffffffffffffffffff16815260200190815260200160002060008373ffffffffffffffffffffffffffffffffffffffff1673ffffffffffffffffffffffffffffffffffffffff16815260200190815260200160002060006101000a81548160ff02191690831515021790555050565b60006020528060005260406000206000915054906101000a900473ffffffffffffffffffffffffffffffffffffffff1681565b6060600160003373ffffffffffffffffffffffffffffffffffffffff1673ffffffffffffffffffffffffffffffffffffffff16815260200190815260200160002060008673ffffffffffffffffffffffffffffffffffffffff1673ffffffffffffffffffffffffffffffffffffffff16815260200190815260200160002060009054906101000a900460ff16156105805761057985858585610cac565b9050610ae3565b600073ffffffffffffffffffffffffffffffffffffffff166000803373ffffffffffffffffffffffffffffffffffffffff1673ffffffffffffffffffffffffffffffffffffffff16815260200190815260200160002060009054906101000a900473ffffffffffffffffffffffffffffffffffffffff1673ffffffffffffffffffffffffffffffffffffffff160361064d576040517f08c379a000000000000000000000000000000000000000000000000000000000815260040161064490612e8e565b60405180910390fd5b61065e336324871b3d60e01b610e5b565b61069f576040518060400160405280601681526020017f3a2063616c6c6572206973206e6f742061204c535030000000000000000000008152509050610ae3565b60008573ffffffffffffffffffffffffffffffffffffffff163b111561079e578473ffffffffffffffffffffffffffffffffffffffff166370a08231336040518263ffffffff1660e01b81526004016106f89190612a22565b602060405180830381865afa92505050801561073257506040513d601f19601f8201168201806040525081019061072f9190612ec3565b60015b61075657604051806060016040528060298152602001613b9f602991399050610ae3565b6000810361079c576040518060400160405280601481526020017f3a2055502062616c616e6365206973207a65726f000000000000000000000000815250915050610ae3565b505b7f20804611b3e2ea21c480dc465142210acf4a2485947541770ec1fb87dee4a55c60001b8303610937576000828060200190518101906107de9190612f9e565b5093505050506000336000803373ffffffffffffffffffffffffffffffffffffffff1673ffffffffffffffffffffffffffffffffffffffff16815260200190815260200160002060009054906101000a900473ffffffffffffffffffffffffffffffffffffffff168360008760405160240161085e959493929190613044565b60405160208183030381529060405263760d9bba60e01b6020820180517bffffffffffffffffffffffffffffffffffffffffffffffffffffffff838183161783525050505090503373ffffffffffffffffffffffffffffffffffffffff166344c028fe6000896000856040518563ffffffff1660e01b81526004016108e694939291906130e3565b6000604051808303816000875af1158015610905573d6000803e3d6000fd5b505050506040513d6000823e3d601f19601f8201168201806040525081019061092e919061312f565b92505050610ae3565b7f0b084a55ebf70fd3c06fd755269dac2212c4d3f0f4d09079780bfa50c1b2984d60001b8303610ad057600082806020019051810190610977919061318d565b5093505050506000336000803373ffffffffffffffffffffffffffffffffffffffff1673ffffffffffffffffffffffffffffffffffffffff16815260200190815260200160002060009054906101000a900473ffffffffffffffffffffffffffffffffffffffff16836000876040516024016109f7959493929190613233565b60405160208183030381529060405263511b695260e01b6020820180517bffffffffffffffffffffffffffffffffffffffffffffffffffffffff838183161783525050505090503373ffffffffffffffffffffffffffffffffffffffff166344c028fe6000896000856040518563ffffffff1660e01b8152600401610a7f94939291906130e3565b6000604051808303816000875af1158015610a9e573d6000803e3d6000fd5b505050506040513d6000823e3d601f19601f82011682018060405250810190610ac7919061312f565b92505050610ae3565b6040518060200160405280600081525090505b949350505050565b60008060003373ffffffffffffffffffffffffffffffffffffffff1673ffffffffffffffffffffffffffffffffffffffff16815260200190815260200160002060009054906101000a900473ffffffffffffffffffffffffffffffffffffffff16905090565b6000600160003373ffffffffffffffffffffffffffffffffffffffff1673ffffffffffffffffffffffffffffffffffffffff16815260200190815260200160002060008373ffffffffffffffffffffffffffffffffffffffff1673ffffffffffffffffffffffffffffffffffffffff16815260200190815260200160002060009054906101000a900460ff169050919050565b6040518060400160405280600681526020017f302e31342e30000000000000000000000000000000000000000000000000000081525081565b60007f01ffc9a7000000000000000000000000000000000000000000000000000000007bffffffffffffffffffffffffffffffffffffffffffffffffffffffff1916827bffffffffffffffffffffffffffffffffffffffffffffffffffffffff1916149050919050565b6000610c9283610f1a565b8015610ca45750610ca38383610e5b565b5b905092915050565b60607f429ac7a06903dbc9c13dfcb3c9d11df8194581fa047c96d7a4171fc7402958ea60001b8303610ce857610ce185610f67565b9050610e53565b7f20804611b3e2ea21c480dc465142210acf4a2485947541770ec1fb87dee4a55c60001b8303610d2a57610d238563b3c4928f60e01b611117565b9050610e53565b7fb23eae7e6d1564b295b4c3e3be402d9a2f0776c57bdf365903496f6fa481ab0060001b8303610d6457610d5d85610f67565b9050610e53565b7f0b084a55ebf70fd3c06fd755269dac2212c4d3f0f4d09079780bfa50c1b2984d60001b8303610da657610d9f85633a27170660e01b611117565b9050610e53565b7f0c622e58e6b7089ae35f1af1c86d997be92fcdd8c9509652022d41aa6516947160001b8303610de057610dd9856112e9565b9050610e53565b7f79855c97dbc259ce395421d933d7bc0699b0f1561f988f09a9e8633fd542fe5c60001b8303610e1a57610e13856113bb565b9050610e53565b6040518060400160405280601981526020017f4c5350313a20747970654964206f7574206f662073636f70650000000000000081525090505b949350505050565b6000806301ffc9a760e01b83604051602401610e77919061329c565b604051602081830303815290604052907bffffffffffffffffffffffffffffffffffffffffffffffffffffffff19166020820180517bffffffffffffffffffffffffffffffffffffffffffffffffffffffff838183161783525050505090506000806000602060008551602087018a617530fa92503d91506000519050828015610f02575060208210155b8015610f0e5750600081115b94505050505092915050565b6000610f46827f01ffc9a700000000000000000000000000000000000000000000000000000000610e5b565b8015610f605750610f5e8263ffffffff60e01b610e5b565b155b9050919050565b6060813273ffffffffffffffffffffffffffffffffffffffff168173ffffffffffffffffffffffffffffffffffffffff1603610fda57806040517fa5295345000000000000000000000000000000000000000000000000000000008152600401610fd19190612a22565b60405180910390fd5b8273ffffffffffffffffffffffffffffffffffffffff166370a08231336040518263ffffffff1660e01b81526004016110139190612a22565b602060405180830381865afa92505050801561104d57506040513d601f19601f8201168201806040525081019061104a9190612ec3565b60015b611071576040518060600160405280602d8152602001613b72602d91399150611111565b600081146110b7576040518060400160405280601e81526020017f4c5350313a2066756c6c2062616c616e6365206973206e6f742073656e740000815250925050611111565b506000806110c5338661148d565b91509150600082511480156110db575060008151145b15611102576040518060600160405280602b8152602001613b1b602b913993505050611111565b61110c8282611703565b935050505b50919050565b6060823273ffffffffffffffffffffffffffffffffffffffff168173ffffffffffffffffffffffffffffffffffffffff160361118a57806040517fa52953450000000000000000000000000000000000000000000000000000000081526004016111819190612a22565b60405180910390fd5b60008473ffffffffffffffffffffffffffffffffffffffff163b14611288578373ffffffffffffffffffffffffffffffffffffffff166370a08231336040518263ffffffff1660e01b81526004016111e29190612a22565b602060405180830381865afa92505050801561121c57506040513d601f19601f820116820180604052508101906112199190612ec3565b60015b611240576040518060600160405280602d8152602001613b72602d913991506112e2565b60008103611286576040518060400160405280601581526020017f4c5350313a2062616c616e6365206973207a65726f00000000000000000000008152509250506112e2565b505b6000806112963387876117c3565b91509150600082511480156112ac575060008151145b156112d3576040518060600160405280602b8152602001613b1b602b9139935050506112e2565b6112dd8282611703565b935050505b5092915050565b6060813273ffffffffffffffffffffffffffffffffffffffff168173ffffffffffffffffffffffffffffffffffffffff160361135c57806040517fa52953450000000000000000000000000000000000000000000000000000000081526004016113539190612a22565b60405180910390fd5b6000806113693386611b3a565b915091506000825114801561137f575060008151145b156113a6576040518060600160405280602c8152602001613b46602c9139935050506113b5565b6113b08282611703565b935050505b50919050565b6060813273ffffffffffffffffffffffffffffffffffffffff168173ffffffffffffffffffffffffffffffffffffffff160361142e57806040517fa52953450000000000000000000000000000000000000000000000000000000081526004016114259190612a22565b60405180910390fd5b60008061143b3386611dbd565b9150915060008251148015611451575060008151145b15611478576040518060600160405280602c8152602001613b46602c913993505050611487565b6114828282611703565b935050505b50919050565b606080600084905060006114a08261213a565b90506114ab816121e5565b6114b65750506116fc565b600060801b6fffffffffffffffffffffffffffffffff1916816114d890613315565b6fffffffffffffffffffffffffffffffff1916036114f75750506116fc565b600060018261150590613315565b60801c61151291906133c7565b9050600061153069812c4334633eb816c80d60b01b8860601b612203565b905060008473ffffffffffffffffffffffffffffffffffffffff166354f6127f836040518263ffffffff1660e01b815260040161156d919061340b565b600060405180830381865afa15801561158a573d6000803e3d6000fd5b505050506040513d6000823e3d601f19601f820116820180604052508101906115b3919061312f565b905060148151146115c85750505050506116fc565b60006020826115d690613467565b6bffffffffffffffffffffffff1916901b60801c9050600061161b7f6460ee3c0aac563ccbf76d6e1d07bada78e3a9514e6382b736ed3f478ab7b90b60001b83612243565b9050846fffffffffffffffffffffffffffffffff16826fffffffffffffffffffffffffffffffff1603611687576116777f6460ee3c0aac563ccbf76d6e1d07bada78e3a9514e6382b736ed3f478ab7b90b60001b868387612280565b98509850505050505050506116fc565b846fffffffffffffffffffffffffffffffff16826fffffffffffffffffffffffffffffffff1610156116f4576116e4877f6460ee3c0aac563ccbf76d6e1d07bada78e3a9514e6382b736ed3f478ab7b90b60001b87848689612429565b98509850505050505050506116fc565b505050505050505b9250929050565b60603373ffffffffffffffffffffffffffffffffffffffff16639790242184846040518363ffffffff1660e01b8152600401611740929190613698565b600060405180830381600087803b15801561175a57600080fd5b505af192505050801561176b575060015b6117aa573d806000811461179b576040519150601f19603f3d011682016040523d82523d6000602084013e6117a0565b606091505b50809150506117bd565b6040518060200160405280600081525090505b92915050565b606080600085905060006117d68261213a565b90506117e1816121e5565b61182157600081510361181957600060801b60405160200161180391906136f0565b6040516020818303038152906040529050611820565b5050611b32565b5b60008161182d90613315565b60801c90506fffffffffffffffffffffffffffffffff8016816fffffffffffffffffffffffffffffffff160361186557505050611b32565b600061188169812c4334633eb816c80d60b01b8960601b612203565b905060008473ffffffffffffffffffffffffffffffffffffffff166354f6127f836040518263ffffffff1660e01b81526004016118be919061340b565b600060405180830381865afa1580156118db573d6000803e3d6000fd5b505050506040513d6000823e3d601f19601f82011682018060405250810190611904919061312f565b51146119135750505050611b32565b600367ffffffffffffffff81111561192e5761192d612ac4565b5b60405190808252806020026020018201604052801561195c5781602001602082028036833780820191505090505b509550600367ffffffffffffffff81111561197a57611979612ac4565b5b6040519080825280602002602001820160405280156119ad57816020015b60608152602001906001900390816119985790505b5094507f6460ee3c0aac563ccbf76d6e1d07bada78e3a9514e6382b736ed3f478ab7b90b60001b866000815181106119e8576119e761370b565b5b602002602001018181525050600182611a01919061373a565b604051602001611a1191906137b4565b60405160208183030381529060405285600081518110611a3457611a3361370b565b5b6020026020010181905250611a6c7f6460ee3c0aac563ccbf76d6e1d07bada78e3a9514e6382b736ed3f478ab7b90b60001b83612243565b86600181518110611a8057611a7f61370b565b5b60200260200101818152505087604051602001611a9d9190613817565b60405160208183030381529060405285600181518110611ac057611abf61370b565b5b60200260200101819052508086600281518110611ae057611adf61370b565b5b6020026020010181815250508683604051602001611aff92919061388f565b60405160208183030381529060405285600281518110611b2257611b2161370b565b5b6020026020010181905250505050505b935093915050565b60608060008490506000611b4d826127ce565b9050611b58816121e5565b611b63575050611db6565b600081511480611ba55750600060801b6fffffffffffffffffffffffffffffffff191681611b9090613315565b6fffffffffffffffffffffffffffffffff1916145b15611bb1575050611db6565b6000600182611bbf90613315565b60801c611bcc91906133c7565b90506000611bea69192448c3c0f88c7f238c60b01b8860601b612203565b905060008473ffffffffffffffffffffffffffffffffffffffff166354f6127f836040518263ffffffff1660e01b8152600401611c27919061340b565b600060405180830381865afa158015611c44573d6000803e3d6000fd5b505050506040513d6000823e3d601f19601f82011682018060405250810190611c6d919061312f565b90506014815114611c82575050505050611db6565b6000602082611c9090613467565b6bffffffffffffffffffffffff1916901b60801c90506000611cd57f55482936e01da86729a45d2b87a6b1d3bc582bea0ec00e38bdb340e3af6f9f0660001b83612243565b9050846fffffffffffffffffffffffffffffffff16826fffffffffffffffffffffffffffffffff1603611d4157611d317f55482936e01da86729a45d2b87a6b1d3bc582bea0ec00e38bdb340e3af6f9f0660001b868387612280565b9850985050505050505050611db6565b846fffffffffffffffffffffffffffffffff16826fffffffffffffffffffffffffffffffff161015611dae57611d9e877f55482936e01da86729a45d2b87a6b1d3bc582bea0ec00e38bdb340e3af6f9f0660001b87848689612429565b9850985050505050505050611db6565b505050505050505b9250929050565b60608060008490506000611dd0826127ce565b9050611ddb816121e5565b611e1b576000815103611e1357600060801b604051602001611dfd91906136f0565b6040516020818303038152906040529050611e1a565b5050612133565b5b600081611e2790613315565b60801c90506fffffffffffffffffffffffffffffffff8016816fffffffffffffffffffffffffffffffff1603611e5f57505050612133565b6000611e7b69192448c3c0f88c7f238c60b01b8860601b612203565b905060008473ffffffffffffffffffffffffffffffffffffffff166354f6127f836040518263ffffffff1660e01b8152600401611eb8919061340b565b600060405180830381865afa158015611ed5573d6000803e3d6000fd5b505050506040513d6000823e3d601f19601f82011682018060405250810190611efe919061312f565b5114611f0d5750505050612133565b600367ffffffffffffffff811115611f2857611f27612ac4565b5b604051908082528060200260200182016040528015611f565781602001602082028036833780820191505090505b509550600367ffffffffffffffff811115611f7457611f73612ac4565b5b604051908082528060200260200182016040528015611fa757816020015b6060815260200190600190039081611f925790505b5094507f55482936e01da86729a45d2b87a6b1d3bc582bea0ec00e38bdb340e3af6f9f0660001b86600081518110611fe257611fe161370b565b5b602002602001018181525050600182611ffb919061373a565b60405160200161200b91906137b4565b6040516020818303038152906040528560008151811061202e5761202d61370b565b5b60200260200101819052506120667f55482936e01da86729a45d2b87a6b1d3bc582bea0ec00e38bdb340e3af6f9f0660001b83612243565b8660018151811061207a5761207961370b565b5b602002602001018181525050866040516020016120979190613817565b604051602081830303815290604052856001815181106120ba576120b961370b565b5b602002602001018190525080866002815181106120da576120d961370b565b5b6020026020010181815250506328af17e660e01b8360405160200161210092919061388f565b604051602081830303815290604052856002815181106121235761212261370b565b5b6020026020010181905250505050505b9250929050565b60608173ffffffffffffffffffffffffffffffffffffffff166354f6127f7f6460ee3c0aac563ccbf76d6e1d07bada78e3a9514e6382b736ed3f478ab7b90b60001b6040518263ffffffff1660e01b8152600401612198919061340b565b600060405180830381865afa1580156121b5573d6000803e3d6000fd5b505050506040513d6000823e3d601f19601f820116820180604052508101906121de919061312f565b9050919050565b600060108251036121f957600190506121fe565b600090505b919050565b60008083600060f01b8460405160200161221f93929190613972565b60405160208183030381529060405290508061223a906139c4565b91505092915050565b600080838360801b60405160200161225c929190613a2b565b604051602081830303815290604052905080612277906139c4565b91505092915050565b606080600367ffffffffffffffff81111561229e5761229d612ac4565b5b6040519080825280602002602001820160405280156122cc5781602001602082028036833780820191505090505b509150600367ffffffffffffffff8111156122ea576122e9612ac4565b5b60405190808252806020026020018201604052801561231d57816020015b60608152602001906001900390816123085790505b50905085826000815181106123355761233461370b565b5b6020026020010181815250508460405160200161235291906137b4565b604051602081830303815290604052816000815181106123755761237461370b565b5b602002602001018190525082826001815181106123955761239461370b565b5b60200260200101818152505060405180602001604052806000815250816001815181106123c5576123c461370b565b5b602002602001018190525083826002815181106123e5576123e461370b565b5b60200260200101818152505060405180602001604052806000815250816002815181106124155761241461370b565b5b602002602001018190525094509492505050565b606080600567ffffffffffffffff81111561244757612446612ac4565b5b6040519080825280602002602001820160405280156124755781602001602082028036833780820191505090505b509150600567ffffffffffffffff81111561249357612492612ac4565b5b6040519080825280602002602001820160405280156124c657816020015b60608152602001906001900390816124b15790505b50905086826000815181106124de576124dd61370b565b5b602002602001018181525050856040516020016124fb91906137b4565b6040516020818303038152906040528160008151811061251e5761251d61370b565b5b6020026020010181905250828260018151811061253e5761253d61370b565b5b602002602001018181525050604051806020016040528060008152508160018151811061256e5761256d61370b565b5b602002602001018190525060006125858888612243565b905060008973ffffffffffffffffffffffffffffffffffffffff166354f6127f836040518263ffffffff1660e01b81526004016125c2919061340b565b600060405180830381865afa1580156125df573d6000803e3d6000fd5b505050506040513d6000823e3d601f19601f82011682018060405250810190612608919061312f565b61261190613467565b905086846002815181106126285761262761370b565b5b602002602001018181525050806040516020016126459190613a57565b604051602081830303815290604052836002815181106126685761266761370b565b5b602002602001018190525081846003815181106126885761268761370b565b5b60200260200101818152505060405180602001604052806000815250836003815181106126b8576126b761370b565b5b602002602001018190525060006126cf8683612203565b905060008b73ffffffffffffffffffffffffffffffffffffffff166354f6127f836040518263ffffffff1660e01b815260040161270c919061340b565b600060405180830381865afa158015612729573d6000803e3d6000fd5b505050506040513d6000823e3d601f19601f82011682018060405250810190612752919061312f565b61275b90613a87565b8860405160200161276d929190613aee565b604051602081830303815290604052905081866004815181106127935761279261370b565b5b60200260200101818152505080856004815181106127b4576127b361370b565b5b602002602001018190525050505050965096945050505050565b60608173ffffffffffffffffffffffffffffffffffffffff166354f6127f7f55482936e01da86729a45d2b87a6b1d3bc582bea0ec00e38bdb340e3af6f9f0660001b6040518263ffffffff1660e01b815260040161282c919061340b565b600060405180830381865afa158015612849573d6000803e3d6000fd5b505050506040513d6000823e3d601f19601f82011682018060405250810190612872919061312f565b9050919050565b6000604051905090565b600080fd5b600080fd5b60007fffffffff0000000000000000000000000000000000000000000000000000000082169050919050565b6128c28161288d565b81146128cd57600080fd5b50565b6000813590506128df816128b9565b92915050565b6000602082840312156128fb576128fa612883565b5b6000612909848285016128d0565b91505092915050565b60008115159050919050565b61292781612912565b82525050565b6000602082019050612942600083018461291e565b92915050565b600073ffffffffffffffffffffffffffffffffffffffff82169050919050565b600061297382612948565b9050919050565b61298381612968565b811461298e57600080fd5b50565b6000813590506129a08161297a565b92915050565b6000602082840312156129bc576129bb612883565b5b60006129ca84828501612991565b91505092915050565b600080604083850312156129ea576129e9612883565b5b60006129f885828601612991565b9250506020612a0985828601612991565b9150509250929050565b612a1c81612968565b82525050565b6000602082019050612a376000830184612a13565b92915050565b6000819050919050565b612a5081612a3d565b8114612a5b57600080fd5b50565b600081359050612a6d81612a47565b92915050565b6000819050919050565b612a8681612a73565b8114612a9157600080fd5b50565b600081359050612aa381612a7d565b92915050565b600080fd5b600080fd5b6000601f19601f8301169050919050565b7f4e487b7100000000000000000000000000000000000000000000000000000000600052604160045260246000fd5b612afc82612ab3565b810181811067ffffffffffffffff82111715612b1b57612b1a612ac4565b5b80604052505050565b6000612b2e612879565b9050612b3a8282612af3565b919050565b600067ffffffffffffffff821115612b5a57612b59612ac4565b5b612b6382612ab3565b9050602081019050919050565b82818337600083830152505050565b6000612b92612b8d84612b3f565b612b24565b905082815260208101848484011115612bae57612bad612aae565b5b612bb9848285612b70565b509392505050565b600082601f830112612bd657612bd5612aa9565b5b8135612be6848260208601612b7f565b91505092915050565b60008060008060808587031215612c0957612c08612883565b5b6000612c1787828801612991565b9450506020612c2887828801612a5e565b9350506040612c3987828801612a94565b925050606085013567ffffffffffffffff811115612c5a57612c59612888565b5b612c6687828801612bc1565b91505092959194509250565b600081519050919050565b600082825260208201905092915050565b60005b83811015612cac578082015181840152602081019050612c91565b60008484015250505050565b6000612cc382612c72565b612ccd8185612c7d565b9350612cdd818560208601612c8e565b612ce681612ab3565b840191505092915050565b60006020820190508181036000830152612d0b8184612cb8565b905092915050565b600081519050919050565b600082825260208201905092915050565b6000612d3a82612d13565b612d448185612d1e565b9350612d54818560208601612c8e565b612d5d81612ab3565b840191505092915050565b60006020820190508181036000830152612d828184612d2f565b905092915050565b7f50726f7669646564206164647265737320646f6573206e6f7420696d706c656d60008201527f656e74204c5350395661756c7420696e74657266616365000000000000000000602082015250565b6000612de6603783612d1e565b9150612df182612d8a565b604082019050919050565b60006020820190508181036000830152612e1581612dd9565b9050919050565b7f4c5350314772617665466f727761726465723a2075736572207661756c74206e60008201527f6f74207365740000000000000000000000000000000000000000000000000000602082015250565b6000612e78602683612d1e565b9150612e8382612e1c565b604082019050919050565b60006020820190508181036000830152612ea781612e6b565b9050919050565b600081519050612ebd81612a47565b92915050565b600060208284031215612ed957612ed8612883565b5b6000612ee784828501612eae565b91505092915050565b6000612efb82612948565b9050919050565b612f0b81612ef0565b8114612f1657600080fd5b50565b600081519050612f2881612f02565b92915050565b6000612f41612f3c84612b3f565b612b24565b905082815260208101848484011115612f5d57612f5c612aae565b5b612f68848285612c8e565b509392505050565b600082601f830112612f8557612f84612aa9565b5b8151612f95848260208601612f2e565b91505092915050565b600080600080600060a08688031215612fba57612fb9612883565b5b6000612fc888828901612f19565b9550506020612fd988828901612f19565b9450506040612fea88828901612f19565b9350506060612ffb88828901612eae565b925050608086015167ffffffffffffffff81111561301c5761301b612888565b5b61302888828901612f70565b9150509295509295909350565b61303e81612a3d565b82525050565b600060a0820190506130596000830188612a13565b6130666020830187612a13565b6130736040830186613035565b613080606083018561291e565b81810360808301526130928184612cb8565b90509695505050505050565b6000819050919050565b6000819050919050565b60006130cd6130c86130c38461309e565b6130a8565b612a3d565b9050919050565b6130dd816130b2565b82525050565b60006080820190506130f860008301876130d4565b6131056020830186612a13565b61311260408301856130d4565b81810360608301526131248184612cb8565b905095945050505050565b60006020828403121561314557613144612883565b5b600082015167ffffffffffffffff81111561316357613162612888565b5b61316f84828501612f70565b91505092915050565b60008151905061318781612a7d565b92915050565b600080600080600060a086880312156131a9576131a8612883565b5b60006131b788828901612f19565b95505060206131c888828901612f19565b94505060406131d988828901612f19565b93505060606131ea88828901613178565b925050608086015167ffffffffffffffff81111561320b5761320a612888565b5b61321788828901612f70565b9150509295509295909350565b61322d81612a73565b82525050565b600060a0820190506132486000830188612a13565b6132556020830187612a13565b6132626040830186613224565b61326f606083018561291e565b81810360808301526132818184612cb8565b90509695505050505050565b6132968161288d565b82525050565b60006020820190506132b1600083018461328d565b92915050565b6000819050602082019050919050565b60007fffffffffffffffffffffffffffffffff0000000000000000000000000000000082169050919050565b60006132ff82516132c7565b80915050919050565b600082821b905092915050565b600061332082612c72565b8261332a846132b7565b9050613335816132f3565b92506010821015613375576133707fffffffffffffffffffffffffffffffff0000000000000000000000000000000083601003600802613308565b831692505b5050919050565b60006fffffffffffffffffffffffffffffffff82169050919050565b7f4e487b7100000000000000000000000000000000000000000000000000000000600052601160045260246000fd5b60006133d28261337c565b91506133dd8361337c565b925082820390506fffffffffffffffffffffffffffffffff81111561340557613404613398565b5b92915050565b60006020820190506134206000830184613224565b92915050565b60007fffffffffffffffffffffffffffffffffffffffff00000000000000000000000082169050919050565b600061345e8251613426565b80915050919050565b600061347282612c72565b8261347c846132b7565b905061348781613452565b925060148210156134c7576134c27fffffffffffffffffffffffffffffffffffffffff00000000000000000000000083601403600802613308565b831692505b5050919050565b600081519050919050565b600082825260208201905092915050565b6000819050602082019050919050565b61350381612a73565b82525050565b600061351583836134fa565b60208301905092915050565b6000602082019050919050565b6000613539826134ce565b61354381856134d9565b935061354e836134ea565b8060005b8381101561357f5781516135668882613509565b975061357183613521565b925050600181019050613552565b5085935050505092915050565b600081519050919050565b600082825260208201905092915050565b6000819050602082019050919050565b600082825260208201905092915050565b60006135d482612c72565b6135de81856135b8565b93506135ee818560208601612c8e565b6135f781612ab3565b840191505092915050565b600061360e83836135c9565b905092915050565b6000602082019050919050565b600061362e8261358c565b6136388185613597565b93508360208202850161364a856135a8565b8060005b8581101561368657848403895281516136678582613602565b945061367283613616565b925060208a0199505060018101905061364e565b50829750879550505050505092915050565b600060408201905081810360008301526136b2818561352e565b905081810360208301526136c68184613623565b90509392505050565b6000819050919050565b6136ea6136e5826132c7565b6136cf565b82525050565b60006136fc82846136d9565b60108201915081905092915050565b7f4e487b7100000000000000000000000000000000000000000000000000000000600052603260045260246000fd5b60006137458261337c565b91506137508361337c565b925082820190506fffffffffffffffffffffffffffffffff81111561377857613777613398565b5b92915050565b60008160801b9050919050565b60006137968261377e565b9050919050565b6137ae6137a98261337c565b61378b565b82525050565b60006137c0828461379d565b60108201915081905092915050565b60008160601b9050919050565b60006137e7826137cf565b9050919050565b60006137f9826137dc565b9050919050565b61381161380c82612968565b6137ee565b82525050565b60006138238284613800565b60148201915081905092915050565b6000819050919050565b61384d6138488261288d565b613832565b82525050565b600081905092915050565b600061386982612c72565b6138738185613853565b9350613883818560208601612c8e565b80840191505092915050565b600061389b828561383c565b6004820191506138ab828461385e565b91508190509392505050565b60007fffffffffffffffffffff0000000000000000000000000000000000000000000082169050919050565b6000819050919050565b6138fe6138f9826138b7565b6138e3565b82525050565b60007fffff00000000000000000000000000000000000000000000000000000000000082169050919050565b6000819050919050565b61394b61394682613904565b613930565b82525050565b6000819050919050565b61396c61396782613426565b613951565b82525050565b600061397e82866138ed565b600a8201915061398e828561393a565b60028201915061399e828461395b565b601482019150819050949350505050565b60006139bb8251612a73565b80915050919050565b60006139cf82612c72565b826139d9846132b7565b90506139e4816139af565b92506020821015613a2457613a1f7fffffffffffffffffffffffffffffffffffffffffffffffffffffffffffffffff83602003600802613308565b831692505b5050919050565b6000613a3782856136d9565b601082019150613a4782846136d9565b6010820191508190509392505050565b6000613a63828461395b565b60148201915081905092915050565b6000613a7e825161288d565b80915050919050565b6000613a9282612c72565b82613a9c846132b7565b9050613aa781613a72565b92506004821015613ae757613ae27fffffffff0000000000000000000000000000000000000000000000000000000083600403600802613308565b831692505b5050919050565b6000613afa828561383c565b600482019150613b0a828461379d565b601082019150819050939250505056fe4c5350353a204572726f722067656e65726174696e672064617461206b65792f76616c75652070616972734c535031303a204572726f722067656e65726174696e672064617461206b65792f76616c75652070616972734c5350313a206062616c616e63654f66286164647265737329602066756e6374696f6e206e6f7420666f756e643a206062616c616e63654f66286164647265737329602066756e6374696f6e206e6f7420666f756e64a2646970667358221220e76a51649bc4db77c5138e3ea0fd6d14f548f45d55981a6f4f176f8bc5cedc0e64736f6c63430008110033",
  "linkReferences": {},
  "deployedLinkReferences": {}
}