{
  "_format": "hh-sol-artifact-1",
  "contractName": "LSP1GraveForwarder",
  "sourceName": "contracts/LSP1GraveForwarder.sol",
  "abi": [
    {
      "inputs": [
        {
          "internalType": "address",
          "name": "caller",
          "type": "address"
        }
      ],
      "name": "CannotRegisterEOAsAsAssets",
      "type": "error"
    },
    {
      "inputs": [],
      "name": "VERSION",
      "outputs": [
        {
          "internalType": "string",
          "name": "",
          "type": "string"
        }
      ],
      "stateMutability": "view",
      "type": "function"
    },
    {
      "inputs": [
        {
          "internalType": "address",
          "name": "token",
          "type": "address"
        }
      ],
      "name": "addTokenToAllowlist",
      "outputs": [],
      "stateMutability": "nonpayable",
      "type": "function"
    },
    {
      "inputs": [
        {
          "internalType": "address",
          "name": "token",
          "type": "address"
        }
      ],
      "name": "getAddressStatus",
      "outputs": [
        {
          "internalType": "bool",
          "name": "",
          "type": "bool"
        }
      ],
      "stateMutability": "view",
      "type": "function"
    },
    {
      "inputs": [],
      "name": "getGrave",
      "outputs": [
        {
          "internalType": "address",
          "name": "",
          "type": "address"
        }
      ],
      "stateMutability": "view",
      "type": "function"
    },
    {
      "inputs": [],
      "name": "graveUserCounter",
      "outputs": [
        {
          "internalType": "uint256",
          "name": "",
          "type": "uint256"
        }
      ],
      "stateMutability": "view",
      "type": "function"
    },
    {
      "inputs": [
        {
          "internalType": "address",
          "name": "",
          "type": "address"
        }
      ],
      "name": "graveVaults",
      "outputs": [
        {
          "internalType": "address",
          "name": "",
          "type": "address"
        }
      ],
      "stateMutability": "view",
      "type": "function"
    },
    {
      "inputs": [],
      "name": "lsp7RedirectedCounter",
      "outputs": [
        {
          "internalType": "uint256",
          "name": "",
          "type": "uint256"
        }
      ],
      "stateMutability": "view",
      "type": "function"
    },
    {
      "inputs": [],
      "name": "lsp8RedirectedCounter",
      "outputs": [
        {
          "internalType": "uint256",
          "name": "",
          "type": "uint256"
        }
      ],
      "stateMutability": "view",
      "type": "function"
    },
    {
      "inputs": [
        {
          "internalType": "address",
          "name": "token",
          "type": "address"
        }
      ],
      "name": "removeTokenFromAllowlist",
      "outputs": [],
      "stateMutability": "nonpayable",
      "type": "function"
    },
    {
      "inputs": [
        {
          "internalType": "address",
          "name": "grave",
          "type": "address"
        }
      ],
      "name": "setGrave",
      "outputs": [],
      "stateMutability": "nonpayable",
      "type": "function"
    },
    {
      "inputs": [
        {
          "internalType": "bytes4",
          "name": "interfaceId",
          "type": "bytes4"
        }
      ],
      "name": "supportsInterface",
      "outputs": [
        {
          "internalType": "bool",
          "name": "",
          "type": "bool"
        }
      ],
      "stateMutability": "view",
      "type": "function"
    },
    {
      "inputs": [
        {
          "internalType": "address",
          "name": "",
          "type": "address"
        },
        {
          "internalType": "address",
          "name": "",
          "type": "address"
        }
      ],
      "name": "tokenAllowlist",
      "outputs": [
        {
          "internalType": "bool",
          "name": "",
          "type": "bool"
        }
      ],
      "stateMutability": "view",
      "type": "function"
    },
    {
      "inputs": [
        {
          "internalType": "address",
          "name": "notifier",
          "type": "address"
        },
        {
          "internalType": "uint256",
          "name": "value",
          "type": "uint256"
        },
        {
          "internalType": "bytes32",
          "name": "typeId",
          "type": "bytes32"
        },
        {
          "internalType": "bytes",
          "name": "data",
          "type": "bytes"
        }
      ],
      "name": "universalReceiverDelegate",
      "outputs": [
        {
          "internalType": "bytes",
          "name": "",
          "type": "bytes"
        }
      ],
      "stateMutability": "nonpayable",
      "type": "function"
    }
  ],
  "bytecode": "0x608060405234801561001057600080fd5b50613fb1806100206000396000f3fe608060405234801561001057600080fd5b50600436106100cf5760003560e01c8063623c25151161008c578063a245bbda11610066578063a245bbda14610212578063ac0d987c14610242578063e226a1b614610260578063ffa1ad7414610290576100cf565b8063623c2515146101a65780638dcb6f59146101d65780639623941f146101f4576100cf565b806301ffc9a7146100d45780631957fba4146101045780632ad722e2146101205780633841ddf81461013c5780633ed6558e1461016c57806359ff6d3b1461018a575b600080fd5b6100ee60048036038101906100e99190612b62565b6102ae565b6040516100fb9190612baa565b60405180910390f35b61011e60048036038101906101199190612c23565b61030f565b005b61013a60048036038101906101359190612c23565b61039e565b005b61015660048036038101906101519190612c50565b610559565b6040516101639190612baa565b60405180910390f35b610174610588565b6040516101819190612ca9565b60405180910390f35b6101a4600480360381019061019f9190612c23565b61058e565b005b6101c060048036038101906101bb9190612c23565b610625565b6040516101cd9190612cd3565b60405180910390f35b6101de610658565b6040516101eb9190612ca9565b60405180910390f35b6101fc61065e565b6040516102099190612ca9565b60405180910390f35b61022c60048036038101906102279190612e96565b610664565b6040516102399190612f98565b60405180910390f35b61024a610ca3565b6040516102579190612cd3565b60405180910390f35b61027a60048036038101906102759190612c23565b610d09565b6040516102879190612baa565b60405180910390f35b610298610d9c565b6040516102a5919061300f565b60405180910390f35b600063a245bbda60e01b7bffffffffffffffffffffffffffffffffffffffffffffffffffffffff1916827bffffffffffffffffffffffffffffffffffffffffffffffffffffffff19161480610308575061030782610dd5565b5b9050919050565b600160003373ffffffffffffffffffffffffffffffffffffffff1673ffffffffffffffffffffffffffffffffffffffff16815260200190815260200160002060008273ffffffffffffffffffffffffffffffffffffffff1673ffffffffffffffffffffffffffffffffffffffff16815260200190815260200160002060006101000a81549060ff021916905550565b6103af816328af17e660e01b610e3f565b6103ee576040517f08c379a00000000000000000000000000000000000000000000000000000000081526004016103e5906130a3565b60405180910390fd5b60008190503373ffffffffffffffffffffffffffffffffffffffff168173ffffffffffffffffffffffffffffffffffffffff16638da5cb5b6040518163ffffffff1660e01b8152600401602060405180830381865afa158015610455573d6000803e3d6000fd5b505050506040513d601f19601f8201168201806040525081019061047991906130d8565b73ffffffffffffffffffffffffffffffffffffffff16146104cf576040517f08c379a00000000000000000000000000000000000000000000000000000000081526004016104c690613177565b60405180910390fd5b6104d833610e64565b816000803373ffffffffffffffffffffffffffffffffffffffff1673ffffffffffffffffffffffffffffffffffffffff16815260200190815260200160002060006101000a81548173ffffffffffffffffffffffffffffffffffffffff021916908373ffffffffffffffffffffffffffffffffffffffff1602179055505050565b60016020528160005260406000206020528060005260406000206000915091509054906101000a900460ff1681565b60035481565b60018060003373ffffffffffffffffffffffffffffffffffffffff1673ffffffffffffffffffffffffffffffffffffffff16815260200190815260200160002060008373ffffffffffffffffffffffffffffffffffffffff1673ffffffffffffffffffffffffffffffffffffffff16815260200190815260200160002060006101000a81548160ff02191690831515021790555050565b60006020528060005260406000206000915054906101000a900473ffffffffffffffffffffffffffffffffffffffff1681565b60055481565b60045481565b6060600160003373ffffffffffffffffffffffffffffffffffffffff1673ffffffffffffffffffffffffffffffffffffffff16815260200190815260200160002060008673ffffffffffffffffffffffffffffffffffffffff1673ffffffffffffffffffffffffffffffffffffffff16815260200190815260200160002060009054906101000a900460ff16156107085761070185858585610f29565b9050610c9b565b600073ffffffffffffffffffffffffffffffffffffffff166000803373ffffffffffffffffffffffffffffffffffffffff1673ffffffffffffffffffffffffffffffffffffffff16815260200190815260200160002060009054906101000a900473ffffffffffffffffffffffffffffffffffffffff1673ffffffffffffffffffffffffffffffffffffffff16036107d5576040517f08c379a00000000000000000000000000000000000000000000000000000000081526004016107cc90613209565b60405180910390fd5b6107e6336324871b3d60e01b6110d8565b610827576040518060400160405280601681526020017f3a2063616c6c6572206973206e6f742061204c535030000000000000000000008152509050610c9b565b60008573ffffffffffffffffffffffffffffffffffffffff163b1115610926578473ffffffffffffffffffffffffffffffffffffffff166370a08231336040518263ffffffff1660e01b81526004016108809190612cd3565b602060405180830381865afa9250505080156108ba57506040513d601f19601f820116820180604052508101906108b7919061323e565b60015b6108de57604051806060016040528060298152602001613f53602991399050610c9b565b60008103610924576040518060400160405280601481526020017f3a2055502062616c616e6365206973207a65726f000000000000000000000000815250915050610c9b565b505b7f20804611b3e2ea21c480dc465142210acf4a2485947541770ec1fb87dee4a55c60001b8303610ad7576000828060200190518101906109669190613319565b5093505050506000336000803373ffffffffffffffffffffffffffffffffffffffff1673ffffffffffffffffffffffffffffffffffffffff16815260200190815260200160002060009054906101000a900473ffffffffffffffffffffffffffffffffffffffff16836000876040516024016109e69594939291906133b0565b60405160208183030381529060405263760d9bba60e01b6020820180517bffffffffffffffffffffffffffffffffffffffffffffffffffffffff8381831617835250505050905060036000815480929190610a4090613439565b91905055503373ffffffffffffffffffffffffffffffffffffffff166344c028fe6000896000856040518563ffffffff1660e01b8152600401610a8694939291906134c6565b6000604051808303816000875af1158015610aa5573d6000803e3d6000fd5b505050506040513d6000823e3d601f19601f82011682018060405250810190610ace9190613512565b92505050610c9b565b7f0b084a55ebf70fd3c06fd755269dac2212c4d3f0f4d09079780bfa50c1b2984d60001b8303610c8857600082806020019051810190610b179190613570565b5093505050506000336000803373ffffffffffffffffffffffffffffffffffffffff1673ffffffffffffffffffffffffffffffffffffffff16815260200190815260200160002060009054906101000a900473ffffffffffffffffffffffffffffffffffffffff1683600087604051602401610b97959493929190613616565b60405160208183030381529060405263511b695260e01b6020820180517bffffffffffffffffffffffffffffffffffffffffffffffffffffffff8381831617835250505050905060046000815480929190610bf190613439565b91905055503373ffffffffffffffffffffffffffffffffffffffff166344c028fe6000896000856040518563ffffffff1660e01b8152600401610c3794939291906134c6565b6000604051808303816000875af1158015610c56573d6000803e3d6000fd5b505050506040513d6000823e3d601f19601f82011682018060405250810190610c7f9190613512565b92505050610c9b565b6040518060200160405280600081525090505b949350505050565b60008060003373ffffffffffffffffffffffffffffffffffffffff1673ffffffffffffffffffffffffffffffffffffffff16815260200190815260200160002060009054906101000a900473ffffffffffffffffffffffffffffffffffffffff16905090565b6000600160003373ffffffffffffffffffffffffffffffffffffffff1673ffffffffffffffffffffffffffffffffffffffff16815260200190815260200160002060008373ffffffffffffffffffffffffffffffffffffffff1673ffffffffffffffffffffffffffffffffffffffff16815260200190815260200160002060009054906101000a900460ff169050919050565b6040518060400160405280600681526020017f302e31342e30000000000000000000000000000000000000000000000000000081525081565b60007f01ffc9a7000000000000000000000000000000000000000000000000000000007bffffffffffffffffffffffffffffffffffffffffffffffffffffffff1916827bffffffffffffffffffffffffffffffffffffffffffffffffffffffff1916149050919050565b6000610e4a83611197565b8015610e5c5750610e5b83836110d8565b5b905092915050565b600260008273ffffffffffffffffffffffffffffffffffffffff1673ffffffffffffffffffffffffffffffffffffffff16815260200190815260200160002060009054906101000a900460ff16610f26576001600260008373ffffffffffffffffffffffffffffffffffffffff1673ffffffffffffffffffffffffffffffffffffffff16815260200190815260200160002060006101000a81548160ff02191690831515021790555060056000815480929190610f2090613439565b91905055505b50565b60607f429ac7a06903dbc9c13dfcb3c9d11df8194581fa047c96d7a4171fc7402958ea60001b8303610f6557610f5e856111e4565b90506110d0565b7f20804611b3e2ea21c480dc465142210acf4a2485947541770ec1fb87dee4a55c60001b8303610fa757610fa08563b3c4928f60e01b611394565b90506110d0565b7fb23eae7e6d1564b295b4c3e3be402d9a2f0776c57bdf365903496f6fa481ab0060001b8303610fe157610fda856111e4565b90506110d0565b7f0b084a55ebf70fd3c06fd755269dac2212c4d3f0f4d09079780bfa50c1b2984d60001b83036110235761101c85633a27170660e01b611394565b90506110d0565b7f0c622e58e6b7089ae35f1af1c86d997be92fcdd8c9509652022d41aa6516947160001b830361105d5761105685611566565b90506110d0565b7f79855c97dbc259ce395421d933d7bc0699b0f1561f988f09a9e8633fd542fe5c60001b83036110975761109085611638565b90506110d0565b6040518060400160405280601981526020017f4c5350313a20747970654964206f7574206f662073636f70650000000000000081525090505b949350505050565b6000806301ffc9a760e01b836040516024016110f4919061367f565b604051602081830303815290604052907bffffffffffffffffffffffffffffffffffffffffffffffffffffffff19166020820180517bffffffffffffffffffffffffffffffffffffffffffffffffffffffff838183161783525050505090506000806000602060008551602087018a617530fa92503d9150600051905082801561117f575060208210155b801561118b5750600081115b94505050505092915050565b60006111c3827f01ffc9a7000000000000000000000000000000000000000000000000000000006110d8565b80156111dd57506111db8263ffffffff60e01b6110d8565b155b9050919050565b6060813273ffffffffffffffffffffffffffffffffffffffff168173ffffffffffffffffffffffffffffffffffffffff160361125757806040517fa529534500000000000000000000000000000000000000000000000000000000815260040161124e9190612cd3565b60405180910390fd5b8273ffffffffffffffffffffffffffffffffffffffff166370a08231336040518263ffffffff1660e01b81526004016112909190612cd3565b602060405180830381865afa9250505080156112ca57506040513d601f19601f820116820180604052508101906112c7919061323e565b60015b6112ee576040518060600160405280602d8152602001613f26602d9139915061138e565b60008114611334576040518060400160405280601e81526020017f4c5350313a2066756c6c2062616c616e6365206973206e6f742073656e74000081525092505061138e565b50600080611342338661170a565b9150915060008251148015611358575060008151145b1561137f576040518060600160405280602b8152602001613ecf602b91399350505061138e565b6113898282611980565b935050505b50919050565b6060823273ffffffffffffffffffffffffffffffffffffffff168173ffffffffffffffffffffffffffffffffffffffff160361140757806040517fa52953450000000000000000000000000000000000000000000000000000000081526004016113fe9190612cd3565b60405180910390fd5b60008473ffffffffffffffffffffffffffffffffffffffff163b14611505578373ffffffffffffffffffffffffffffffffffffffff166370a08231336040518263ffffffff1660e01b815260040161145f9190612cd3565b602060405180830381865afa92505050801561149957506040513d601f19601f82011682018060405250810190611496919061323e565b60015b6114bd576040518060600160405280602d8152602001613f26602d9139915061155f565b60008103611503576040518060400160405280601581526020017f4c5350313a2062616c616e6365206973207a65726f000000000000000000000081525092505061155f565b505b600080611513338787611a40565b9150915060008251148015611529575060008151145b15611550576040518060600160405280602b8152602001613ecf602b91399350505061155f565b61155a8282611980565b935050505b5092915050565b6060813273ffffffffffffffffffffffffffffffffffffffff168173ffffffffffffffffffffffffffffffffffffffff16036115d957806040517fa52953450000000000000000000000000000000000000000000000000000000081526004016115d09190612cd3565b60405180910390fd5b6000806115e63386611db7565b91509150600082511480156115fc575060008151145b15611623576040518060600160405280602c8152602001613efa602c913993505050611632565b61162d8282611980565b935050505b50919050565b6060813273ffffffffffffffffffffffffffffffffffffffff168173ffffffffffffffffffffffffffffffffffffffff16036116ab57806040517fa52953450000000000000000000000000000000000000000000000000000000081526004016116a29190612cd3565b60405180910390fd5b6000806116b8338661203a565b91509150600082511480156116ce575060008151145b156116f5576040518060600160405280602c8152602001613efa602c913993505050611704565b6116ff8282611980565b935050505b50919050565b6060806000849050600061171d826123b7565b905061172881612462565b611733575050611979565b600060801b6fffffffffffffffffffffffffffffffff191681611755906136f8565b6fffffffffffffffffffffffffffffffff191603611774575050611979565b6000600182611782906136f8565b60801c61178f919061377b565b905060006117ad69812c4334633eb816c80d60b01b8860601b612480565b905060008473ffffffffffffffffffffffffffffffffffffffff166354f6127f836040518263ffffffff1660e01b81526004016117ea91906137bf565b600060405180830381865afa158015611807573d6000803e3d6000fd5b505050506040513d6000823e3d601f19601f820116820180604052508101906118309190613512565b90506014815114611845575050505050611979565b60006020826118539061381b565b6bffffffffffffffffffffffff1916901b60801c905060006118987f6460ee3c0aac563ccbf76d6e1d07bada78e3a9514e6382b736ed3f478ab7b90b60001b836124c0565b9050846fffffffffffffffffffffffffffffffff16826fffffffffffffffffffffffffffffffff1603611904576118f47f6460ee3c0aac563ccbf76d6e1d07bada78e3a9514e6382b736ed3f478ab7b90b60001b8683876124fd565b9850985050505050505050611979565b846fffffffffffffffffffffffffffffffff16826fffffffffffffffffffffffffffffffff16101561197157611961877f6460ee3c0aac563ccbf76d6e1d07bada78e3a9514e6382b736ed3f478ab7b90b60001b878486896126a6565b9850985050505050505050611979565b505050505050505b9250929050565b60603373ffffffffffffffffffffffffffffffffffffffff16639790242184846040518363ffffffff1660e01b81526004016119bd929190613a4c565b600060405180830381600087803b1580156119d757600080fd5b505af19250505080156119e8575060015b611a27573d8060008114611a18576040519150601f19603f3d011682016040523d82523d6000602084013e611a1d565b606091505b5080915050611a3a565b6040518060200160405280600081525090505b92915050565b60608060008590506000611a53826123b7565b9050611a5e81612462565b611a9e576000815103611a9657600060801b604051602001611a809190613aa4565b6040516020818303038152906040529050611a9d565b5050611daf565b5b600081611aaa906136f8565b60801c90506fffffffffffffffffffffffffffffffff8016816fffffffffffffffffffffffffffffffff1603611ae257505050611daf565b6000611afe69812c4334633eb816c80d60b01b8960601b612480565b905060008473ffffffffffffffffffffffffffffffffffffffff166354f6127f836040518263ffffffff1660e01b8152600401611b3b91906137bf565b600060405180830381865afa158015611b58573d6000803e3d6000fd5b505050506040513d6000823e3d601f19601f82011682018060405250810190611b819190613512565b5114611b905750505050611daf565b600367ffffffffffffffff811115611bab57611baa612d6b565b5b604051908082528060200260200182016040528015611bd95781602001602082028036833780820191505090505b509550600367ffffffffffffffff811115611bf757611bf6612d6b565b5b604051908082528060200260200182016040528015611c2a57816020015b6060815260200190600190039081611c155790505b5094507f6460ee3c0aac563ccbf76d6e1d07bada78e3a9514e6382b736ed3f478ab7b90b60001b86600081518110611c6557611c64613abf565b5b602002602001018181525050600182611c7e9190613aee565b604051602001611c8e9190613b68565b60405160208183030381529060405285600081518110611cb157611cb0613abf565b5b6020026020010181905250611ce97f6460ee3c0aac563ccbf76d6e1d07bada78e3a9514e6382b736ed3f478ab7b90b60001b836124c0565b86600181518110611cfd57611cfc613abf565b5b60200260200101818152505087604051602001611d1a9190613bcb565b60405160208183030381529060405285600181518110611d3d57611d3c613abf565b5b60200260200101819052508086600281518110611d5d57611d5c613abf565b5b6020026020010181815250508683604051602001611d7c929190613c43565b60405160208183030381529060405285600281518110611d9f57611d9e613abf565b5b6020026020010181905250505050505b935093915050565b60608060008490506000611dca82612a4b565b9050611dd581612462565b611de0575050612033565b600081511480611e225750600060801b6fffffffffffffffffffffffffffffffff191681611e0d906136f8565b6fffffffffffffffffffffffffffffffff1916145b15611e2e575050612033565b6000600182611e3c906136f8565b60801c611e49919061377b565b90506000611e6769192448c3c0f88c7f238c60b01b8860601b612480565b905060008473ffffffffffffffffffffffffffffffffffffffff166354f6127f836040518263ffffffff1660e01b8152600401611ea491906137bf565b600060405180830381865afa158015611ec1573d6000803e3d6000fd5b505050506040513d6000823e3d601f19601f82011682018060405250810190611eea9190613512565b90506014815114611eff575050505050612033565b6000602082611f0d9061381b565b6bffffffffffffffffffffffff1916901b60801c90506000611f527f55482936e01da86729a45d2b87a6b1d3bc582bea0ec00e38bdb340e3af6f9f0660001b836124c0565b9050846fffffffffffffffffffffffffffffffff16826fffffffffffffffffffffffffffffffff1603611fbe57611fae7f55482936e01da86729a45d2b87a6b1d3bc582bea0ec00e38bdb340e3af6f9f0660001b8683876124fd565b9850985050505050505050612033565b846fffffffffffffffffffffffffffffffff16826fffffffffffffffffffffffffffffffff16101561202b5761201b877f55482936e01da86729a45d2b87a6b1d3bc582bea0ec00e38bdb340e3af6f9f0660001b878486896126a6565b9850985050505050505050612033565b505050505050505b9250929050565b6060806000849050600061204d82612a4b565b905061205881612462565b61209857600081510361209057600060801b60405160200161207a9190613aa4565b6040516020818303038152906040529050612097565b50506123b0565b5b6000816120a4906136f8565b60801c90506fffffffffffffffffffffffffffffffff8016816fffffffffffffffffffffffffffffffff16036120dc575050506123b0565b60006120f869192448c3c0f88c7f238c60b01b8860601b612480565b905060008473ffffffffffffffffffffffffffffffffffffffff166354f6127f836040518263ffffffff1660e01b815260040161213591906137bf565b600060405180830381865afa158015612152573d6000803e3d6000fd5b505050506040513d6000823e3d601f19601f8201168201806040525081019061217b9190613512565b511461218a57505050506123b0565b600367ffffffffffffffff8111156121a5576121a4612d6b565b5b6040519080825280602002602001820160405280156121d35781602001602082028036833780820191505090505b509550600367ffffffffffffffff8111156121f1576121f0612d6b565b5b60405190808252806020026020018201604052801561222457816020015b606081526020019060019003908161220f5790505b5094507f55482936e01da86729a45d2b87a6b1d3bc582bea0ec00e38bdb340e3af6f9f0660001b8660008151811061225f5761225e613abf565b5b6020026020010181815250506001826122789190613aee565b6040516020016122889190613b68565b604051602081830303815290604052856000815181106122ab576122aa613abf565b5b60200260200101819052506122e37f55482936e01da86729a45d2b87a6b1d3bc582bea0ec00e38bdb340e3af6f9f0660001b836124c0565b866001815181106122f7576122f6613abf565b5b602002602001018181525050866040516020016123149190613bcb565b6040516020818303038152906040528560018151811061233757612336613abf565b5b6020026020010181905250808660028151811061235757612356613abf565b5b6020026020010181815250506328af17e660e01b8360405160200161237d929190613c43565b604051602081830303815290604052856002815181106123a05761239f613abf565b5b6020026020010181905250505050505b9250929050565b60608173ffffffffffffffffffffffffffffffffffffffff166354f6127f7f6460ee3c0aac563ccbf76d6e1d07bada78e3a9514e6382b736ed3f478ab7b90b60001b6040518263ffffffff1660e01b815260040161241591906137bf565b600060405180830381865afa158015612432573d6000803e3d6000fd5b505050506040513d6000823e3d601f19601f8201168201806040525081019061245b9190613512565b9050919050565b60006010825103612476576001905061247b565b600090505b919050565b60008083600060f01b8460405160200161249c93929190613d26565b6040516020818303038152906040529050806124b790613d78565b91505092915050565b600080838360801b6040516020016124d9929190613ddf565b6040516020818303038152906040529050806124f490613d78565b91505092915050565b606080600367ffffffffffffffff81111561251b5761251a612d6b565b5b6040519080825280602002602001820160405280156125495781602001602082028036833780820191505090505b509150600367ffffffffffffffff81111561256757612566612d6b565b5b60405190808252806020026020018201604052801561259a57816020015b60608152602001906001900390816125855790505b50905085826000815181106125b2576125b1613abf565b5b602002602001018181525050846040516020016125cf9190613b68565b604051602081830303815290604052816000815181106125f2576125f1613abf565b5b6020026020010181905250828260018151811061261257612611613abf565b5b602002602001018181525050604051806020016040528060008152508160018151811061264257612641613abf565b5b6020026020010181905250838260028151811061266257612661613abf565b5b602002602001018181525050604051806020016040528060008152508160028151811061269257612691613abf565b5b602002602001018190525094509492505050565b606080600567ffffffffffffffff8111156126c4576126c3612d6b565b5b6040519080825280602002602001820160405280156126f25781602001602082028036833780820191505090505b509150600567ffffffffffffffff8111156127105761270f612d6b565b5b60405190808252806020026020018201604052801561274357816020015b606081526020019060019003908161272e5790505b509050868260008151811061275b5761275a613abf565b5b602002602001018181525050856040516020016127789190613b68565b6040516020818303038152906040528160008151811061279b5761279a613abf565b5b602002602001018190525082826001815181106127bb576127ba613abf565b5b60200260200101818152505060405180602001604052806000815250816001815181106127eb576127ea613abf565b5b6020026020010181905250600061280288886124c0565b905060008973ffffffffffffffffffffffffffffffffffffffff166354f6127f836040518263ffffffff1660e01b815260040161283f91906137bf565b600060405180830381865afa15801561285c573d6000803e3d6000fd5b505050506040513d6000823e3d601f19601f820116820180604052508101906128859190613512565b61288e9061381b565b905086846002815181106128a5576128a4613abf565b5b602002602001018181525050806040516020016128c29190613e0b565b604051602081830303815290604052836002815181106128e5576128e4613abf565b5b6020026020010181905250818460038151811061290557612904613abf565b5b602002602001018181525050604051806020016040528060008152508360038151811061293557612934613abf565b5b6020026020010181905250600061294c8683612480565b905060008b73ffffffffffffffffffffffffffffffffffffffff166354f6127f836040518263ffffffff1660e01b815260040161298991906137bf565b600060405180830381865afa1580156129a6573d6000803e3d6000fd5b505050506040513d6000823e3d601f19601f820116820180604052508101906129cf9190613512565b6129d890613e3b565b886040516020016129ea929190613ea2565b60405160208183030381529060405290508186600481518110612a1057612a0f613abf565b5b6020026020010181815250508085600481518110612a3157612a30613abf565b5b602002602001018190525050505050965096945050505050565b60608173ffffffffffffffffffffffffffffffffffffffff166354f6127f7f55482936e01da86729a45d2b87a6b1d3bc582bea0ec00e38bdb340e3af6f9f0660001b6040518263ffffffff1660e01b8152600401612aa991906137bf565b600060405180830381865afa158015612ac6573d6000803e3d6000fd5b505050506040513d6000823e3d601f19601f82011682018060405250810190612aef9190613512565b9050919050565b6000604051905090565b600080fd5b600080fd5b60007fffffffff0000000000000000000000000000000000000000000000000000000082169050919050565b612b3f81612b0a565b8114612b4a57600080fd5b50565b600081359050612b5c81612b36565b92915050565b600060208284031215612b7857612b77612b00565b5b6000612b8684828501612b4d565b91505092915050565b60008115159050919050565b612ba481612b8f565b82525050565b6000602082019050612bbf6000830184612b9b565b92915050565b600073ffffffffffffffffffffffffffffffffffffffff82169050919050565b6000612bf082612bc5565b9050919050565b612c0081612be5565b8114612c0b57600080fd5b50565b600081359050612c1d81612bf7565b92915050565b600060208284031215612c3957612c38612b00565b5b6000612c4784828501612c0e565b91505092915050565b60008060408385031215612c6757612c66612b00565b5b6000612c7585828601612c0e565b9250506020612c8685828601612c0e565b9150509250929050565b6000819050919050565b612ca381612c90565b82525050565b6000602082019050612cbe6000830184612c9a565b92915050565b612ccd81612be5565b82525050565b6000602082019050612ce86000830184612cc4565b92915050565b612cf781612c90565b8114612d0257600080fd5b50565b600081359050612d1481612cee565b92915050565b6000819050919050565b612d2d81612d1a565b8114612d3857600080fd5b50565b600081359050612d4a81612d24565b92915050565b600080fd5b600080fd5b6000601f19601f8301169050919050565b7f4e487b7100000000000000000000000000000000000000000000000000000000600052604160045260246000fd5b612da382612d5a565b810181811067ffffffffffffffff82111715612dc257612dc1612d6b565b5b80604052505050565b6000612dd5612af6565b9050612de18282612d9a565b919050565b600067ffffffffffffffff821115612e0157612e00612d6b565b5b612e0a82612d5a565b9050602081019050919050565b82818337600083830152505050565b6000612e39612e3484612de6565b612dcb565b905082815260208101848484011115612e5557612e54612d55565b5b612e60848285612e17565b509392505050565b600082601f830112612e7d57612e7c612d50565b5b8135612e8d848260208601612e26565b91505092915050565b60008060008060808587031215612eb057612eaf612b00565b5b6000612ebe87828801612c0e565b9450506020612ecf87828801612d05565b9350506040612ee087828801612d3b565b925050606085013567ffffffffffffffff811115612f0157612f00612b05565b5b612f0d87828801612e68565b91505092959194509250565b600081519050919050565b600082825260208201905092915050565b60005b83811015612f53578082015181840152602081019050612f38565b60008484015250505050565b6000612f6a82612f19565b612f748185612f24565b9350612f84818560208601612f35565b612f8d81612d5a565b840191505092915050565b60006020820190508181036000830152612fb28184612f5f565b905092915050565b600081519050919050565b600082825260208201905092915050565b6000612fe182612fba565b612feb8185612fc5565b9350612ffb818560208601612f35565b61300481612d5a565b840191505092915050565b600060208201905081810360008301526130298184612fd6565b905092915050565b7f50726f7669646564206164647265737320646f6573206e6f7420696d706c656d60008201527f656e74204c5350395661756c7420696e74657266616365000000000000000000602082015250565b600061308d603783612fc5565b915061309882613031565b604082019050919050565b600060208201905081810360008301526130bc81613080565b9050919050565b6000815190506130d281612bf7565b92915050565b6000602082840312156130ee576130ed612b00565b5b60006130fc848285016130c3565b91505092915050565b7f43616c6c6572206973206e6f7420746865206f776e6572206f6620746865207660008201527f61756c7420636f6e74726163742e000000000000000000000000000000000000602082015250565b6000613161602e83612fc5565b915061316c82613105565b604082019050919050565b6000602082019050818103600083015261319081613154565b9050919050565b7f4c5350314772617665466f727761726465723a2075736572207661756c74206e60008201527f6f74207365740000000000000000000000000000000000000000000000000000602082015250565b60006131f3602683612fc5565b91506131fe82613197565b604082019050919050565b60006020820190508181036000830152613222816131e6565b9050919050565b60008151905061323881612cee565b92915050565b60006020828403121561325457613253612b00565b5b600061326284828501613229565b91505092915050565b600061327682612bc5565b9050919050565b6132868161326b565b811461329157600080fd5b50565b6000815190506132a38161327d565b92915050565b60006132bc6132b784612de6565b612dcb565b9050828152602081018484840111156132d8576132d7612d55565b5b6132e3848285612f35565b509392505050565b600082601f830112613300576132ff612d50565b5b81516133108482602086016132a9565b91505092915050565b600080600080600060a0868803121561333557613334612b00565b5b600061334388828901613294565b955050602061335488828901613294565b945050604061336588828901613294565b935050606061337688828901613229565b925050608086015167ffffffffffffffff81111561339757613396612b05565b5b6133a3888289016132eb565b9150509295509295909350565b600060a0820190506133c56000830188612cc4565b6133d26020830187612cc4565b6133df6040830186612c9a565b6133ec6060830185612b9b565b81810360808301526133fe8184612f5f565b90509695505050505050565b7f4e487b7100000000000000000000000000000000000000000000000000000000600052601160045260246000fd5b600061344482612c90565b91507fffffffffffffffffffffffffffffffffffffffffffffffffffffffffffffffff82036134765761347561340a565b5b600182019050919050565b6000819050919050565b6000819050919050565b60006134b06134ab6134a684613481565b61348b565b612c90565b9050919050565b6134c081613495565b82525050565b60006080820190506134db60008301876134b7565b6134e86020830186612cc4565b6134f560408301856134b7565b81810360608301526135078184612f5f565b905095945050505050565b60006020828403121561352857613527612b00565b5b600082015167ffffffffffffffff81111561354657613545612b05565b5b613552848285016132eb565b91505092915050565b60008151905061356a81612d24565b92915050565b600080600080600060a0868803121561358c5761358b612b00565b5b600061359a88828901613294565b95505060206135ab88828901613294565b94505060406135bc88828901613294565b93505060606135cd8882890161355b565b925050608086015167ffffffffffffffff8111156135ee576135ed612b05565b5b6135fa888289016132eb565b9150509295509295909350565b61361081612d1a565b82525050565b600060a08201905061362b6000830188612cc4565b6136386020830187612cc4565b6136456040830186613607565b6136526060830185612b9b565b81810360808301526136648184612f5f565b90509695505050505050565b61367981612b0a565b82525050565b60006020820190506136946000830184613670565b92915050565b6000819050602082019050919050565b60007fffffffffffffffffffffffffffffffff0000000000000000000000000000000082169050919050565b60006136e282516136aa565b80915050919050565b600082821b905092915050565b600061370382612f19565b8261370d8461369a565b9050613718816136d6565b92506010821015613758576137537fffffffffffffffffffffffffffffffff00000000000000000000000000000000836010036008026136eb565b831692505b5050919050565b60006fffffffffffffffffffffffffffffffff82169050919050565b60006137868261375f565b91506137918361375f565b925082820390506fffffffffffffffffffffffffffffffff8111156137b9576137b861340a565b5b92915050565b60006020820190506137d46000830184613607565b92915050565b60007fffffffffffffffffffffffffffffffffffffffff00000000000000000000000082169050919050565b600061381282516137da565b80915050919050565b600061382682612f19565b826138308461369a565b905061383b81613806565b9250601482101561387b576138767fffffffffffffffffffffffffffffffffffffffff000000000000000000000000836014036008026136eb565b831692505b5050919050565b600081519050919050565b600082825260208201905092915050565b6000819050602082019050919050565b6138b781612d1a565b82525050565b60006138c983836138ae565b60208301905092915050565b6000602082019050919050565b60006138ed82613882565b6138f7818561388d565b93506139028361389e565b8060005b8381101561393357815161391a88826138bd565b9750613925836138d5565b925050600181019050613906565b5085935050505092915050565b600081519050919050565b600082825260208201905092915050565b6000819050602082019050919050565b600082825260208201905092915050565b600061398882612f19565b613992818561396c565b93506139a2818560208601612f35565b6139ab81612d5a565b840191505092915050565b60006139c2838361397d565b905092915050565b6000602082019050919050565b60006139e282613940565b6139ec818561394b565b9350836020820285016139fe8561395c565b8060005b85811015613a3a5784840389528151613a1b85826139b6565b9450613a26836139ca565b925060208a01995050600181019050613a02565b50829750879550505050505092915050565b60006040820190508181036000830152613a6681856138e2565b90508181036020830152613a7a81846139d7565b90509392505050565b6000819050919050565b613a9e613a99826136aa565b613a83565b82525050565b6000613ab08284613a8d565b60108201915081905092915050565b7f4e487b7100000000000000000000000000000000000000000000000000000000600052603260045260246000fd5b6000613af98261375f565b9150613b048361375f565b925082820190506fffffffffffffffffffffffffffffffff811115613b2c57613b2b61340a565b5b92915050565b60008160801b9050919050565b6000613b4a82613b32565b9050919050565b613b62613b5d8261375f565b613b3f565b82525050565b6000613b748284613b51565b60108201915081905092915050565b60008160601b9050919050565b6000613b9b82613b83565b9050919050565b6000613bad82613b90565b9050919050565b613bc5613bc082612be5565b613ba2565b82525050565b6000613bd78284613bb4565b60148201915081905092915050565b6000819050919050565b613c01613bfc82612b0a565b613be6565b82525050565b600081905092915050565b6000613c1d82612f19565b613c278185613c07565b9350613c37818560208601612f35565b80840191505092915050565b6000613c4f8285613bf0565b600482019150613c5f8284613c12565b91508190509392505050565b60007fffffffffffffffffffff0000000000000000000000000000000000000000000082169050919050565b6000819050919050565b613cb2613cad82613c6b565b613c97565b82525050565b60007fffff00000000000000000000000000000000000000000000000000000000000082169050919050565b6000819050919050565b613cff613cfa82613cb8565b613ce4565b82525050565b6000819050919050565b613d20613d1b826137da565b613d05565b82525050565b6000613d328286613ca1565b600a82019150613d428285613cee565b600282019150613d528284613d0f565b601482019150819050949350505050565b6000613d6f8251612d1a565b80915050919050565b6000613d8382612f19565b82613d8d8461369a565b9050613d9881613d63565b92506020821015613dd857613dd37fffffffffffffffffffffffffffffffffffffffffffffffffffffffffffffffff836020036008026136eb565b831692505b5050919050565b6000613deb8285613a8d565b601082019150613dfb8284613a8d565b6010820191508190509392505050565b6000613e178284613d0f565b60148201915081905092915050565b6000613e328251612b0a565b80915050919050565b6000613e4682612f19565b82613e508461369a565b9050613e5b81613e26565b92506004821015613e9b57613e967fffffffff00000000000000000000000000000000000000000000000000000000836004036008026136eb565b831692505b5050919050565b6000613eae8285613bf0565b600482019150613ebe8284613b51565b601082019150819050939250505056fe4c5350353a204572726f722067656e65726174696e672064617461206b65792f76616c75652070616972734c535031303a204572726f722067656e65726174696e672064617461206b65792f76616c75652070616972734c5350313a206062616c616e63654f66286164647265737329602066756e6374696f6e206e6f7420666f756e643a206062616c616e63654f66286164647265737329602066756e6374696f6e206e6f7420666f756e64a26469706673582212202f53a4ea2b2ba423688d776c611f00340b07ad4d876660ecd9508fe7f66b1df764736f6c63430008110033",
  "linkReferences": {},
  "deployedLinkReferences": {}
}