{
  "_format": "hh-sol-artifact-1",
  "contractName": "LSP1GraveForwarder",
  "sourceName": "contracts/LSP1GraveForwarder.sol",
  "abi": [
    {
      "inputs": [
        {
          "internalType": "address",
          "name": "caller",
          "type": "address"
        }
      ],
      "name": "CannotRegisterEOAsAsAssets",
      "type": "error"
    },
    {
      "inputs": [],
      "name": "VERSION",
      "outputs": [
        {
          "internalType": "string",
          "name": "",
          "type": "string"
        }
      ],
      "stateMutability": "view",
      "type": "function"
    },
    {
      "inputs": [
        {
          "internalType": "address",
          "name": "token",
          "type": "address"
        }
      ],
      "name": "addTokenToAllowlist",
      "outputs": [],
      "stateMutability": "nonpayable",
      "type": "function"
    },
    {
      "inputs": [
        {
          "internalType": "address",
          "name": "token",
          "type": "address"
        }
      ],
      "name": "getAddressStatus",
      "outputs": [
        {
          "internalType": "bool",
          "name": "",
          "type": "bool"
        }
      ],
      "stateMutability": "view",
      "type": "function"
    },
    {
      "inputs": [],
      "name": "getGrave",
      "outputs": [
        {
          "internalType": "address",
          "name": "",
          "type": "address"
        }
      ],
      "stateMutability": "view",
      "type": "function"
    },
    {
      "inputs": [],
      "name": "graveUserCounter",
      "outputs": [
        {
          "internalType": "uint256",
          "name": "",
          "type": "uint256"
        }
      ],
      "stateMutability": "view",
      "type": "function"
    },
    {
      "inputs": [
        {
          "internalType": "address",
          "name": "",
          "type": "address"
        }
      ],
      "name": "graveVaults",
      "outputs": [
        {
          "internalType": "address",
          "name": "",
          "type": "address"
        }
      ],
      "stateMutability": "view",
      "type": "function"
    },
    {
      "inputs": [],
      "name": "lsp7RedirectedCounter",
      "outputs": [
        {
          "internalType": "uint256",
          "name": "",
          "type": "uint256"
        }
      ],
      "stateMutability": "view",
      "type": "function"
    },
    {
      "inputs": [],
      "name": "lsp8RedirectedCounter",
      "outputs": [
        {
          "internalType": "uint256",
          "name": "",
          "type": "uint256"
        }
      ],
      "stateMutability": "view",
      "type": "function"
    },
    {
      "inputs": [
        {
          "internalType": "address",
          "name": "token",
          "type": "address"
        }
      ],
      "name": "removeTokenFromAllowlist",
      "outputs": [],
      "stateMutability": "nonpayable",
      "type": "function"
    },
    {
      "inputs": [
        {
          "internalType": "address",
          "name": "grave",
          "type": "address"
        }
      ],
      "name": "setGrave",
      "outputs": [],
      "stateMutability": "nonpayable",
      "type": "function"
    },
    {
      "inputs": [
        {
          "internalType": "bytes4",
          "name": "interfaceId",
          "type": "bytes4"
        }
      ],
      "name": "supportsInterface",
      "outputs": [
        {
          "internalType": "bool",
          "name": "",
          "type": "bool"
        }
      ],
      "stateMutability": "view",
      "type": "function"
    },
    {
      "inputs": [
        {
          "internalType": "address",
          "name": "",
          "type": "address"
        },
        {
          "internalType": "address",
          "name": "",
          "type": "address"
        }
      ],
      "name": "tokenAllowlist",
      "outputs": [
        {
          "internalType": "bool",
          "name": "",
          "type": "bool"
        }
      ],
      "stateMutability": "view",
      "type": "function"
    },
    {
      "inputs": [
        {
          "internalType": "address",
          "name": "notifier",
          "type": "address"
        },
        {
          "internalType": "uint256",
          "name": "value",
          "type": "uint256"
        },
        {
          "internalType": "bytes32",
          "name": "typeId",
          "type": "bytes32"
        },
        {
          "internalType": "bytes",
          "name": "data",
          "type": "bytes"
        }
      ],
      "name": "universalReceiverDelegate",
      "outputs": [
        {
          "internalType": "bytes",
          "name": "",
          "type": "bytes"
        }
      ],
      "stateMutability": "nonpayable",
      "type": "function"
    }
  ],
  "bytecode": "0x608060405234801561001057600080fd5b50613f9a806100206000396000f3fe608060405234801561001057600080fd5b50600436106100cf5760003560e01c8063623c25151161008c578063a245bbda11610066578063a245bbda14610212578063ac0d987c14610242578063e226a1b614610260578063ffa1ad7414610290576100cf565b8063623c2515146101a65780638dcb6f59146101d65780639623941f146101f4576100cf565b806301ffc9a7146100d45780631957fba4146101045780632ad722e2146101205780633841ddf81461013c5780633ed6558e1461016c57806359ff6d3b1461018a575b600080fd5b6100ee60048036038101906100e99190612b4b565b6102ae565b6040516100fb9190612b93565b60405180910390f35b61011e60048036038101906101199190612c0c565b61030f565b005b61013a60048036038101906101359190612c0c565b61039e565b005b61015660048036038101906101519190612c39565b610559565b6040516101639190612b93565b60405180910390f35b610174610588565b6040516101819190612c92565b60405180910390f35b6101a4600480360381019061019f9190612c0c565b61058e565b005b6101c060048036038101906101bb9190612c0c565b610625565b6040516101cd9190612cbc565b60405180910390f35b6101de610658565b6040516101eb9190612c92565b60405180910390f35b6101fc61065e565b6040516102099190612c92565b60405180910390f35b61022c60048036038101906102279190612e7f565b610664565b6040516102399190612f81565b60405180910390f35b61024a610ca3565b6040516102579190612cbc565b60405180910390f35b61027a60048036038101906102759190612c0c565b610d09565b6040516102879190612b93565b60405180910390f35b610298610d9c565b6040516102a59190612ff8565b60405180910390f35b600063a245bbda60e01b7bffffffffffffffffffffffffffffffffffffffffffffffffffffffff1916827bffffffffffffffffffffffffffffffffffffffffffffffffffffffff19161480610308575061030782610dd5565b5b9050919050565b600160003373ffffffffffffffffffffffffffffffffffffffff1673ffffffffffffffffffffffffffffffffffffffff16815260200190815260200160002060008273ffffffffffffffffffffffffffffffffffffffff1673ffffffffffffffffffffffffffffffffffffffff16815260200190815260200160002060006101000a81549060ff021916905550565b6103af816328af17e660e01b610e3f565b6103ee576040517f08c379a00000000000000000000000000000000000000000000000000000000081526004016103e59061308c565b60405180910390fd5b60008190503373ffffffffffffffffffffffffffffffffffffffff168173ffffffffffffffffffffffffffffffffffffffff16638da5cb5b6040518163ffffffff1660e01b8152600401602060405180830381865afa158015610455573d6000803e3d6000fd5b505050506040513d601f19601f8201168201806040525081019061047991906130c1565b73ffffffffffffffffffffffffffffffffffffffff16146104cf576040517f08c379a00000000000000000000000000000000000000000000000000000000081526004016104c690613160565b60405180910390fd5b6104d833610e64565b816000803373ffffffffffffffffffffffffffffffffffffffff1673ffffffffffffffffffffffffffffffffffffffff16815260200190815260200160002060006101000a81548173ffffffffffffffffffffffffffffffffffffffff021916908373ffffffffffffffffffffffffffffffffffffffff1602179055505050565b60016020528160005260406000206020528060005260406000206000915091509054906101000a900460ff1681565b60035481565b60018060003373ffffffffffffffffffffffffffffffffffffffff1673ffffffffffffffffffffffffffffffffffffffff16815260200190815260200160002060008373ffffffffffffffffffffffffffffffffffffffff1673ffffffffffffffffffffffffffffffffffffffff16815260200190815260200160002060006101000a81548160ff02191690831515021790555050565b60006020528060005260406000206000915054906101000a900473ffffffffffffffffffffffffffffffffffffffff1681565b60055481565b60045481565b6060600160003373ffffffffffffffffffffffffffffffffffffffff1673ffffffffffffffffffffffffffffffffffffffff16815260200190815260200160002060008673ffffffffffffffffffffffffffffffffffffffff1673ffffffffffffffffffffffffffffffffffffffff16815260200190815260200160002060009054906101000a900460ff16156107085761070185858585610f12565b9050610c9b565b600073ffffffffffffffffffffffffffffffffffffffff166000803373ffffffffffffffffffffffffffffffffffffffff1673ffffffffffffffffffffffffffffffffffffffff16815260200190815260200160002060009054906101000a900473ffffffffffffffffffffffffffffffffffffffff1673ffffffffffffffffffffffffffffffffffffffff16036107d5576040517f08c379a00000000000000000000000000000000000000000000000000000000081526004016107cc906131f2565b60405180910390fd5b6107e6336324871b3d60e01b6110c1565b610827576040518060400160405280601681526020017f3a2063616c6c6572206973206e6f742061204c535030000000000000000000008152509050610c9b565b60008573ffffffffffffffffffffffffffffffffffffffff163b1115610926578473ffffffffffffffffffffffffffffffffffffffff166370a08231336040518263ffffffff1660e01b81526004016108809190612cbc565b602060405180830381865afa9250505080156108ba57506040513d601f19601f820116820180604052508101906108b79190613227565b60015b6108de57604051806060016040528060298152602001613f3c602991399050610c9b565b60008103610924576040518060400160405280601481526020017f3a2055502062616c616e6365206973207a65726f000000000000000000000000815250915050610c9b565b505b7f20804611b3e2ea21c480dc465142210acf4a2485947541770ec1fb87dee4a55c60001b8303610ad7576000828060200190518101906109669190613302565b5093505050506000336000803373ffffffffffffffffffffffffffffffffffffffff1673ffffffffffffffffffffffffffffffffffffffff16815260200190815260200160002060009054906101000a900473ffffffffffffffffffffffffffffffffffffffff16836000876040516024016109e6959493929190613399565b60405160208183030381529060405263760d9bba60e01b6020820180517bffffffffffffffffffffffffffffffffffffffffffffffffffffffff8381831617835250505050905060036000815480929190610a4090613422565b91905055503373ffffffffffffffffffffffffffffffffffffffff166344c028fe6000896000856040518563ffffffff1660e01b8152600401610a8694939291906134af565b6000604051808303816000875af1158015610aa5573d6000803e3d6000fd5b505050506040513d6000823e3d601f19601f82011682018060405250810190610ace91906134fb565b92505050610c9b565b7f0b084a55ebf70fd3c06fd755269dac2212c4d3f0f4d09079780bfa50c1b2984d60001b8303610c8857600082806020019051810190610b179190613559565b5093505050506000336000803373ffffffffffffffffffffffffffffffffffffffff1673ffffffffffffffffffffffffffffffffffffffff16815260200190815260200160002060009054906101000a900473ffffffffffffffffffffffffffffffffffffffff1683600087604051602401610b979594939291906135ff565b60405160208183030381529060405263511b695260e01b6020820180517bffffffffffffffffffffffffffffffffffffffffffffffffffffffff8381831617835250505050905060046000815480929190610bf190613422565b91905055503373ffffffffffffffffffffffffffffffffffffffff166344c028fe6000896000856040518563ffffffff1660e01b8152600401610c3794939291906134af565b6000604051808303816000875af1158015610c56573d6000803e3d6000fd5b505050506040513d6000823e3d601f19601f82011682018060405250810190610c7f91906134fb565b92505050610c9b565b6040518060200160405280600081525090505b949350505050565b60008060003373ffffffffffffffffffffffffffffffffffffffff1673ffffffffffffffffffffffffffffffffffffffff16815260200190815260200160002060009054906101000a900473ffffffffffffffffffffffffffffffffffffffff16905090565b6000600160003373ffffffffffffffffffffffffffffffffffffffff1673ffffffffffffffffffffffffffffffffffffffff16815260200190815260200160002060008373ffffffffffffffffffffffffffffffffffffffff1673ffffffffffffffffffffffffffffffffffffffff16815260200190815260200160002060009054906101000a900460ff169050919050565b6040518060400160405280600681526020017f302e31342e30000000000000000000000000000000000000000000000000000081525081565b60007f01ffc9a7000000000000000000000000000000000000000000000000000000007bffffffffffffffffffffffffffffffffffffffffffffffffffffffff1916827bffffffffffffffffffffffffffffffffffffffffffffffffffffffff1916149050919050565b6000610e4a83611180565b8015610e5c5750610e5b83836110c1565b5b905092915050565b600073ffffffffffffffffffffffffffffffffffffffff166000808373ffffffffffffffffffffffffffffffffffffffff1673ffffffffffffffffffffffffffffffffffffffff16815260200190815260200160002060009054906101000a900473ffffffffffffffffffffffffffffffffffffffff1673ffffffffffffffffffffffffffffffffffffffff1603610f0f5760056000815480929190610f0990613422565b91905055505b50565b60607f429ac7a06903dbc9c13dfcb3c9d11df8194581fa047c96d7a4171fc7402958ea60001b8303610f4e57610f47856111cd565b90506110b9565b7f20804611b3e2ea21c480dc465142210acf4a2485947541770ec1fb87dee4a55c60001b8303610f9057610f898563b3c4928f60e01b61137d565b90506110b9565b7fb23eae7e6d1564b295b4c3e3be402d9a2f0776c57bdf365903496f6fa481ab0060001b8303610fca57610fc3856111cd565b90506110b9565b7f0b084a55ebf70fd3c06fd755269dac2212c4d3f0f4d09079780bfa50c1b2984d60001b830361100c5761100585633a27170660e01b61137d565b90506110b9565b7f0c622e58e6b7089ae35f1af1c86d997be92fcdd8c9509652022d41aa6516947160001b83036110465761103f8561154f565b90506110b9565b7f79855c97dbc259ce395421d933d7bc0699b0f1561f988f09a9e8633fd542fe5c60001b83036110805761107985611621565b90506110b9565b6040518060400160405280601981526020017f4c5350313a20747970654964206f7574206f662073636f70650000000000000081525090505b949350505050565b6000806301ffc9a760e01b836040516024016110dd9190613668565b604051602081830303815290604052907bffffffffffffffffffffffffffffffffffffffffffffffffffffffff19166020820180517bffffffffffffffffffffffffffffffffffffffffffffffffffffffff838183161783525050505090506000806000602060008551602087018a617530fa92503d91506000519050828015611168575060208210155b80156111745750600081115b94505050505092915050565b60006111ac827f01ffc9a7000000000000000000000000000000000000000000000000000000006110c1565b80156111c657506111c48263ffffffff60e01b6110c1565b155b9050919050565b6060813273ffffffffffffffffffffffffffffffffffffffff168173ffffffffffffffffffffffffffffffffffffffff160361124057806040517fa52953450000000000000000000000000000000000000000000000000000000081526004016112379190612cbc565b60405180910390fd5b8273ffffffffffffffffffffffffffffffffffffffff166370a08231336040518263ffffffff1660e01b81526004016112799190612cbc565b602060405180830381865afa9250505080156112b357506040513d601f19601f820116820180604052508101906112b09190613227565b60015b6112d7576040518060600160405280602d8152602001613f0f602d91399150611377565b6000811461131d576040518060400160405280601e81526020017f4c5350313a2066756c6c2062616c616e6365206973206e6f742073656e740000815250925050611377565b5060008061132b33866116f3565b9150915060008251148015611341575060008151145b15611368576040518060600160405280602b8152602001613eb8602b913993505050611377565b6113728282611969565b935050505b50919050565b6060823273ffffffffffffffffffffffffffffffffffffffff168173ffffffffffffffffffffffffffffffffffffffff16036113f057806040517fa52953450000000000000000000000000000000000000000000000000000000081526004016113e79190612cbc565b60405180910390fd5b60008473ffffffffffffffffffffffffffffffffffffffff163b146114ee578373ffffffffffffffffffffffffffffffffffffffff166370a08231336040518263ffffffff1660e01b81526004016114489190612cbc565b602060405180830381865afa92505050801561148257506040513d601f19601f8201168201806040525081019061147f9190613227565b60015b6114a6576040518060600160405280602d8152602001613f0f602d91399150611548565b600081036114ec576040518060400160405280601581526020017f4c5350313a2062616c616e6365206973207a65726f0000000000000000000000815250925050611548565b505b6000806114fc338787611a29565b9150915060008251148015611512575060008151145b15611539576040518060600160405280602b8152602001613eb8602b913993505050611548565b6115438282611969565b935050505b5092915050565b6060813273ffffffffffffffffffffffffffffffffffffffff168173ffffffffffffffffffffffffffffffffffffffff16036115c257806040517fa52953450000000000000000000000000000000000000000000000000000000081526004016115b99190612cbc565b60405180910390fd5b6000806115cf3386611da0565b91509150600082511480156115e5575060008151145b1561160c576040518060600160405280602c8152602001613ee3602c91399350505061161b565b6116168282611969565b935050505b50919050565b6060813273ffffffffffffffffffffffffffffffffffffffff168173ffffffffffffffffffffffffffffffffffffffff160361169457806040517fa529534500000000000000000000000000000000000000000000000000000000815260040161168b9190612cbc565b60405180910390fd5b6000806116a13386612023565b91509150600082511480156116b7575060008151145b156116de576040518060600160405280602c8152602001613ee3602c9139935050506116ed565b6116e88282611969565b935050505b50919050565b60608060008490506000611706826123a0565b90506117118161244b565b61171c575050611962565b600060801b6fffffffffffffffffffffffffffffffff19168161173e906136e1565b6fffffffffffffffffffffffffffffffff19160361175d575050611962565b600060018261176b906136e1565b60801c6117789190613764565b9050600061179669812c4334633eb816c80d60b01b8860601b612469565b905060008473ffffffffffffffffffffffffffffffffffffffff166354f6127f836040518263ffffffff1660e01b81526004016117d391906137a8565b600060405180830381865afa1580156117f0573d6000803e3d6000fd5b505050506040513d6000823e3d601f19601f8201168201806040525081019061181991906134fb565b9050601481511461182e575050505050611962565b600060208261183c90613804565b6bffffffffffffffffffffffff1916901b60801c905060006118817f6460ee3c0aac563ccbf76d6e1d07bada78e3a9514e6382b736ed3f478ab7b90b60001b836124a9565b9050846fffffffffffffffffffffffffffffffff16826fffffffffffffffffffffffffffffffff16036118ed576118dd7f6460ee3c0aac563ccbf76d6e1d07bada78e3a9514e6382b736ed3f478ab7b90b60001b8683876124e6565b9850985050505050505050611962565b846fffffffffffffffffffffffffffffffff16826fffffffffffffffffffffffffffffffff16101561195a5761194a877f6460ee3c0aac563ccbf76d6e1d07bada78e3a9514e6382b736ed3f478ab7b90b60001b8784868961268f565b9850985050505050505050611962565b505050505050505b9250929050565b60603373ffffffffffffffffffffffffffffffffffffffff16639790242184846040518363ffffffff1660e01b81526004016119a6929190613a35565b600060405180830381600087803b1580156119c057600080fd5b505af19250505080156119d1575060015b611a10573d8060008114611a01576040519150601f19603f3d011682016040523d82523d6000602084013e611a06565b606091505b5080915050611a23565b6040518060200160405280600081525090505b92915050565b60608060008590506000611a3c826123a0565b9050611a478161244b565b611a87576000815103611a7f57600060801b604051602001611a699190613a8d565b6040516020818303038152906040529050611a86565b5050611d98565b5b600081611a93906136e1565b60801c90506fffffffffffffffffffffffffffffffff8016816fffffffffffffffffffffffffffffffff1603611acb57505050611d98565b6000611ae769812c4334633eb816c80d60b01b8960601b612469565b905060008473ffffffffffffffffffffffffffffffffffffffff166354f6127f836040518263ffffffff1660e01b8152600401611b2491906137a8565b600060405180830381865afa158015611b41573d6000803e3d6000fd5b505050506040513d6000823e3d601f19601f82011682018060405250810190611b6a91906134fb565b5114611b795750505050611d98565b600367ffffffffffffffff811115611b9457611b93612d54565b5b604051908082528060200260200182016040528015611bc25781602001602082028036833780820191505090505b509550600367ffffffffffffffff811115611be057611bdf612d54565b5b604051908082528060200260200182016040528015611c1357816020015b6060815260200190600190039081611bfe5790505b5094507f6460ee3c0aac563ccbf76d6e1d07bada78e3a9514e6382b736ed3f478ab7b90b60001b86600081518110611c4e57611c4d613aa8565b5b602002602001018181525050600182611c679190613ad7565b604051602001611c779190613b51565b60405160208183030381529060405285600081518110611c9a57611c99613aa8565b5b6020026020010181905250611cd27f6460ee3c0aac563ccbf76d6e1d07bada78e3a9514e6382b736ed3f478ab7b90b60001b836124a9565b86600181518110611ce657611ce5613aa8565b5b60200260200101818152505087604051602001611d039190613bb4565b60405160208183030381529060405285600181518110611d2657611d25613aa8565b5b60200260200101819052508086600281518110611d4657611d45613aa8565b5b6020026020010181815250508683604051602001611d65929190613c2c565b60405160208183030381529060405285600281518110611d8857611d87613aa8565b5b6020026020010181905250505050505b935093915050565b60608060008490506000611db382612a34565b9050611dbe8161244b565b611dc957505061201c565b600081511480611e0b5750600060801b6fffffffffffffffffffffffffffffffff191681611df6906136e1565b6fffffffffffffffffffffffffffffffff1916145b15611e1757505061201c565b6000600182611e25906136e1565b60801c611e329190613764565b90506000611e5069192448c3c0f88c7f238c60b01b8860601b612469565b905060008473ffffffffffffffffffffffffffffffffffffffff166354f6127f836040518263ffffffff1660e01b8152600401611e8d91906137a8565b600060405180830381865afa158015611eaa573d6000803e3d6000fd5b505050506040513d6000823e3d601f19601f82011682018060405250810190611ed391906134fb565b90506014815114611ee857505050505061201c565b6000602082611ef690613804565b6bffffffffffffffffffffffff1916901b60801c90506000611f3b7f55482936e01da86729a45d2b87a6b1d3bc582bea0ec00e38bdb340e3af6f9f0660001b836124a9565b9050846fffffffffffffffffffffffffffffffff16826fffffffffffffffffffffffffffffffff1603611fa757611f977f55482936e01da86729a45d2b87a6b1d3bc582bea0ec00e38bdb340e3af6f9f0660001b8683876124e6565b985098505050505050505061201c565b846fffffffffffffffffffffffffffffffff16826fffffffffffffffffffffffffffffffff16101561201457612004877f55482936e01da86729a45d2b87a6b1d3bc582bea0ec00e38bdb340e3af6f9f0660001b8784868961268f565b985098505050505050505061201c565b505050505050505b9250929050565b6060806000849050600061203682612a34565b90506120418161244b565b61208157600081510361207957600060801b6040516020016120639190613a8d565b6040516020818303038152906040529050612080565b5050612399565b5b60008161208d906136e1565b60801c90506fffffffffffffffffffffffffffffffff8016816fffffffffffffffffffffffffffffffff16036120c557505050612399565b60006120e169192448c3c0f88c7f238c60b01b8860601b612469565b905060008473ffffffffffffffffffffffffffffffffffffffff166354f6127f836040518263ffffffff1660e01b815260040161211e91906137a8565b600060405180830381865afa15801561213b573d6000803e3d6000fd5b505050506040513d6000823e3d601f19601f8201168201806040525081019061216491906134fb565b51146121735750505050612399565b600367ffffffffffffffff81111561218e5761218d612d54565b5b6040519080825280602002602001820160405280156121bc5781602001602082028036833780820191505090505b509550600367ffffffffffffffff8111156121da576121d9612d54565b5b60405190808252806020026020018201604052801561220d57816020015b60608152602001906001900390816121f85790505b5094507f55482936e01da86729a45d2b87a6b1d3bc582bea0ec00e38bdb340e3af6f9f0660001b8660008151811061224857612247613aa8565b5b6020026020010181815250506001826122619190613ad7565b6040516020016122719190613b51565b6040516020818303038152906040528560008151811061229457612293613aa8565b5b60200260200101819052506122cc7f55482936e01da86729a45d2b87a6b1d3bc582bea0ec00e38bdb340e3af6f9f0660001b836124a9565b866001815181106122e0576122df613aa8565b5b602002602001018181525050866040516020016122fd9190613bb4565b604051602081830303815290604052856001815181106123205761231f613aa8565b5b602002602001018190525080866002815181106123405761233f613aa8565b5b6020026020010181815250506328af17e660e01b83604051602001612366929190613c2c565b6040516020818303038152906040528560028151811061238957612388613aa8565b5b6020026020010181905250505050505b9250929050565b60608173ffffffffffffffffffffffffffffffffffffffff166354f6127f7f6460ee3c0aac563ccbf76d6e1d07bada78e3a9514e6382b736ed3f478ab7b90b60001b6040518263ffffffff1660e01b81526004016123fe91906137a8565b600060405180830381865afa15801561241b573d6000803e3d6000fd5b505050506040513d6000823e3d601f19601f8201168201806040525081019061244491906134fb565b9050919050565b6000601082510361245f5760019050612464565b600090505b919050565b60008083600060f01b8460405160200161248593929190613d0f565b6040516020818303038152906040529050806124a090613d61565b91505092915050565b600080838360801b6040516020016124c2929190613dc8565b6040516020818303038152906040529050806124dd90613d61565b91505092915050565b606080600367ffffffffffffffff81111561250457612503612d54565b5b6040519080825280602002602001820160405280156125325781602001602082028036833780820191505090505b509150600367ffffffffffffffff8111156125505761254f612d54565b5b60405190808252806020026020018201604052801561258357816020015b606081526020019060019003908161256e5790505b509050858260008151811061259b5761259a613aa8565b5b602002602001018181525050846040516020016125b89190613b51565b604051602081830303815290604052816000815181106125db576125da613aa8565b5b602002602001018190525082826001815181106125fb576125fa613aa8565b5b602002602001018181525050604051806020016040528060008152508160018151811061262b5761262a613aa8565b5b6020026020010181905250838260028151811061264b5761264a613aa8565b5b602002602001018181525050604051806020016040528060008152508160028151811061267b5761267a613aa8565b5b602002602001018190525094509492505050565b606080600567ffffffffffffffff8111156126ad576126ac612d54565b5b6040519080825280602002602001820160405280156126db5781602001602082028036833780820191505090505b509150600567ffffffffffffffff8111156126f9576126f8612d54565b5b60405190808252806020026020018201604052801561272c57816020015b60608152602001906001900390816127175790505b509050868260008151811061274457612743613aa8565b5b602002602001018181525050856040516020016127619190613b51565b6040516020818303038152906040528160008151811061278457612783613aa8565b5b602002602001018190525082826001815181106127a4576127a3613aa8565b5b60200260200101818152505060405180602001604052806000815250816001815181106127d4576127d3613aa8565b5b602002602001018190525060006127eb88886124a9565b905060008973ffffffffffffffffffffffffffffffffffffffff166354f6127f836040518263ffffffff1660e01b815260040161282891906137a8565b600060405180830381865afa158015612845573d6000803e3d6000fd5b505050506040513d6000823e3d601f19601f8201168201806040525081019061286e91906134fb565b61287790613804565b9050868460028151811061288e5761288d613aa8565b5b602002602001018181525050806040516020016128ab9190613df4565b604051602081830303815290604052836002815181106128ce576128cd613aa8565b5b602002602001018190525081846003815181106128ee576128ed613aa8565b5b602002602001018181525050604051806020016040528060008152508360038151811061291e5761291d613aa8565b5b602002602001018190525060006129358683612469565b905060008b73ffffffffffffffffffffffffffffffffffffffff166354f6127f836040518263ffffffff1660e01b815260040161297291906137a8565b600060405180830381865afa15801561298f573d6000803e3d6000fd5b505050506040513d6000823e3d601f19601f820116820180604052508101906129b891906134fb565b6129c190613e24565b886040516020016129d3929190613e8b565b604051602081830303815290604052905081866004815181106129f9576129f8613aa8565b5b6020026020010181815250508085600481518110612a1a57612a19613aa8565b5b602002602001018190525050505050965096945050505050565b60608173ffffffffffffffffffffffffffffffffffffffff166354f6127f7f55482936e01da86729a45d2b87a6b1d3bc582bea0ec00e38bdb340e3af6f9f0660001b6040518263ffffffff1660e01b8152600401612a9291906137a8565b600060405180830381865afa158015612aaf573d6000803e3d6000fd5b505050506040513d6000823e3d601f19601f82011682018060405250810190612ad891906134fb565b9050919050565b6000604051905090565b600080fd5b600080fd5b60007fffffffff0000000000000000000000000000000000000000000000000000000082169050919050565b612b2881612af3565b8114612b3357600080fd5b50565b600081359050612b4581612b1f565b92915050565b600060208284031215612b6157612b60612ae9565b5b6000612b6f84828501612b36565b91505092915050565b60008115159050919050565b612b8d81612b78565b82525050565b6000602082019050612ba86000830184612b84565b92915050565b600073ffffffffffffffffffffffffffffffffffffffff82169050919050565b6000612bd982612bae565b9050919050565b612be981612bce565b8114612bf457600080fd5b50565b600081359050612c0681612be0565b92915050565b600060208284031215612c2257612c21612ae9565b5b6000612c3084828501612bf7565b91505092915050565b60008060408385031215612c5057612c4f612ae9565b5b6000612c5e85828601612bf7565b9250506020612c6f85828601612bf7565b9150509250929050565b6000819050919050565b612c8c81612c79565b82525050565b6000602082019050612ca76000830184612c83565b92915050565b612cb681612bce565b82525050565b6000602082019050612cd16000830184612cad565b92915050565b612ce081612c79565b8114612ceb57600080fd5b50565b600081359050612cfd81612cd7565b92915050565b6000819050919050565b612d1681612d03565b8114612d2157600080fd5b50565b600081359050612d3381612d0d565b92915050565b600080fd5b600080fd5b6000601f19601f8301169050919050565b7f4e487b7100000000000000000000000000000000000000000000000000000000600052604160045260246000fd5b612d8c82612d43565b810181811067ffffffffffffffff82111715612dab57612daa612d54565b5b80604052505050565b6000612dbe612adf565b9050612dca8282612d83565b919050565b600067ffffffffffffffff821115612dea57612de9612d54565b5b612df382612d43565b9050602081019050919050565b82818337600083830152505050565b6000612e22612e1d84612dcf565b612db4565b905082815260208101848484011115612e3e57612e3d612d3e565b5b612e49848285612e00565b509392505050565b600082601f830112612e6657612e65612d39565b5b8135612e76848260208601612e0f565b91505092915050565b60008060008060808587031215612e9957612e98612ae9565b5b6000612ea787828801612bf7565b9450506020612eb887828801612cee565b9350506040612ec987828801612d24565b925050606085013567ffffffffffffffff811115612eea57612ee9612aee565b5b612ef687828801612e51565b91505092959194509250565b600081519050919050565b600082825260208201905092915050565b60005b83811015612f3c578082015181840152602081019050612f21565b60008484015250505050565b6000612f5382612f02565b612f5d8185612f0d565b9350612f6d818560208601612f1e565b612f7681612d43565b840191505092915050565b60006020820190508181036000830152612f9b8184612f48565b905092915050565b600081519050919050565b600082825260208201905092915050565b6000612fca82612fa3565b612fd48185612fae565b9350612fe4818560208601612f1e565b612fed81612d43565b840191505092915050565b600060208201905081810360008301526130128184612fbf565b905092915050565b7f50726f7669646564206164647265737320646f6573206e6f7420696d706c656d60008201527f656e74204c5350395661756c7420696e74657266616365000000000000000000602082015250565b6000613076603783612fae565b91506130818261301a565b604082019050919050565b600060208201905081810360008301526130a581613069565b9050919050565b6000815190506130bb81612be0565b92915050565b6000602082840312156130d7576130d6612ae9565b5b60006130e5848285016130ac565b91505092915050565b7f43616c6c6572206973206e6f7420746865206f776e6572206f6620746865207660008201527f61756c7420636f6e74726163742e000000000000000000000000000000000000602082015250565b600061314a602e83612fae565b9150613155826130ee565b604082019050919050565b600060208201905081810360008301526131798161313d565b9050919050565b7f4c5350314772617665466f727761726465723a2075736572207661756c74206e60008201527f6f74207365740000000000000000000000000000000000000000000000000000602082015250565b60006131dc602683612fae565b91506131e782613180565b604082019050919050565b6000602082019050818103600083015261320b816131cf565b9050919050565b60008151905061322181612cd7565b92915050565b60006020828403121561323d5761323c612ae9565b5b600061324b84828501613212565b91505092915050565b600061325f82612bae565b9050919050565b61326f81613254565b811461327a57600080fd5b50565b60008151905061328c81613266565b92915050565b60006132a56132a084612dcf565b612db4565b9050828152602081018484840111156132c1576132c0612d3e565b5b6132cc848285612f1e565b509392505050565b600082601f8301126132e9576132e8612d39565b5b81516132f9848260208601613292565b91505092915050565b600080600080600060a0868803121561331e5761331d612ae9565b5b600061332c8882890161327d565b955050602061333d8882890161327d565b945050604061334e8882890161327d565b935050606061335f88828901613212565b925050608086015167ffffffffffffffff8111156133805761337f612aee565b5b61338c888289016132d4565b9150509295509295909350565b600060a0820190506133ae6000830188612cad565b6133bb6020830187612cad565b6133c86040830186612c83565b6133d56060830185612b84565b81810360808301526133e78184612f48565b90509695505050505050565b7f4e487b7100000000000000000000000000000000000000000000000000000000600052601160045260246000fd5b600061342d82612c79565b91507fffffffffffffffffffffffffffffffffffffffffffffffffffffffffffffffff820361345f5761345e6133f3565b5b600182019050919050565b6000819050919050565b6000819050919050565b600061349961349461348f8461346a565b613474565b612c79565b9050919050565b6134a98161347e565b82525050565b60006080820190506134c460008301876134a0565b6134d16020830186612cad565b6134de60408301856134a0565b81810360608301526134f08184612f48565b905095945050505050565b60006020828403121561351157613510612ae9565b5b600082015167ffffffffffffffff81111561352f5761352e612aee565b5b61353b848285016132d4565b91505092915050565b60008151905061355381612d0d565b92915050565b600080600080600060a0868803121561357557613574612ae9565b5b60006135838882890161327d565b95505060206135948882890161327d565b94505060406135a58882890161327d565b93505060606135b688828901613544565b925050608086015167ffffffffffffffff8111156135d7576135d6612aee565b5b6135e3888289016132d4565b9150509295509295909350565b6135f981612d03565b82525050565b600060a0820190506136146000830188612cad565b6136216020830187612cad565b61362e60408301866135f0565b61363b6060830185612b84565b818103608083015261364d8184612f48565b90509695505050505050565b61366281612af3565b82525050565b600060208201905061367d6000830184613659565b92915050565b6000819050602082019050919050565b60007fffffffffffffffffffffffffffffffff0000000000000000000000000000000082169050919050565b60006136cb8251613693565b80915050919050565b600082821b905092915050565b60006136ec82612f02565b826136f684613683565b9050613701816136bf565b925060108210156137415761373c7fffffffffffffffffffffffffffffffff00000000000000000000000000000000836010036008026136d4565b831692505b5050919050565b60006fffffffffffffffffffffffffffffffff82169050919050565b600061376f82613748565b915061377a83613748565b925082820390506fffffffffffffffffffffffffffffffff8111156137a2576137a16133f3565b5b92915050565b60006020820190506137bd60008301846135f0565b92915050565b60007fffffffffffffffffffffffffffffffffffffffff00000000000000000000000082169050919050565b60006137fb82516137c3565b80915050919050565b600061380f82612f02565b8261381984613683565b9050613824816137ef565b925060148210156138645761385f7fffffffffffffffffffffffffffffffffffffffff000000000000000000000000836014036008026136d4565b831692505b5050919050565b600081519050919050565b600082825260208201905092915050565b6000819050602082019050919050565b6138a081612d03565b82525050565b60006138b28383613897565b60208301905092915050565b6000602082019050919050565b60006138d68261386b565b6138e08185613876565b93506138eb83613887565b8060005b8381101561391c57815161390388826138a6565b975061390e836138be565b9250506001810190506138ef565b5085935050505092915050565b600081519050919050565b600082825260208201905092915050565b6000819050602082019050919050565b600082825260208201905092915050565b600061397182612f02565b61397b8185613955565b935061398b818560208601612f1e565b61399481612d43565b840191505092915050565b60006139ab8383613966565b905092915050565b6000602082019050919050565b60006139cb82613929565b6139d58185613934565b9350836020820285016139e785613945565b8060005b85811015613a235784840389528151613a04858261399f565b9450613a0f836139b3565b925060208a019950506001810190506139eb565b50829750879550505050505092915050565b60006040820190508181036000830152613a4f81856138cb565b90508181036020830152613a6381846139c0565b90509392505050565b6000819050919050565b613a87613a8282613693565b613a6c565b82525050565b6000613a998284613a76565b60108201915081905092915050565b7f4e487b7100000000000000000000000000000000000000000000000000000000600052603260045260246000fd5b6000613ae282613748565b9150613aed83613748565b925082820190506fffffffffffffffffffffffffffffffff811115613b1557613b146133f3565b5b92915050565b60008160801b9050919050565b6000613b3382613b1b565b9050919050565b613b4b613b4682613748565b613b28565b82525050565b6000613b5d8284613b3a565b60108201915081905092915050565b60008160601b9050919050565b6000613b8482613b6c565b9050919050565b6000613b9682613b79565b9050919050565b613bae613ba982612bce565b613b8b565b82525050565b6000613bc08284613b9d565b60148201915081905092915050565b6000819050919050565b613bea613be582612af3565b613bcf565b82525050565b600081905092915050565b6000613c0682612f02565b613c108185613bf0565b9350613c20818560208601612f1e565b80840191505092915050565b6000613c388285613bd9565b600482019150613c488284613bfb565b91508190509392505050565b60007fffffffffffffffffffff0000000000000000000000000000000000000000000082169050919050565b6000819050919050565b613c9b613c9682613c54565b613c80565b82525050565b60007fffff00000000000000000000000000000000000000000000000000000000000082169050919050565b6000819050919050565b613ce8613ce382613ca1565b613ccd565b82525050565b6000819050919050565b613d09613d04826137c3565b613cee565b82525050565b6000613d1b8286613c8a565b600a82019150613d2b8285613cd7565b600282019150613d3b8284613cf8565b601482019150819050949350505050565b6000613d588251612d03565b80915050919050565b6000613d6c82612f02565b82613d7684613683565b9050613d8181613d4c565b92506020821015613dc157613dbc7fffffffffffffffffffffffffffffffffffffffffffffffffffffffffffffffff836020036008026136d4565b831692505b5050919050565b6000613dd48285613a76565b601082019150613de48284613a76565b6010820191508190509392505050565b6000613e008284613cf8565b60148201915081905092915050565b6000613e1b8251612af3565b80915050919050565b6000613e2f82612f02565b82613e3984613683565b9050613e4481613e0f565b92506004821015613e8457613e7f7fffffffff00000000000000000000000000000000000000000000000000000000836004036008026136d4565b831692505b5050919050565b6000613e978285613bd9565b600482019150613ea78284613b3a565b601082019150819050939250505056fe4c5350353a204572726f722067656e65726174696e672064617461206b65792f76616c75652070616972734c535031303a204572726f722067656e65726174696e672064617461206b65792f76616c75652070616972734c5350313a206062616c616e63654f66286164647265737329602066756e6374696f6e206e6f7420666f756e643a206062616c616e63654f66286164647265737329602066756e6374696f6e206e6f7420666f756e64a264697066735822122025ef5399b124c1ada8cbfcd42fc5ac3e3725b80ab24376bd39cf0e26f245ba4264736f6c63430008110033",
  "linkReferences": {},
  "deployedLinkReferences": {}
}