{
  "_format": "hh-sol-artifact-1",
  "contractName": "LSP1GraveForwader",
  "sourceName": "contracts/LSP1GraveForwarder.sol",
  "abi": [
    {
      "inputs": [
        {
          "internalType": "address",
          "name": "caller",
          "type": "address"
        }
      ],
      "name": "CannotRegisterEOAsAsAssets",
      "type": "error"
    },
    {
      "inputs": [],
      "name": "VERSION",
      "outputs": [
        {
          "internalType": "string",
          "name": "",
          "type": "string"
        }
      ],
      "stateMutability": "view",
      "type": "function"
    },
    {
      "inputs": [
        {
          "internalType": "address",
          "name": "token",
          "type": "address"
        }
      ],
      "name": "addTokenToAllowlist",
      "outputs": [],
      "stateMutability": "nonpayable",
      "type": "function"
    },
    {
      "inputs": [
        {
          "internalType": "address",
          "name": "token",
          "type": "address"
        }
      ],
      "name": "getAddressStatus",
      "outputs": [
        {
          "internalType": "bool",
          "name": "",
          "type": "bool"
        }
      ],
      "stateMutability": "view",
      "type": "function"
    },
    {
      "inputs": [],
      "name": "getGrave",
      "outputs": [
        {
          "internalType": "address",
          "name": "",
          "type": "address"
        }
      ],
      "stateMutability": "view",
      "type": "function"
    },
    {
      "inputs": [
        {
          "internalType": "address",
          "name": "",
          "type": "address"
        }
      ],
      "name": "graveVaults",
      "outputs": [
        {
          "internalType": "address",
          "name": "",
          "type": "address"
        }
      ],
      "stateMutability": "view",
      "type": "function"
    },
    {
      "inputs": [
        {
          "internalType": "address",
          "name": "token",
          "type": "address"
        }
      ],
      "name": "removeTokenFromAllowlist",
      "outputs": [],
      "stateMutability": "nonpayable",
      "type": "function"
    },
    {
      "inputs": [
        {
          "internalType": "address",
          "name": "grave",
          "type": "address"
        }
      ],
      "name": "setGrave",
      "outputs": [],
      "stateMutability": "nonpayable",
      "type": "function"
    },
    {
      "inputs": [
        {
          "internalType": "bytes4",
          "name": "interfaceId",
          "type": "bytes4"
        }
      ],
      "name": "supportsInterface",
      "outputs": [
        {
          "internalType": "bool",
          "name": "",
          "type": "bool"
        }
      ],
      "stateMutability": "view",
      "type": "function"
    },
    {
      "inputs": [
        {
          "internalType": "address",
          "name": "",
          "type": "address"
        },
        {
          "internalType": "address",
          "name": "",
          "type": "address"
        }
      ],
      "name": "tokenAllowlist",
      "outputs": [
        {
          "internalType": "bool",
          "name": "",
          "type": "bool"
        }
      ],
      "stateMutability": "view",
      "type": "function"
    },
    {
      "inputs": [
        {
          "internalType": "address",
          "name": "notifier",
          "type": "address"
        },
        {
          "internalType": "uint256",
          "name": "value",
          "type": "uint256"
        },
        {
          "internalType": "bytes32",
          "name": "typeId",
          "type": "bytes32"
        },
        {
          "internalType": "bytes",
          "name": "data",
          "type": "bytes"
        }
      ],
      "name": "universalReceiverDelegate",
      "outputs": [
        {
          "internalType": "bytes",
          "name": "",
          "type": "bytes"
        }
      ],
      "stateMutability": "nonpayable",
      "type": "function"
    }
  ],
  "bytecode": "0x608060405234801561001057600080fd5b50613c29806100206000396000f3fe608060405234801561001057600080fd5b506004361061009e5760003560e01c8063623c251511610066578063623c251514610157578063a245bbda14610187578063ac0d987c146101b7578063e226a1b6146101d5578063ffa1ad74146102055761009e565b806301ffc9a7146100a35780631957fba4146100d35780632ad722e2146100ef5780633841ddf81461010b57806359ff6d3b1461013b575b600080fd5b6100bd60048036038101906100b891906128b4565b610223565b6040516100ca91906128fc565b60405180910390f35b6100ed60048036038101906100e89190612975565b610284565b005b61010960048036038101906101049190612975565b61031c565b005b610125600480360381019061012091906129a2565b6103ec565b60405161013291906128fc565b60405180910390f35b61015560048036038101906101509190612975565b61041b565b005b610171600480360381019061016c9190612975565b6104b2565b60405161017e91906129f1565b60405180910390f35b6101a1600480360381019061019c9190612bbe565b6104e5565b6040516101ae9190612cc0565b60405180910390f35b6101bf610aba565b6040516101cc91906129f1565b60405180910390f35b6101ef60048036038101906101ea9190612975565b610b20565b6040516101fc91906128fc565b60405180910390f35b61020d610bb3565b60405161021a9190612d37565b60405180910390f35b600063a245bbda60e01b7bffffffffffffffffffffffffffffffffffffffffffffffffffffffff1916827bffffffffffffffffffffffffffffffffffffffffffffffffffffffff1916148061027d575061027c82610bec565b5b9050919050565b6000600160003373ffffffffffffffffffffffffffffffffffffffff1673ffffffffffffffffffffffffffffffffffffffff16815260200190815260200160002060008373ffffffffffffffffffffffffffffffffffffffff1673ffffffffffffffffffffffffffffffffffffffff16815260200190815260200160002060006101000a81548160ff02191690831515021790555050565b61032d816328af17e660e01b610c56565b61036c576040517f08c379a000000000000000000000000000000000000000000000000000000000815260040161036390612dcb565b60405180910390fd5b806000803373ffffffffffffffffffffffffffffffffffffffff1673ffffffffffffffffffffffffffffffffffffffff16815260200190815260200160002060006101000a81548173ffffffffffffffffffffffffffffffffffffffff021916908373ffffffffffffffffffffffffffffffffffffffff16021790555050565b60016020528160005260406000206020528060005260406000206000915091509054906101000a900460ff1681565b60018060003373ffffffffffffffffffffffffffffffffffffffff1673ffffffffffffffffffffffffffffffffffffffff16815260200190815260200160002060008373ffffffffffffffffffffffffffffffffffffffff1673ffffffffffffffffffffffffffffffffffffffff16815260200190815260200160002060006101000a81548160ff02191690831515021790555050565b60006020528060005260406000206000915054906101000a900473ffffffffffffffffffffffffffffffffffffffff1681565b6060600160003373ffffffffffffffffffffffffffffffffffffffff1673ffffffffffffffffffffffffffffffffffffffff16815260200190815260200160002060008673ffffffffffffffffffffffffffffffffffffffff1673ffffffffffffffffffffffffffffffffffffffff16815260200190815260200160002060009054906101000a900460ff16156105895761058285858585610c7b565b9050610ab2565b600073ffffffffffffffffffffffffffffffffffffffff166000803373ffffffffffffffffffffffffffffffffffffffff1673ffffffffffffffffffffffffffffffffffffffff16815260200190815260200160002060009054906101000a900473ffffffffffffffffffffffffffffffffffffffff1673ffffffffffffffffffffffffffffffffffffffff1603610656576040517f08c379a000000000000000000000000000000000000000000000000000000000815260040161064d90612e5d565b60405180910390fd5b610667336324871b3d60e01b610e2a565b61068b57604051806060016040528060278152602001613b93602791399050610ab2565b60008573ffffffffffffffffffffffffffffffffffffffff163b111561076d578473ffffffffffffffffffffffffffffffffffffffff166370a08231336040518263ffffffff1660e01b81526004016106e491906129f1565b602060405180830381865afa92505050801561071e57506040513d601f19601f8201168201806040525081019061071b9190612e92565b60015b610742576040518060600160405280603a8152602001613bba603a91399050610ab2565b6000810361076b57604051806060016040528060258152602001613b6e60259139915050610ab2565b505b7f20804611b3e2ea21c480dc465142210acf4a2485947541770ec1fb87dee4a55c60001b8303610906576000828060200190518101906107ad9190612f6d565b5093505050506000336000803373ffffffffffffffffffffffffffffffffffffffff1673ffffffffffffffffffffffffffffffffffffffff16815260200190815260200160002060009054906101000a900473ffffffffffffffffffffffffffffffffffffffff168360008760405160240161082d959493929190613013565b60405160208183030381529060405263760d9bba60e01b6020820180517bffffffffffffffffffffffffffffffffffffffffffffffffffffffff838183161783525050505090503373ffffffffffffffffffffffffffffffffffffffff166344c028fe6000896000856040518563ffffffff1660e01b81526004016108b594939291906130b2565b6000604051808303816000875af11580156108d4573d6000803e3d6000fd5b505050506040513d6000823e3d601f19601f820116820180604052508101906108fd91906130fe565b92505050610ab2565b7f0b084a55ebf70fd3c06fd755269dac2212c4d3f0f4d09079780bfa50c1b2984d60001b8303610a9f57600082806020019051810190610946919061315c565b5093505050506000336000803373ffffffffffffffffffffffffffffffffffffffff1673ffffffffffffffffffffffffffffffffffffffff16815260200190815260200160002060009054906101000a900473ffffffffffffffffffffffffffffffffffffffff16836000876040516024016109c6959493929190613202565b60405160208183030381529060405263511b695260e01b6020820180517bffffffffffffffffffffffffffffffffffffffffffffffffffffffff838183161783525050505090503373ffffffffffffffffffffffffffffffffffffffff166344c028fe6000896000856040518563ffffffff1660e01b8152600401610a4e94939291906130b2565b6000604051808303816000875af1158015610a6d573d6000803e3d6000fd5b505050506040513d6000823e3d601f19601f82011682018060405250810190610a9691906130fe565b92505050610ab2565b6040518060200160405280600081525090505b949350505050565b60008060003373ffffffffffffffffffffffffffffffffffffffff1673ffffffffffffffffffffffffffffffffffffffff16815260200190815260200160002060009054906101000a900473ffffffffffffffffffffffffffffffffffffffff16905090565b6000600160003373ffffffffffffffffffffffffffffffffffffffff1673ffffffffffffffffffffffffffffffffffffffff16815260200190815260200160002060008373ffffffffffffffffffffffffffffffffffffffff1673ffffffffffffffffffffffffffffffffffffffff16815260200190815260200160002060009054906101000a900460ff169050919050565b6040518060400160405280600681526020017f302e31342e30000000000000000000000000000000000000000000000000000081525081565b60007f01ffc9a7000000000000000000000000000000000000000000000000000000007bffffffffffffffffffffffffffffffffffffffffffffffffffffffff1916827bffffffffffffffffffffffffffffffffffffffffffffffffffffffff1916149050919050565b6000610c6183610ee9565b8015610c735750610c728383610e2a565b5b905092915050565b60607f429ac7a06903dbc9c13dfcb3c9d11df8194581fa047c96d7a4171fc7402958ea60001b8303610cb757610cb085610f36565b9050610e22565b7f20804611b3e2ea21c480dc465142210acf4a2485947541770ec1fb87dee4a55c60001b8303610cf957610cf28563b3c4928f60e01b6110e6565b9050610e22565b7fb23eae7e6d1564b295b4c3e3be402d9a2f0776c57bdf365903496f6fa481ab0060001b8303610d3357610d2c85610f36565b9050610e22565b7f0b084a55ebf70fd3c06fd755269dac2212c4d3f0f4d09079780bfa50c1b2984d60001b8303610d7557610d6e85633a27170660e01b6110e6565b9050610e22565b7f0c622e58e6b7089ae35f1af1c86d997be92fcdd8c9509652022d41aa6516947160001b8303610daf57610da8856112b8565b9050610e22565b7f79855c97dbc259ce395421d933d7bc0699b0f1561f988f09a9e8633fd542fe5c60001b8303610de957610de28561138a565b9050610e22565b6040518060400160405280601981526020017f4c5350313a20747970654964206f7574206f662073636f70650000000000000081525090505b949350505050565b6000806301ffc9a760e01b83604051602401610e46919061326b565b604051602081830303815290604052907bffffffffffffffffffffffffffffffffffffffffffffffffffffffff19166020820180517bffffffffffffffffffffffffffffffffffffffffffffffffffffffff838183161783525050505090506000806000602060008551602087018a617530fa92503d91506000519050828015610ed1575060208210155b8015610edd5750600081115b94505050505092915050565b6000610f15827f01ffc9a700000000000000000000000000000000000000000000000000000000610e2a565b8015610f2f5750610f2d8263ffffffff60e01b610e2a565b155b9050919050565b6060813273ffffffffffffffffffffffffffffffffffffffff168173ffffffffffffffffffffffffffffffffffffffff1603610fa957806040517fa5295345000000000000000000000000000000000000000000000000000000008152600401610fa091906129f1565b60405180910390fd5b8273ffffffffffffffffffffffffffffffffffffffff166370a08231336040518263ffffffff1660e01b8152600401610fe291906129f1565b602060405180830381865afa92505050801561101c57506040513d601f19601f820116820180604052508101906110199190612e92565b60015b611040576040518060600160405280602d8152602001613b41602d913991506110e0565b60008114611086576040518060400160405280601e81526020017f4c5350313a2066756c6c2062616c616e6365206973206e6f742073656e7400008152509250506110e0565b50600080611094338661145c565b91509150600082511480156110aa575060008151145b156110d1576040518060600160405280602b8152602001613aea602b9139935050506110e0565b6110db82826116d2565b935050505b50919050565b6060823273ffffffffffffffffffffffffffffffffffffffff168173ffffffffffffffffffffffffffffffffffffffff160361115957806040517fa529534500000000000000000000000000000000000000000000000000000000815260040161115091906129f1565b60405180910390fd5b60008473ffffffffffffffffffffffffffffffffffffffff163b14611257578373ffffffffffffffffffffffffffffffffffffffff166370a08231336040518263ffffffff1660e01b81526004016111b191906129f1565b602060405180830381865afa9250505080156111eb57506040513d601f19601f820116820180604052508101906111e89190612e92565b60015b61120f576040518060600160405280602d8152602001613b41602d913991506112b1565b60008103611255576040518060400160405280601581526020017f4c5350313a2062616c616e6365206973207a65726f00000000000000000000008152509250506112b1565b505b600080611265338787611792565b915091506000825114801561127b575060008151145b156112a2576040518060600160405280602b8152602001613aea602b9139935050506112b1565b6112ac82826116d2565b935050505b5092915050565b6060813273ffffffffffffffffffffffffffffffffffffffff168173ffffffffffffffffffffffffffffffffffffffff160361132b57806040517fa529534500000000000000000000000000000000000000000000000000000000815260040161132291906129f1565b60405180910390fd5b6000806113383386611b09565b915091506000825114801561134e575060008151145b15611375576040518060600160405280602c8152602001613b15602c913993505050611384565b61137f82826116d2565b935050505b50919050565b6060813273ffffffffffffffffffffffffffffffffffffffff168173ffffffffffffffffffffffffffffffffffffffff16036113fd57806040517fa52953450000000000000000000000000000000000000000000000000000000081526004016113f491906129f1565b60405180910390fd5b60008061140a3386611d8c565b9150915060008251148015611420575060008151145b15611447576040518060600160405280602c8152602001613b15602c913993505050611456565b61145182826116d2565b935050505b50919050565b6060806000849050600061146f82612109565b905061147a816121b4565b6114855750506116cb565b600060801b6fffffffffffffffffffffffffffffffff1916816114a7906132e4565b6fffffffffffffffffffffffffffffffff1916036114c65750506116cb565b60006001826114d4906132e4565b60801c6114e19190613396565b905060006114ff69812c4334633eb816c80d60b01b8860601b6121d2565b905060008473ffffffffffffffffffffffffffffffffffffffff166354f6127f836040518263ffffffff1660e01b815260040161153c91906133da565b600060405180830381865afa158015611559573d6000803e3d6000fd5b505050506040513d6000823e3d601f19601f8201168201806040525081019061158291906130fe565b905060148151146115975750505050506116cb565b60006020826115a590613436565b6bffffffffffffffffffffffff1916901b60801c905060006115ea7f6460ee3c0aac563ccbf76d6e1d07bada78e3a9514e6382b736ed3f478ab7b90b60001b83612212565b9050846fffffffffffffffffffffffffffffffff16826fffffffffffffffffffffffffffffffff1603611656576116467f6460ee3c0aac563ccbf76d6e1d07bada78e3a9514e6382b736ed3f478ab7b90b60001b86838761224f565b98509850505050505050506116cb565b846fffffffffffffffffffffffffffffffff16826fffffffffffffffffffffffffffffffff1610156116c3576116b3877f6460ee3c0aac563ccbf76d6e1d07bada78e3a9514e6382b736ed3f478ab7b90b60001b878486896123f8565b98509850505050505050506116cb565b505050505050505b9250929050565b60603373ffffffffffffffffffffffffffffffffffffffff16639790242184846040518363ffffffff1660e01b815260040161170f929190613667565b600060405180830381600087803b15801561172957600080fd5b505af192505050801561173a575060015b611779573d806000811461176a576040519150601f19603f3d011682016040523d82523d6000602084013e61176f565b606091505b508091505061178c565b6040518060200160405280600081525090505b92915050565b606080600085905060006117a582612109565b90506117b0816121b4565b6117f05760008151036117e857600060801b6040516020016117d291906136bf565b60405160208183030381529060405290506117ef565b5050611b01565b5b6000816117fc906132e4565b60801c90506fffffffffffffffffffffffffffffffff8016816fffffffffffffffffffffffffffffffff160361183457505050611b01565b600061185069812c4334633eb816c80d60b01b8960601b6121d2565b905060008473ffffffffffffffffffffffffffffffffffffffff166354f6127f836040518263ffffffff1660e01b815260040161188d91906133da565b600060405180830381865afa1580156118aa573d6000803e3d6000fd5b505050506040513d6000823e3d601f19601f820116820180604052508101906118d391906130fe565b51146118e25750505050611b01565b600367ffffffffffffffff8111156118fd576118fc612a93565b5b60405190808252806020026020018201604052801561192b5781602001602082028036833780820191505090505b509550600367ffffffffffffffff81111561194957611948612a93565b5b60405190808252806020026020018201604052801561197c57816020015b60608152602001906001900390816119675790505b5094507f6460ee3c0aac563ccbf76d6e1d07bada78e3a9514e6382b736ed3f478ab7b90b60001b866000815181106119b7576119b66136da565b5b6020026020010181815250506001826119d09190613709565b6040516020016119e09190613783565b60405160208183030381529060405285600081518110611a0357611a026136da565b5b6020026020010181905250611a3b7f6460ee3c0aac563ccbf76d6e1d07bada78e3a9514e6382b736ed3f478ab7b90b60001b83612212565b86600181518110611a4f57611a4e6136da565b5b60200260200101818152505087604051602001611a6c91906137e6565b60405160208183030381529060405285600181518110611a8f57611a8e6136da565b5b60200260200101819052508086600281518110611aaf57611aae6136da565b5b6020026020010181815250508683604051602001611ace92919061385e565b60405160208183030381529060405285600281518110611af157611af06136da565b5b6020026020010181905250505050505b935093915050565b60608060008490506000611b1c8261279d565b9050611b27816121b4565b611b32575050611d85565b600081511480611b745750600060801b6fffffffffffffffffffffffffffffffff191681611b5f906132e4565b6fffffffffffffffffffffffffffffffff1916145b15611b80575050611d85565b6000600182611b8e906132e4565b60801c611b9b9190613396565b90506000611bb969192448c3c0f88c7f238c60b01b8860601b6121d2565b905060008473ffffffffffffffffffffffffffffffffffffffff166354f6127f836040518263ffffffff1660e01b8152600401611bf691906133da565b600060405180830381865afa158015611c13573d6000803e3d6000fd5b505050506040513d6000823e3d601f19601f82011682018060405250810190611c3c91906130fe565b90506014815114611c51575050505050611d85565b6000602082611c5f90613436565b6bffffffffffffffffffffffff1916901b60801c90506000611ca47f55482936e01da86729a45d2b87a6b1d3bc582bea0ec00e38bdb340e3af6f9f0660001b83612212565b9050846fffffffffffffffffffffffffffffffff16826fffffffffffffffffffffffffffffffff1603611d1057611d007f55482936e01da86729a45d2b87a6b1d3bc582bea0ec00e38bdb340e3af6f9f0660001b86838761224f565b9850985050505050505050611d85565b846fffffffffffffffffffffffffffffffff16826fffffffffffffffffffffffffffffffff161015611d7d57611d6d877f55482936e01da86729a45d2b87a6b1d3bc582bea0ec00e38bdb340e3af6f9f0660001b878486896123f8565b9850985050505050505050611d85565b505050505050505b9250929050565b60608060008490506000611d9f8261279d565b9050611daa816121b4565b611dea576000815103611de257600060801b604051602001611dcc91906136bf565b6040516020818303038152906040529050611de9565b5050612102565b5b600081611df6906132e4565b60801c90506fffffffffffffffffffffffffffffffff8016816fffffffffffffffffffffffffffffffff1603611e2e57505050612102565b6000611e4a69192448c3c0f88c7f238c60b01b8860601b6121d2565b905060008473ffffffffffffffffffffffffffffffffffffffff166354f6127f836040518263ffffffff1660e01b8152600401611e8791906133da565b600060405180830381865afa158015611ea4573d6000803e3d6000fd5b505050506040513d6000823e3d601f19601f82011682018060405250810190611ecd91906130fe565b5114611edc5750505050612102565b600367ffffffffffffffff811115611ef757611ef6612a93565b5b604051908082528060200260200182016040528015611f255781602001602082028036833780820191505090505b509550600367ffffffffffffffff811115611f4357611f42612a93565b5b604051908082528060200260200182016040528015611f7657816020015b6060815260200190600190039081611f615790505b5094507f55482936e01da86729a45d2b87a6b1d3bc582bea0ec00e38bdb340e3af6f9f0660001b86600081518110611fb157611fb06136da565b5b602002602001018181525050600182611fca9190613709565b604051602001611fda9190613783565b60405160208183030381529060405285600081518110611ffd57611ffc6136da565b5b60200260200101819052506120357f55482936e01da86729a45d2b87a6b1d3bc582bea0ec00e38bdb340e3af6f9f0660001b83612212565b86600181518110612049576120486136da565b5b6020026020010181815250508660405160200161206691906137e6565b60405160208183030381529060405285600181518110612089576120886136da565b5b602002602001018190525080866002815181106120a9576120a86136da565b5b6020026020010181815250506328af17e660e01b836040516020016120cf92919061385e565b604051602081830303815290604052856002815181106120f2576120f16136da565b5b6020026020010181905250505050505b9250929050565b60608173ffffffffffffffffffffffffffffffffffffffff166354f6127f7f6460ee3c0aac563ccbf76d6e1d07bada78e3a9514e6382b736ed3f478ab7b90b60001b6040518263ffffffff1660e01b815260040161216791906133da565b600060405180830381865afa158015612184573d6000803e3d6000fd5b505050506040513d6000823e3d601f19601f820116820180604052508101906121ad91906130fe565b9050919050565b600060108251036121c857600190506121cd565b600090505b919050565b60008083600060f01b846040516020016121ee93929190613941565b60405160208183030381529060405290508061220990613993565b91505092915050565b600080838360801b60405160200161222b9291906139fa565b60405160208183030381529060405290508061224690613993565b91505092915050565b606080600367ffffffffffffffff81111561226d5761226c612a93565b5b60405190808252806020026020018201604052801561229b5781602001602082028036833780820191505090505b509150600367ffffffffffffffff8111156122b9576122b8612a93565b5b6040519080825280602002602001820160405280156122ec57816020015b60608152602001906001900390816122d75790505b5090508582600081518110612304576123036136da565b5b602002602001018181525050846040516020016123219190613783565b60405160208183030381529060405281600081518110612344576123436136da565b5b60200260200101819052508282600181518110612364576123636136da565b5b6020026020010181815250506040518060200160405280600081525081600181518110612394576123936136da565b5b602002602001018190525083826002815181106123b4576123b36136da565b5b60200260200101818152505060405180602001604052806000815250816002815181106123e4576123e36136da565b5b602002602001018190525094509492505050565b606080600567ffffffffffffffff81111561241657612415612a93565b5b6040519080825280602002602001820160405280156124445781602001602082028036833780820191505090505b509150600567ffffffffffffffff81111561246257612461612a93565b5b60405190808252806020026020018201604052801561249557816020015b60608152602001906001900390816124805790505b50905086826000815181106124ad576124ac6136da565b5b602002602001018181525050856040516020016124ca9190613783565b604051602081830303815290604052816000815181106124ed576124ec6136da565b5b6020026020010181905250828260018151811061250d5761250c6136da565b5b602002602001018181525050604051806020016040528060008152508160018151811061253d5761253c6136da565b5b602002602001018190525060006125548888612212565b905060008973ffffffffffffffffffffffffffffffffffffffff166354f6127f836040518263ffffffff1660e01b815260040161259191906133da565b600060405180830381865afa1580156125ae573d6000803e3d6000fd5b505050506040513d6000823e3d601f19601f820116820180604052508101906125d791906130fe565b6125e090613436565b905086846002815181106125f7576125f66136da565b5b602002602001018181525050806040516020016126149190613a26565b60405160208183030381529060405283600281518110612637576126366136da565b5b60200260200101819052508184600381518110612657576126566136da565b5b6020026020010181815250506040518060200160405280600081525083600381518110612687576126866136da565b5b6020026020010181905250600061269e86836121d2565b905060008b73ffffffffffffffffffffffffffffffffffffffff166354f6127f836040518263ffffffff1660e01b81526004016126db91906133da565b600060405180830381865afa1580156126f8573d6000803e3d6000fd5b505050506040513d6000823e3d601f19601f8201168201806040525081019061272191906130fe565b61272a90613a56565b8860405160200161273c929190613abd565b60405160208183030381529060405290508186600481518110612762576127616136da565b5b6020026020010181815250508085600481518110612783576127826136da565b5b602002602001018190525050505050965096945050505050565b60608173ffffffffffffffffffffffffffffffffffffffff166354f6127f7f55482936e01da86729a45d2b87a6b1d3bc582bea0ec00e38bdb340e3af6f9f0660001b6040518263ffffffff1660e01b81526004016127fb91906133da565b600060405180830381865afa158015612818573d6000803e3d6000fd5b505050506040513d6000823e3d601f19601f8201168201806040525081019061284191906130fe565b9050919050565b6000604051905090565b600080fd5b600080fd5b60007fffffffff0000000000000000000000000000000000000000000000000000000082169050919050565b6128918161285c565b811461289c57600080fd5b50565b6000813590506128ae81612888565b92915050565b6000602082840312156128ca576128c9612852565b5b60006128d88482850161289f565b91505092915050565b60008115159050919050565b6128f6816128e1565b82525050565b600060208201905061291160008301846128ed565b92915050565b600073ffffffffffffffffffffffffffffffffffffffff82169050919050565b600061294282612917565b9050919050565b61295281612937565b811461295d57600080fd5b50565b60008135905061296f81612949565b92915050565b60006020828403121561298b5761298a612852565b5b600061299984828501612960565b91505092915050565b600080604083850312156129b9576129b8612852565b5b60006129c785828601612960565b92505060206129d885828601612960565b9150509250929050565b6129eb81612937565b82525050565b6000602082019050612a0660008301846129e2565b92915050565b6000819050919050565b612a1f81612a0c565b8114612a2a57600080fd5b50565b600081359050612a3c81612a16565b92915050565b6000819050919050565b612a5581612a42565b8114612a6057600080fd5b50565b600081359050612a7281612a4c565b92915050565b600080fd5b600080fd5b6000601f19601f8301169050919050565b7f4e487b7100000000000000000000000000000000000000000000000000000000600052604160045260246000fd5b612acb82612a82565b810181811067ffffffffffffffff82111715612aea57612ae9612a93565b5b80604052505050565b6000612afd612848565b9050612b098282612ac2565b919050565b600067ffffffffffffffff821115612b2957612b28612a93565b5b612b3282612a82565b9050602081019050919050565b82818337600083830152505050565b6000612b61612b5c84612b0e565b612af3565b905082815260208101848484011115612b7d57612b7c612a7d565b5b612b88848285612b3f565b509392505050565b600082601f830112612ba557612ba4612a78565b5b8135612bb5848260208601612b4e565b91505092915050565b60008060008060808587031215612bd857612bd7612852565b5b6000612be687828801612960565b9450506020612bf787828801612a2d565b9350506040612c0887828801612a63565b925050606085013567ffffffffffffffff811115612c2957612c28612857565b5b612c3587828801612b90565b91505092959194509250565b600081519050919050565b600082825260208201905092915050565b60005b83811015612c7b578082015181840152602081019050612c60565b60008484015250505050565b6000612c9282612c41565b612c9c8185612c4c565b9350612cac818560208601612c5d565b612cb581612a82565b840191505092915050565b60006020820190508181036000830152612cda8184612c87565b905092915050565b600081519050919050565b600082825260208201905092915050565b6000612d0982612ce2565b612d138185612ced565b9350612d23818560208601612c5d565b612d2c81612a82565b840191505092915050565b60006020820190508181036000830152612d518184612cfe565b905092915050565b7f50726f7669646564206164647265737320646f6573206e6f7420696d706c656d60008201527f656e74204c5350395661756c7420696e74657266616365000000000000000000602082015250565b6000612db5603783612ced565b9150612dc082612d59565b604082019050919050565b60006020820190508181036000830152612de481612da8565b9050919050565b7f4c5350314772617665466f7277616465723a2075736572207661756c74206e6f60008201527f7420736574000000000000000000000000000000000000000000000000000000602082015250565b6000612e47602583612ced565b9150612e5282612deb565b604082019050919050565b60006020820190508181036000830152612e7681612e3a565b9050919050565b600081519050612e8c81612a16565b92915050565b600060208284031215612ea857612ea7612852565b5b6000612eb684828501612e7d565b91505092915050565b6000612eca82612917565b9050919050565b612eda81612ebf565b8114612ee557600080fd5b50565b600081519050612ef781612ed1565b92915050565b6000612f10612f0b84612b0e565b612af3565b905082815260208101848484011115612f2c57612f2b612a7d565b5b612f37848285612c5d565b509392505050565b600082601f830112612f5457612f53612a78565b5b8151612f64848260208601612efd565b91505092915050565b600080600080600060a08688031215612f8957612f88612852565b5b6000612f9788828901612ee8565b9550506020612fa888828901612ee8565b9450506040612fb988828901612ee8565b9350506060612fca88828901612e7d565b925050608086015167ffffffffffffffff811115612feb57612fea612857565b5b612ff788828901612f3f565b9150509295509295909350565b61300d81612a0c565b82525050565b600060a08201905061302860008301886129e2565b61303560208301876129e2565b6130426040830186613004565b61304f60608301856128ed565b81810360808301526130618184612c87565b90509695505050505050565b6000819050919050565b6000819050919050565b600061309c6130976130928461306d565b613077565b612a0c565b9050919050565b6130ac81613081565b82525050565b60006080820190506130c760008301876130a3565b6130d460208301866129e2565b6130e160408301856130a3565b81810360608301526130f38184612c87565b905095945050505050565b60006020828403121561311457613113612852565b5b600082015167ffffffffffffffff81111561313257613131612857565b5b61313e84828501612f3f565b91505092915050565b60008151905061315681612a4c565b92915050565b600080600080600060a0868803121561317857613177612852565b5b600061318688828901612ee8565b955050602061319788828901612ee8565b94505060406131a888828901612ee8565b93505060606131b988828901613147565b925050608086015167ffffffffffffffff8111156131da576131d9612857565b5b6131e688828901612f3f565b9150509295509295909350565b6131fc81612a42565b82525050565b600060a08201905061321760008301886129e2565b61322460208301876129e2565b61323160408301866131f3565b61323e60608301856128ed565b81810360808301526132508184612c87565b90509695505050505050565b6132658161285c565b82525050565b6000602082019050613280600083018461325c565b92915050565b6000819050602082019050919050565b60007fffffffffffffffffffffffffffffffff0000000000000000000000000000000082169050919050565b60006132ce8251613296565b80915050919050565b600082821b905092915050565b60006132ef82612c41565b826132f984613286565b9050613304816132c2565b925060108210156133445761333f7fffffffffffffffffffffffffffffffff00000000000000000000000000000000836010036008026132d7565b831692505b5050919050565b60006fffffffffffffffffffffffffffffffff82169050919050565b7f4e487b7100000000000000000000000000000000000000000000000000000000600052601160045260246000fd5b60006133a18261334b565b91506133ac8361334b565b925082820390506fffffffffffffffffffffffffffffffff8111156133d4576133d3613367565b5b92915050565b60006020820190506133ef60008301846131f3565b92915050565b60007fffffffffffffffffffffffffffffffffffffffff00000000000000000000000082169050919050565b600061342d82516133f5565b80915050919050565b600061344182612c41565b8261344b84613286565b905061345681613421565b92506014821015613496576134917fffffffffffffffffffffffffffffffffffffffff000000000000000000000000836014036008026132d7565b831692505b5050919050565b600081519050919050565b600082825260208201905092915050565b6000819050602082019050919050565b6134d281612a42565b82525050565b60006134e483836134c9565b60208301905092915050565b6000602082019050919050565b60006135088261349d565b61351281856134a8565b935061351d836134b9565b8060005b8381101561354e57815161353588826134d8565b9750613540836134f0565b925050600181019050613521565b5085935050505092915050565b600081519050919050565b600082825260208201905092915050565b6000819050602082019050919050565b600082825260208201905092915050565b60006135a382612c41565b6135ad8185613587565b93506135bd818560208601612c5d565b6135c681612a82565b840191505092915050565b60006135dd8383613598565b905092915050565b6000602082019050919050565b60006135fd8261355b565b6136078185613566565b93508360208202850161361985613577565b8060005b85811015613655578484038952815161363685826135d1565b9450613641836135e5565b925060208a0199505060018101905061361d565b50829750879550505050505092915050565b6000604082019050818103600083015261368181856134fd565b9050818103602083015261369581846135f2565b90509392505050565b6000819050919050565b6136b96136b482613296565b61369e565b82525050565b60006136cb82846136a8565b60108201915081905092915050565b7f4e487b7100000000000000000000000000000000000000000000000000000000600052603260045260246000fd5b60006137148261334b565b915061371f8361334b565b925082820190506fffffffffffffffffffffffffffffffff81111561374757613746613367565b5b92915050565b60008160801b9050919050565b60006137658261374d565b9050919050565b61377d6137788261334b565b61375a565b82525050565b600061378f828461376c565b60108201915081905092915050565b60008160601b9050919050565b60006137b68261379e565b9050919050565b60006137c8826137ab565b9050919050565b6137e06137db82612937565b6137bd565b82525050565b60006137f282846137cf565b60148201915081905092915050565b6000819050919050565b61381c6138178261285c565b613801565b82525050565b600081905092915050565b600061383882612c41565b6138428185613822565b9350613852818560208601612c5d565b80840191505092915050565b600061386a828561380b565b60048201915061387a828461382d565b91508190509392505050565b60007fffffffffffffffffffff0000000000000000000000000000000000000000000082169050919050565b6000819050919050565b6138cd6138c882613886565b6138b2565b82525050565b60007fffff00000000000000000000000000000000000000000000000000000000000082169050919050565b6000819050919050565b61391a613915826138d3565b6138ff565b82525050565b6000819050919050565b61393b613936826133f5565b613920565b82525050565b600061394d82866138bc565b600a8201915061395d8285613909565b60028201915061396d828461392a565b601482019150819050949350505050565b600061398a8251612a42565b80915050919050565b600061399e82612c41565b826139a884613286565b90506139b38161397e565b925060208210156139f3576139ee7fffffffffffffffffffffffffffffffffffffffffffffffffffffffffffffffff836020036008026132d7565b831692505b5050919050565b6000613a0682856136a8565b601082019150613a1682846136a8565b6010820191508190509392505050565b6000613a32828461392a565b60148201915081905092915050565b6000613a4d825161285c565b80915050919050565b6000613a6182612c41565b82613a6b84613286565b9050613a7681613a41565b92506004821015613ab657613ab17fffffffff00000000000000000000000000000000000000000000000000000000836004036008026132d7565b831692505b5050919050565b6000613ac9828561380b565b600482019150613ad9828461376c565b601082019150819050939250505056fe4c5350353a204572726f722067656e65726174696e672064617461206b65792f76616c75652070616972734c535031303a204572726f722067656e65726174696e672064617461206b65792f76616c75652070616972734c5350313a206062616c616e63654f66286164647265737329602066756e6374696f6e206e6f7420666f756e644c5350314772617665466f7277616465723a2055502062616c616e6365206973207a65726f4c5350314772617665466f7277616465723a2063616c6c6572206973206e6f742061204c5350304c5350314772617665466f7277616465723a206062616c616e63654f66286164647265737329602066756e6374696f6e206e6f7420666f756e64a2646970667358221220f3ed89b60541c18b2306b18efdccea5a8bcfd814190f9c846a5b9007e3de2e9364736f6c63430008110033",
  "linkReferences": {},
  "deployedLinkReferences": {}
}