{
  "_format": "hh-sol-artifact-1",
  "contractName": "LSP1GraveForwader",
  "sourceName": "contracts/LSP1GraveForwarder.sol",
  "abi": [
    {
      "inputs": [
        {
          "internalType": "address",
          "name": "caller",
          "type": "address"
        }
      ],
      "name": "CannotRegisterEOAsAsAssets",
      "type": "error"
    },
    {
      "anonymous": false,
      "inputs": [
        {
          "indexed": true,
          "internalType": "address",
          "name": "newVaultAddress",
          "type": "address"
        }
      ],
      "name": "VaultCreated",
      "type": "event"
    },
    {
      "inputs": [],
      "name": "LSP1UniversalReceiverDelegate_KEY",
      "outputs": [
        {
          "internalType": "bytes32",
          "name": "",
          "type": "bytes32"
        }
      ],
      "stateMutability": "view",
      "type": "function"
    },
    {
      "inputs": [],
      "name": "LSP1_URD_VAULT_TESTNET",
      "outputs": [
        {
          "internalType": "bytes",
          "name": "",
          "type": "bytes"
        }
      ],
      "stateMutability": "view",
      "type": "function"
    },
    {
      "inputs": [],
      "name": "VERSION",
      "outputs": [
        {
          "internalType": "string",
          "name": "",
          "type": "string"
        }
      ],
      "stateMutability": "view",
      "type": "function"
    },
    {
      "inputs": [
        {
          "internalType": "address",
          "name": "token",
          "type": "address"
        }
      ],
      "name": "addTokenToAllowlist",
      "outputs": [],
      "stateMutability": "nonpayable",
      "type": "function"
    },
    {
      "inputs": [
        {
          "internalType": "address",
          "name": "token",
          "type": "address"
        }
      ],
      "name": "getAddressStatus",
      "outputs": [
        {
          "internalType": "bool",
          "name": "",
          "type": "bool"
        }
      ],
      "stateMutability": "view",
      "type": "function"
    },
    {
      "inputs": [],
      "name": "getGrave",
      "outputs": [
        {
          "internalType": "address",
          "name": "",
          "type": "address"
        }
      ],
      "stateMutability": "view",
      "type": "function"
    },
    {
      "inputs": [
        {
          "internalType": "address",
          "name": "",
          "type": "address"
        }
      ],
      "name": "graveVaults",
      "outputs": [
        {
          "internalType": "address",
          "name": "",
          "type": "address"
        }
      ],
      "stateMutability": "view",
      "type": "function"
    },
    {
      "inputs": [],
      "name": "joinGrave",
      "outputs": [
        {
          "internalType": "address",
          "name": "",
          "type": "address"
        }
      ],
      "stateMutability": "nonpayable",
      "type": "function"
    },
    {
      "inputs": [
        {
          "internalType": "address",
          "name": "token",
          "type": "address"
        }
      ],
      "name": "removeTokenFromAllowlist",
      "outputs": [],
      "stateMutability": "nonpayable",
      "type": "function"
    },
    {
      "inputs": [
        {
          "internalType": "address",
          "name": "grave",
          "type": "address"
        }
      ],
      "name": "setGrave",
      "outputs": [],
      "stateMutability": "nonpayable",
      "type": "function"
    },
    {
      "inputs": [
        {
          "internalType": "bytes4",
          "name": "interfaceId",
          "type": "bytes4"
        }
      ],
      "name": "supportsInterface",
      "outputs": [
        {
          "internalType": "bool",
          "name": "",
          "type": "bool"
        }
      ],
      "stateMutability": "view",
      "type": "function"
    },
    {
      "inputs": [
        {
          "internalType": "address",
          "name": "",
          "type": "address"
        },
        {
          "internalType": "address",
          "name": "",
          "type": "address"
        }
      ],
      "name": "tokenAllowlist",
      "outputs": [
        {
          "internalType": "bool",
          "name": "",
          "type": "bool"
        }
      ],
      "stateMutability": "view",
      "type": "function"
    },
    {
      "inputs": [
        {
          "internalType": "address",
          "name": "notifier",
          "type": "address"
        },
        {
          "internalType": "uint256",
          "name": "value",
          "type": "uint256"
        },
        {
          "internalType": "bytes32",
          "name": "typeId",
          "type": "bytes32"
        },
        {
          "internalType": "bytes",
          "name": "data",
          "type": "bytes"
        }
      ],
      "name": "universalReceiverDelegate",
      "outputs": [
        {
          "internalType": "bytes",
          "name": "",
          "type": "bytes"
        }
      ],
      "stateMutability": "nonpayable",
      "type": "function"
    },
    {
      "inputs": [],
      "name": "vaultFactoryAddress",
      "outputs": [
        {
          "internalType": "address",
          "name": "",
          "type": "address"
        }
      ],
      "stateMutability": "view",
      "type": "function"
    }
  ],
  "bytecode": "0x608060405273121828ece3cc0f8cd30fe612fae12a72a9595943600260006101000a81548173ffffffffffffffffffffffffffffffffffffffff021916908373ffffffffffffffffffffffffffffffffffffffff16021790555073bc7b3980614215c8090df310661685cc393b601a6040516020016200008091906200015f565b604051602081830303815290604052600390816200009f9190620003f6565b507f0cfc51aec37c55a4d0b1a65c6255c4bf2fbdf6277f3cc0730c45b828b6db8b4760001b600455348015620000d457600080fd5b50620004dd565b600073ffffffffffffffffffffffffffffffffffffffff82169050919050565b60006200010882620000db565b9050919050565b60008160601b9050919050565b600062000129826200010f565b9050919050565b60006200013d826200011c565b9050919050565b620001596200015382620000fb565b62000130565b82525050565b60006200016d828462000144565b60148201915081905092915050565b600081519050919050565b7f4e487b7100000000000000000000000000000000000000000000000000000000600052604160045260246000fd5b7f4e487b7100000000000000000000000000000000000000000000000000000000600052602260045260246000fd5b60006002820490506001821680620001fe57607f821691505b602082108103620002145762000213620001b6565b5b50919050565b60008190508160005260206000209050919050565b60006020601f8301049050919050565b600082821b905092915050565b6000600883026200027e7fffffffffffffffffffffffffffffffffffffffffffffffffffffffffffffffff826200023f565b6200028a86836200023f565b95508019841693508086168417925050509392505050565b6000819050919050565b6000819050919050565b6000620002d7620002d1620002cb84620002a2565b620002ac565b620002a2565b9050919050565b6000819050919050565b620002f383620002b6565b6200030b6200030282620002de565b8484546200024c565b825550505050565b600090565b6200032262000313565b6200032f818484620002e8565b505050565b5b8181101562000357576200034b60008262000318565b60018101905062000335565b5050565b601f821115620003a65762000370816200021a565b6200037b846200022f565b810160208510156200038b578190505b620003a36200039a856200022f565b83018262000334565b50505b505050565b600082821c905092915050565b6000620003cb60001984600802620003ab565b1980831691505092915050565b6000620003e68383620003b8565b9150826002028217905092915050565b62000401826200017c565b67ffffffffffffffff8111156200041d576200041c62000187565b5b620004298254620001e5565b620004368282856200035b565b600060209050601f8311600181146200046e576000841562000459578287015190505b620004658582620003d8565b865550620004d5565b601f1984166200047e866200021a565b60005b82811015620004a85784890151825560018201915060208501945060208101905062000481565b86831015620004c85784890151620004c4601f891682620003b8565b8355505b6001600288020188555050505b505050505050565b6140e980620004ed6000396000f3fe608060405234801561001057600080fd5b50600436106100ea5760003560e01c80639c70e2271161008c578063ac0d987c11610066578063ac0d987c1461025d578063d61f7ea31461027b578063e226a1b614610299578063ffa1ad74146102c9576100ea565b80639c70e227146101f1578063a245bbda1461020f578063a9114b6a1461023f576100ea565b80633841ddf8116100c85780633841ddf814610157578063420897911461018757806359ff6d3b146101a5578063623c2515146101c1576100ea565b806301ffc9a7146100ef5780631957fba41461011f5780632ad722e21461013b575b600080fd5b61010960048036038101906101049190612cb1565b6102e7565b6040516101169190612cf9565b60405180910390f35b61013960048036038101906101349190612d72565b610348565b005b61015560048036038101906101509190612d72565b6103e0565b005b610171600480360381019061016c9190612d9f565b610460565b60405161017e9190612cf9565b60405180910390f35b61018f61048f565b60405161019c9190612dee565b60405180910390f35b6101bf60048036038101906101ba9190612d72565b6104b5565b005b6101db60048036038101906101d69190612d72565b61054c565b6040516101e89190612dee565b60405180910390f35b6101f961057f565b6040516102069190612dee565b60405180910390f35b61022960048036038101906102249190612fbb565b610780565b60405161023691906130bd565b60405180910390f35b610247610d55565b60405161025491906130ee565b60405180910390f35b610265610d5b565b6040516102729190612dee565b60405180910390f35b610283610dc1565b60405161029091906130bd565b60405180910390f35b6102b360048036038101906102ae9190612d72565b610e4f565b6040516102c09190612cf9565b60405180910390f35b6102d1610ee2565b6040516102de919061315e565b60405180910390f35b600063a245bbda60e01b7bffffffffffffffffffffffffffffffffffffffffffffffffffffffff1916827bffffffffffffffffffffffffffffffffffffffffffffffffffffffff19161480610341575061034082610f1b565b5b9050919050565b6000600160003373ffffffffffffffffffffffffffffffffffffffff1673ffffffffffffffffffffffffffffffffffffffff16815260200190815260200160002060008373ffffffffffffffffffffffffffffffffffffffff1673ffffffffffffffffffffffffffffffffffffffff16815260200190815260200160002060006101000a81548160ff02191690831515021790555050565b806000803373ffffffffffffffffffffffffffffffffffffffff1673ffffffffffffffffffffffffffffffffffffffff16815260200190815260200160002060006101000a81548173ffffffffffffffffffffffffffffffffffffffff021916908373ffffffffffffffffffffffffffffffffffffffff16021790555050565b60016020528160005260406000206020528060005260406000206000915091509054906101000a900460ff1681565b600260009054906101000a900473ffffffffffffffffffffffffffffffffffffffff1681565b60018060003373ffffffffffffffffffffffffffffffffffffffff1673ffffffffffffffffffffffffffffffffffffffff16815260200190815260200160002060008373ffffffffffffffffffffffffffffffffffffffff1673ffffffffffffffffffffffffffffffffffffffff16815260200190815260200160002060006101000a81548160ff02191690831515021790555050565b60006020528060005260406000206000915054906101000a900473ffffffffffffffffffffffffffffffffffffffff1681565b600080600260009054906101000a900473ffffffffffffffffffffffffffffffffffffffff1673ffffffffffffffffffffffffffffffffffffffff16631df94eb4336040518263ffffffff1660e01b81526004016105dd9190612dee565b6020604051808303816000875af11580156105fc573d6000803e3d6000fd5b505050506040513d601f19601f820116820180604052508101906106209190613195565b9050806000803373ffffffffffffffffffffffffffffffffffffffff1673ffffffffffffffffffffffffffffffffffffffff16815260200190815260200160002060006101000a81548173ffffffffffffffffffffffffffffffffffffffff021916908373ffffffffffffffffffffffffffffffffffffffff16021790555061073681600454600380546106b3906131f1565b80601f01602080910402602001604051908101604052809291908181526020018280546106df906131f1565b801561072c5780601f106107015761010080835404028352916020019161072c565b820191906000526020600020905b81548152906001019060200180831161070f57829003601f168201915b5050505050610f85565b8073ffffffffffffffffffffffffffffffffffffffff167f2e49a5810fda2439a23771848b4acec786b0a64d4de3d124ac57fc8739c3887560405160405180910390a28091505090565b6060600160003373ffffffffffffffffffffffffffffffffffffffff1673ffffffffffffffffffffffffffffffffffffffff16815260200190815260200160002060008673ffffffffffffffffffffffffffffffffffffffff1673ffffffffffffffffffffffffffffffffffffffff16815260200190815260200160002060009054906101000a900460ff16156108245761081d858585856110c5565b9050610d4d565b600073ffffffffffffffffffffffffffffffffffffffff166000803373ffffffffffffffffffffffffffffffffffffffff1673ffffffffffffffffffffffffffffffffffffffff16815260200190815260200160002060009054906101000a900473ffffffffffffffffffffffffffffffffffffffff1673ffffffffffffffffffffffffffffffffffffffff16036108f1576040517f08c379a00000000000000000000000000000000000000000000000000000000081526004016108e890613294565b60405180910390fd5b610902336324871b3d60e01b611274565b61092657604051806060016040528060278152602001614053602791399050610d4d565b60008573ffffffffffffffffffffffffffffffffffffffff163b1115610a08578473ffffffffffffffffffffffffffffffffffffffff166370a08231336040518263ffffffff1660e01b815260040161097f9190612dee565b602060405180830381865afa9250505080156109b957506040513d601f19601f820116820180604052508101906109b691906132c9565b60015b6109dd576040518060600160405280603a815260200161407a603a91399050610d4d565b60008103610a065760405180606001604052806025815260200161402e60259139915050610d4d565b505b7f20804611b3e2ea21c480dc465142210acf4a2485947541770ec1fb87dee4a55c60001b8303610ba157600082806020019051810190610a4891906133a4565b5093505050506000336000803373ffffffffffffffffffffffffffffffffffffffff1673ffffffffffffffffffffffffffffffffffffffff16815260200190815260200160002060009054906101000a900473ffffffffffffffffffffffffffffffffffffffff1683600087604051602401610ac895949392919061344a565b60405160208183030381529060405263760d9bba60e01b6020820180517bffffffffffffffffffffffffffffffffffffffffffffffffffffffff838183161783525050505090503373ffffffffffffffffffffffffffffffffffffffff166344c028fe6000896000856040518563ffffffff1660e01b8152600401610b5094939291906134e9565b6000604051808303816000875af1158015610b6f573d6000803e3d6000fd5b505050506040513d6000823e3d601f19601f82011682018060405250810190610b989190613535565b92505050610d4d565b7f0b084a55ebf70fd3c06fd755269dac2212c4d3f0f4d09079780bfa50c1b2984d60001b8303610d3a57600082806020019051810190610be19190613593565b5093505050506000336000803373ffffffffffffffffffffffffffffffffffffffff1673ffffffffffffffffffffffffffffffffffffffff16815260200190815260200160002060009054906101000a900473ffffffffffffffffffffffffffffffffffffffff1683600087604051602401610c6195949392919061362a565b60405160208183030381529060405263511b695260e01b6020820180517bffffffffffffffffffffffffffffffffffffffffffffffffffffffff838183161783525050505090503373ffffffffffffffffffffffffffffffffffffffff166344c028fe6000896000856040518563ffffffff1660e01b8152600401610ce994939291906134e9565b6000604051808303816000875af1158015610d08573d6000803e3d6000fd5b505050506040513d6000823e3d601f19601f82011682018060405250810190610d319190613535565b92505050610d4d565b6040518060200160405280600081525090505b949350505050565b60045481565b60008060003373ffffffffffffffffffffffffffffffffffffffff1673ffffffffffffffffffffffffffffffffffffffff16815260200190815260200160002060009054906101000a900473ffffffffffffffffffffffffffffffffffffffff16905090565b60038054610dce906131f1565b80601f0160208091040260200160405190810160405280929190818152602001828054610dfa906131f1565b8015610e475780601f10610e1c57610100808354040283529160200191610e47565b820191906000526020600020905b815481529060010190602001808311610e2a57829003601f168201915b505050505081565b6000600160003373ffffffffffffffffffffffffffffffffffffffff1673ffffffffffffffffffffffffffffffffffffffff16815260200190815260200160002060008373ffffffffffffffffffffffffffffffffffffffff1673ffffffffffffffffffffffffffffffffffffffff16815260200190815260200160002060009054906101000a900460ff169050919050565b6040518060400160405280600681526020017f302e31342e30000000000000000000000000000000000000000000000000000081525081565b60007f01ffc9a7000000000000000000000000000000000000000000000000000000007bffffffffffffffffffffffffffffffffffffffffffffffffffffffff1916827bffffffffffffffffffffffffffffffffffffffffffffffffffffffff1916149050919050565b60008373ffffffffffffffffffffffffffffffffffffffff168383604051602401610fb1929190613684565b6040516020818303038152906040527f7f23690c000000000000000000000000000000000000000000000000000000007bffffffffffffffffffffffffffffffffffffffffffffffffffffffff19166020820180517bffffffffffffffffffffffffffffffffffffffffffffffffffffffff838183161783525050505060405161103b91906136f0565b600060405180830381855af49150503d8060008114611076576040519150601f19603f3d011682016040523d82523d6000602084013e61107b565b606091505b50509050806110bf576040517f08c379a00000000000000000000000000000000000000000000000000000000081526004016110b690613753565b60405180910390fd5b50505050565b60607f429ac7a06903dbc9c13dfcb3c9d11df8194581fa047c96d7a4171fc7402958ea60001b8303611101576110fa85611333565b905061126c565b7f20804611b3e2ea21c480dc465142210acf4a2485947541770ec1fb87dee4a55c60001b83036111435761113c8563b3c4928f60e01b6114e3565b905061126c565b7fb23eae7e6d1564b295b4c3e3be402d9a2f0776c57bdf365903496f6fa481ab0060001b830361117d5761117685611333565b905061126c565b7f0b084a55ebf70fd3c06fd755269dac2212c4d3f0f4d09079780bfa50c1b2984d60001b83036111bf576111b885633a27170660e01b6114e3565b905061126c565b7f0c622e58e6b7089ae35f1af1c86d997be92fcdd8c9509652022d41aa6516947160001b83036111f9576111f2856116b5565b905061126c565b7f79855c97dbc259ce395421d933d7bc0699b0f1561f988f09a9e8633fd542fe5c60001b83036112335761122c85611787565b905061126c565b6040518060400160405280601981526020017f4c5350313a20747970654964206f7574206f662073636f70650000000000000081525090505b949350505050565b6000806301ffc9a760e01b836040516024016112909190613782565b604051602081830303815290604052907bffffffffffffffffffffffffffffffffffffffffffffffffffffffff19166020820180517bffffffffffffffffffffffffffffffffffffffffffffffffffffffff838183161783525050505090506000806000602060008551602087018a617530fa92503d9150600051905082801561131b575060208210155b80156113275750600081115b94505050505092915050565b6060813273ffffffffffffffffffffffffffffffffffffffff168173ffffffffffffffffffffffffffffffffffffffff16036113a657806040517fa529534500000000000000000000000000000000000000000000000000000000815260040161139d9190612dee565b60405180910390fd5b8273ffffffffffffffffffffffffffffffffffffffff166370a08231336040518263ffffffff1660e01b81526004016113df9190612dee565b602060405180830381865afa92505050801561141957506040513d601f19601f8201168201806040525081019061141691906132c9565b60015b61143d576040518060600160405280602d8152602001614001602d913991506114dd565b60008114611483576040518060400160405280601e81526020017f4c5350313a2066756c6c2062616c616e6365206973206e6f742073656e7400008152509250506114dd565b506000806114913386611859565b91509150600082511480156114a7575060008151145b156114ce576040518060600160405280602b8152602001613faa602b9139935050506114dd565b6114d88282611acf565b935050505b50919050565b6060823273ffffffffffffffffffffffffffffffffffffffff168173ffffffffffffffffffffffffffffffffffffffff160361155657806040517fa529534500000000000000000000000000000000000000000000000000000000815260040161154d9190612dee565b60405180910390fd5b60008473ffffffffffffffffffffffffffffffffffffffff163b14611654578373ffffffffffffffffffffffffffffffffffffffff166370a08231336040518263ffffffff1660e01b81526004016115ae9190612dee565b602060405180830381865afa9250505080156115e857506040513d601f19601f820116820180604052508101906115e591906132c9565b60015b61160c576040518060600160405280602d8152602001614001602d913991506116ae565b60008103611652576040518060400160405280601581526020017f4c5350313a2062616c616e6365206973207a65726f00000000000000000000008152509250506116ae565b505b600080611662338787611b8f565b9150915060008251148015611678575060008151145b1561169f576040518060600160405280602b8152602001613faa602b9139935050506116ae565b6116a98282611acf565b935050505b5092915050565b6060813273ffffffffffffffffffffffffffffffffffffffff168173ffffffffffffffffffffffffffffffffffffffff160361172857806040517fa529534500000000000000000000000000000000000000000000000000000000815260040161171f9190612dee565b60405180910390fd5b6000806117353386611f06565b915091506000825114801561174b575060008151145b15611772576040518060600160405280602c8152602001613fd5602c913993505050611781565b61177c8282611acf565b935050505b50919050565b6060813273ffffffffffffffffffffffffffffffffffffffff168173ffffffffffffffffffffffffffffffffffffffff16036117fa57806040517fa52953450000000000000000000000000000000000000000000000000000000081526004016117f19190612dee565b60405180910390fd5b6000806118073386612189565b915091506000825114801561181d575060008151145b15611844576040518060600160405280602c8152602001613fd5602c913993505050611853565b61184e8282611acf565b935050505b50919050565b6060806000849050600061186c82612506565b9050611877816125b1565b611882575050611ac8565b600060801b6fffffffffffffffffffffffffffffffff1916816118a4906137fb565b6fffffffffffffffffffffffffffffffff1916036118c3575050611ac8565b60006001826118d1906137fb565b60801c6118de91906138ad565b905060006118fc69812c4334633eb816c80d60b01b8860601b6125cf565b905060008473ffffffffffffffffffffffffffffffffffffffff166354f6127f836040518263ffffffff1660e01b815260040161193991906130ee565b600060405180830381865afa158015611956573d6000803e3d6000fd5b505050506040513d6000823e3d601f19601f8201168201806040525081019061197f9190613535565b90506014815114611994575050505050611ac8565b60006020826119a290613932565b6bffffffffffffffffffffffff1916901b60801c905060006119e77f6460ee3c0aac563ccbf76d6e1d07bada78e3a9514e6382b736ed3f478ab7b90b60001b8361260f565b9050846fffffffffffffffffffffffffffffffff16826fffffffffffffffffffffffffffffffff1603611a5357611a437f6460ee3c0aac563ccbf76d6e1d07bada78e3a9514e6382b736ed3f478ab7b90b60001b86838761264c565b9850985050505050505050611ac8565b846fffffffffffffffffffffffffffffffff16826fffffffffffffffffffffffffffffffff161015611ac057611ab0877f6460ee3c0aac563ccbf76d6e1d07bada78e3a9514e6382b736ed3f478ab7b90b60001b878486896127f5565b9850985050505050505050611ac8565b505050505050505b9250929050565b60603373ffffffffffffffffffffffffffffffffffffffff16639790242184846040518363ffffffff1660e01b8152600401611b0c929190613b63565b600060405180830381600087803b158015611b2657600080fd5b505af1925050508015611b37575060015b611b76573d8060008114611b67576040519150601f19603f3d011682016040523d82523d6000602084013e611b6c565b606091505b5080915050611b89565b6040518060200160405280600081525090505b92915050565b60608060008590506000611ba282612506565b9050611bad816125b1565b611bed576000815103611be557600060801b604051602001611bcf9190613bbb565b6040516020818303038152906040529050611bec565b5050611efe565b5b600081611bf9906137fb565b60801c90506fffffffffffffffffffffffffffffffff8016816fffffffffffffffffffffffffffffffff1603611c3157505050611efe565b6000611c4d69812c4334633eb816c80d60b01b8960601b6125cf565b905060008473ffffffffffffffffffffffffffffffffffffffff166354f6127f836040518263ffffffff1660e01b8152600401611c8a91906130ee565b600060405180830381865afa158015611ca7573d6000803e3d6000fd5b505050506040513d6000823e3d601f19601f82011682018060405250810190611cd09190613535565b5114611cdf5750505050611efe565b600367ffffffffffffffff811115611cfa57611cf9612e90565b5b604051908082528060200260200182016040528015611d285781602001602082028036833780820191505090505b509550600367ffffffffffffffff811115611d4657611d45612e90565b5b604051908082528060200260200182016040528015611d7957816020015b6060815260200190600190039081611d645790505b5094507f6460ee3c0aac563ccbf76d6e1d07bada78e3a9514e6382b736ed3f478ab7b90b60001b86600081518110611db457611db3613bd6565b5b602002602001018181525050600182611dcd9190613c05565b604051602001611ddd9190613c7f565b60405160208183030381529060405285600081518110611e0057611dff613bd6565b5b6020026020010181905250611e387f6460ee3c0aac563ccbf76d6e1d07bada78e3a9514e6382b736ed3f478ab7b90b60001b8361260f565b86600181518110611e4c57611e4b613bd6565b5b60200260200101818152505087604051602001611e699190613ce2565b60405160208183030381529060405285600181518110611e8c57611e8b613bd6565b5b60200260200101819052508086600281518110611eac57611eab613bd6565b5b6020026020010181815250508683604051602001611ecb929190613d1e565b60405160208183030381529060405285600281518110611eee57611eed613bd6565b5b6020026020010181905250505050505b935093915050565b60608060008490506000611f1982612b9a565b9050611f24816125b1565b611f2f575050612182565b600081511480611f715750600060801b6fffffffffffffffffffffffffffffffff191681611f5c906137fb565b6fffffffffffffffffffffffffffffffff1916145b15611f7d575050612182565b6000600182611f8b906137fb565b60801c611f9891906138ad565b90506000611fb669192448c3c0f88c7f238c60b01b8860601b6125cf565b905060008473ffffffffffffffffffffffffffffffffffffffff166354f6127f836040518263ffffffff1660e01b8152600401611ff391906130ee565b600060405180830381865afa158015612010573d6000803e3d6000fd5b505050506040513d6000823e3d601f19601f820116820180604052508101906120399190613535565b9050601481511461204e575050505050612182565b600060208261205c90613932565b6bffffffffffffffffffffffff1916901b60801c905060006120a17f55482936e01da86729a45d2b87a6b1d3bc582bea0ec00e38bdb340e3af6f9f0660001b8361260f565b9050846fffffffffffffffffffffffffffffffff16826fffffffffffffffffffffffffffffffff160361210d576120fd7f55482936e01da86729a45d2b87a6b1d3bc582bea0ec00e38bdb340e3af6f9f0660001b86838761264c565b9850985050505050505050612182565b846fffffffffffffffffffffffffffffffff16826fffffffffffffffffffffffffffffffff16101561217a5761216a877f55482936e01da86729a45d2b87a6b1d3bc582bea0ec00e38bdb340e3af6f9f0660001b878486896127f5565b9850985050505050505050612182565b505050505050505b9250929050565b6060806000849050600061219c82612b9a565b90506121a7816125b1565b6121e75760008151036121df57600060801b6040516020016121c99190613bbb565b60405160208183030381529060405290506121e6565b50506124ff565b5b6000816121f3906137fb565b60801c90506fffffffffffffffffffffffffffffffff8016816fffffffffffffffffffffffffffffffff160361222b575050506124ff565b600061224769192448c3c0f88c7f238c60b01b8860601b6125cf565b905060008473ffffffffffffffffffffffffffffffffffffffff166354f6127f836040518263ffffffff1660e01b815260040161228491906130ee565b600060405180830381865afa1580156122a1573d6000803e3d6000fd5b505050506040513d6000823e3d601f19601f820116820180604052508101906122ca9190613535565b51146122d957505050506124ff565b600367ffffffffffffffff8111156122f4576122f3612e90565b5b6040519080825280602002602001820160405280156123225781602001602082028036833780820191505090505b509550600367ffffffffffffffff8111156123405761233f612e90565b5b60405190808252806020026020018201604052801561237357816020015b606081526020019060019003908161235e5790505b5094507f55482936e01da86729a45d2b87a6b1d3bc582bea0ec00e38bdb340e3af6f9f0660001b866000815181106123ae576123ad613bd6565b5b6020026020010181815250506001826123c79190613c05565b6040516020016123d79190613c7f565b604051602081830303815290604052856000815181106123fa576123f9613bd6565b5b60200260200101819052506124327f55482936e01da86729a45d2b87a6b1d3bc582bea0ec00e38bdb340e3af6f9f0660001b8361260f565b8660018151811061244657612445613bd6565b5b602002602001018181525050866040516020016124639190613ce2565b6040516020818303038152906040528560018151811061248657612485613bd6565b5b602002602001018190525080866002815181106124a6576124a5613bd6565b5b6020026020010181815250506328af17e660e01b836040516020016124cc929190613d1e565b604051602081830303815290604052856002815181106124ef576124ee613bd6565b5b6020026020010181905250505050505b9250929050565b60608173ffffffffffffffffffffffffffffffffffffffff166354f6127f7f6460ee3c0aac563ccbf76d6e1d07bada78e3a9514e6382b736ed3f478ab7b90b60001b6040518263ffffffff1660e01b815260040161256491906130ee565b600060405180830381865afa158015612581573d6000803e3d6000fd5b505050506040513d6000823e3d601f19601f820116820180604052508101906125aa9190613535565b9050919050565b600060108251036125c557600190506125ca565b600090505b919050565b60008083600060f01b846040516020016125eb93929190613e01565b60405160208183030381529060405290508061260690613e53565b91505092915050565b600080838360801b604051602001612628929190613eba565b60405160208183030381529060405290508061264390613e53565b91505092915050565b606080600367ffffffffffffffff81111561266a57612669612e90565b5b6040519080825280602002602001820160405280156126985781602001602082028036833780820191505090505b509150600367ffffffffffffffff8111156126b6576126b5612e90565b5b6040519080825280602002602001820160405280156126e957816020015b60608152602001906001900390816126d45790505b509050858260008151811061270157612700613bd6565b5b6020026020010181815250508460405160200161271e9190613c7f565b6040516020818303038152906040528160008151811061274157612740613bd6565b5b6020026020010181905250828260018151811061276157612760613bd6565b5b602002602001018181525050604051806020016040528060008152508160018151811061279157612790613bd6565b5b602002602001018190525083826002815181106127b1576127b0613bd6565b5b60200260200101818152505060405180602001604052806000815250816002815181106127e1576127e0613bd6565b5b602002602001018190525094509492505050565b606080600567ffffffffffffffff81111561281357612812612e90565b5b6040519080825280602002602001820160405280156128415781602001602082028036833780820191505090505b509150600567ffffffffffffffff81111561285f5761285e612e90565b5b60405190808252806020026020018201604052801561289257816020015b606081526020019060019003908161287d5790505b50905086826000815181106128aa576128a9613bd6565b5b602002602001018181525050856040516020016128c79190613c7f565b604051602081830303815290604052816000815181106128ea576128e9613bd6565b5b6020026020010181905250828260018151811061290a57612909613bd6565b5b602002602001018181525050604051806020016040528060008152508160018151811061293a57612939613bd6565b5b60200260200101819052506000612951888861260f565b905060008973ffffffffffffffffffffffffffffffffffffffff166354f6127f836040518263ffffffff1660e01b815260040161298e91906130ee565b600060405180830381865afa1580156129ab573d6000803e3d6000fd5b505050506040513d6000823e3d601f19601f820116820180604052508101906129d49190613535565b6129dd90613932565b905086846002815181106129f4576129f3613bd6565b5b60200260200101818152505080604051602001612a119190613ee6565b60405160208183030381529060405283600281518110612a3457612a33613bd6565b5b60200260200101819052508184600381518110612a5457612a53613bd6565b5b6020026020010181815250506040518060200160405280600081525083600381518110612a8457612a83613bd6565b5b60200260200101819052506000612a9b86836125cf565b905060008b73ffffffffffffffffffffffffffffffffffffffff166354f6127f836040518263ffffffff1660e01b8152600401612ad891906130ee565b600060405180830381865afa158015612af5573d6000803e3d6000fd5b505050506040513d6000823e3d601f19601f82011682018060405250810190612b1e9190613535565b612b2790613f16565b88604051602001612b39929190613f7d565b60405160208183030381529060405290508186600481518110612b5f57612b5e613bd6565b5b6020026020010181815250508085600481518110612b8057612b7f613bd6565b5b602002602001018190525050505050965096945050505050565b60608173ffffffffffffffffffffffffffffffffffffffff166354f6127f7f55482936e01da86729a45d2b87a6b1d3bc582bea0ec00e38bdb340e3af6f9f0660001b6040518263ffffffff1660e01b8152600401612bf891906130ee565b600060405180830381865afa158015612c15573d6000803e3d6000fd5b505050506040513d6000823e3d601f19601f82011682018060405250810190612c3e9190613535565b9050919050565b6000604051905090565b600080fd5b600080fd5b60007fffffffff0000000000000000000000000000000000000000000000000000000082169050919050565b612c8e81612c59565b8114612c9957600080fd5b50565b600081359050612cab81612c85565b92915050565b600060208284031215612cc757612cc6612c4f565b5b6000612cd584828501612c9c565b91505092915050565b60008115159050919050565b612cf381612cde565b82525050565b6000602082019050612d0e6000830184612cea565b92915050565b600073ffffffffffffffffffffffffffffffffffffffff82169050919050565b6000612d3f82612d14565b9050919050565b612d4f81612d34565b8114612d5a57600080fd5b50565b600081359050612d6c81612d46565b92915050565b600060208284031215612d8857612d87612c4f565b5b6000612d9684828501612d5d565b91505092915050565b60008060408385031215612db657612db5612c4f565b5b6000612dc485828601612d5d565b9250506020612dd585828601612d5d565b9150509250929050565b612de881612d34565b82525050565b6000602082019050612e036000830184612ddf565b92915050565b6000819050919050565b612e1c81612e09565b8114612e2757600080fd5b50565b600081359050612e3981612e13565b92915050565b6000819050919050565b612e5281612e3f565b8114612e5d57600080fd5b50565b600081359050612e6f81612e49565b92915050565b600080fd5b600080fd5b6000601f19601f8301169050919050565b7f4e487b7100000000000000000000000000000000000000000000000000000000600052604160045260246000fd5b612ec882612e7f565b810181811067ffffffffffffffff82111715612ee757612ee6612e90565b5b80604052505050565b6000612efa612c45565b9050612f068282612ebf565b919050565b600067ffffffffffffffff821115612f2657612f25612e90565b5b612f2f82612e7f565b9050602081019050919050565b82818337600083830152505050565b6000612f5e612f5984612f0b565b612ef0565b905082815260208101848484011115612f7a57612f79612e7a565b5b612f85848285612f3c565b509392505050565b600082601f830112612fa257612fa1612e75565b5b8135612fb2848260208601612f4b565b91505092915050565b60008060008060808587031215612fd557612fd4612c4f565b5b6000612fe387828801612d5d565b9450506020612ff487828801612e2a565b935050604061300587828801612e60565b925050606085013567ffffffffffffffff81111561302657613025612c54565b5b61303287828801612f8d565b91505092959194509250565b600081519050919050565b600082825260208201905092915050565b60005b8381101561307857808201518184015260208101905061305d565b60008484015250505050565b600061308f8261303e565b6130998185613049565b93506130a981856020860161305a565b6130b281612e7f565b840191505092915050565b600060208201905081810360008301526130d78184613084565b905092915050565b6130e881612e3f565b82525050565b600060208201905061310360008301846130df565b92915050565b600081519050919050565b600082825260208201905092915050565b600061313082613109565b61313a8185613114565b935061314a81856020860161305a565b61315381612e7f565b840191505092915050565b600060208201905081810360008301526131788184613125565b905092915050565b60008151905061318f81612d46565b92915050565b6000602082840312156131ab576131aa612c4f565b5b60006131b984828501613180565b91505092915050565b7f4e487b7100000000000000000000000000000000000000000000000000000000600052602260045260246000fd5b6000600282049050600182168061320957607f821691505b60208210810361321c5761321b6131c2565b5b50919050565b7f4c5350314772617665466f7277616465723a2075736572207661756c74206e6f60008201527f7420736574000000000000000000000000000000000000000000000000000000602082015250565b600061327e602583613114565b915061328982613222565b604082019050919050565b600060208201905081810360008301526132ad81613271565b9050919050565b6000815190506132c381612e13565b92915050565b6000602082840312156132df576132de612c4f565b5b60006132ed848285016132b4565b91505092915050565b600061330182612d14565b9050919050565b613311816132f6565b811461331c57600080fd5b50565b60008151905061332e81613308565b92915050565b600061334761334284612f0b565b612ef0565b90508281526020810184848401111561336357613362612e7a565b5b61336e84828561305a565b509392505050565b600082601f83011261338b5761338a612e75565b5b815161339b848260208601613334565b91505092915050565b600080600080600060a086880312156133c0576133bf612c4f565b5b60006133ce8882890161331f565b95505060206133df8882890161331f565b94505060406133f08882890161331f565b9350506060613401888289016132b4565b925050608086015167ffffffffffffffff81111561342257613421612c54565b5b61342e88828901613376565b9150509295509295909350565b61344481612e09565b82525050565b600060a08201905061345f6000830188612ddf565b61346c6020830187612ddf565b613479604083018661343b565b6134866060830185612cea565b81810360808301526134988184613084565b90509695505050505050565b6000819050919050565b6000819050919050565b60006134d36134ce6134c9846134a4565b6134ae565b612e09565b9050919050565b6134e3816134b8565b82525050565b60006080820190506134fe60008301876134da565b61350b6020830186612ddf565b61351860408301856134da565b818103606083015261352a8184613084565b905095945050505050565b60006020828403121561354b5761354a612c4f565b5b600082015167ffffffffffffffff81111561356957613568612c54565b5b61357584828501613376565b91505092915050565b60008151905061358d81612e49565b92915050565b600080600080600060a086880312156135af576135ae612c4f565b5b60006135bd8882890161331f565b95505060206135ce8882890161331f565b94505060406135df8882890161331f565b93505060606135f08882890161357e565b925050608086015167ffffffffffffffff81111561361157613610612c54565b5b61361d88828901613376565b9150509295509295909350565b600060a08201905061363f6000830188612ddf565b61364c6020830187612ddf565b61365960408301866130df565b6136666060830185612cea565b81810360808301526136788184613084565b90509695505050505050565b600060408201905061369960008301856130df565b81810360208301526136ab8184613084565b90509392505050565b600081905092915050565b60006136ca8261303e565b6136d481856136b4565b93506136e481856020860161305a565b80840191505092915050565b60006136fc82846136bf565b915081905092915050565b7f73657444617461206661696c6564000000000000000000000000000000000000600082015250565b600061373d600e83613114565b915061374882613707565b602082019050919050565b6000602082019050818103600083015261376c81613730565b9050919050565b61377c81612c59565b82525050565b60006020820190506137976000830184613773565b92915050565b6000819050602082019050919050565b60007fffffffffffffffffffffffffffffffff0000000000000000000000000000000082169050919050565b60006137e582516137ad565b80915050919050565b600082821b905092915050565b60006138068261303e565b826138108461379d565b905061381b816137d9565b9250601082101561385b576138567fffffffffffffffffffffffffffffffff00000000000000000000000000000000836010036008026137ee565b831692505b5050919050565b60006fffffffffffffffffffffffffffffffff82169050919050565b7f4e487b7100000000000000000000000000000000000000000000000000000000600052601160045260246000fd5b60006138b882613862565b91506138c383613862565b925082820390506fffffffffffffffffffffffffffffffff8111156138eb576138ea61387e565b5b92915050565b60007fffffffffffffffffffffffffffffffffffffffff00000000000000000000000082169050919050565b600061392982516138f1565b80915050919050565b600061393d8261303e565b826139478461379d565b90506139528161391d565b925060148210156139925761398d7fffffffffffffffffffffffffffffffffffffffff000000000000000000000000836014036008026137ee565b831692505b5050919050565b600081519050919050565b600082825260208201905092915050565b6000819050602082019050919050565b6139ce81612e3f565b82525050565b60006139e083836139c5565b60208301905092915050565b6000602082019050919050565b6000613a0482613999565b613a0e81856139a4565b9350613a19836139b5565b8060005b83811015613a4a578151613a3188826139d4565b9750613a3c836139ec565b925050600181019050613a1d565b5085935050505092915050565b600081519050919050565b600082825260208201905092915050565b6000819050602082019050919050565b600082825260208201905092915050565b6000613a9f8261303e565b613aa98185613a83565b9350613ab981856020860161305a565b613ac281612e7f565b840191505092915050565b6000613ad98383613a94565b905092915050565b6000602082019050919050565b6000613af982613a57565b613b038185613a62565b935083602082028501613b1585613a73565b8060005b85811015613b515784840389528151613b328582613acd565b9450613b3d83613ae1565b925060208a01995050600181019050613b19565b50829750879550505050505092915050565b60006040820190508181036000830152613b7d81856139f9565b90508181036020830152613b918184613aee565b90509392505050565b6000819050919050565b613bb5613bb0826137ad565b613b9a565b82525050565b6000613bc78284613ba4565b60108201915081905092915050565b7f4e487b7100000000000000000000000000000000000000000000000000000000600052603260045260246000fd5b6000613c1082613862565b9150613c1b83613862565b925082820190506fffffffffffffffffffffffffffffffff811115613c4357613c4261387e565b5b92915050565b60008160801b9050919050565b6000613c6182613c49565b9050919050565b613c79613c7482613862565b613c56565b82525050565b6000613c8b8284613c68565b60108201915081905092915050565b60008160601b9050919050565b6000613cb282613c9a565b9050919050565b6000613cc482613ca7565b9050919050565b613cdc613cd782612d34565b613cb9565b82525050565b6000613cee8284613ccb565b60148201915081905092915050565b6000819050919050565b613d18613d1382612c59565b613cfd565b82525050565b6000613d2a8285613d07565b600482019150613d3a82846136bf565b91508190509392505050565b60007fffffffffffffffffffff0000000000000000000000000000000000000000000082169050919050565b6000819050919050565b613d8d613d8882613d46565b613d72565b82525050565b60007fffff00000000000000000000000000000000000000000000000000000000000082169050919050565b6000819050919050565b613dda613dd582613d93565b613dbf565b82525050565b6000819050919050565b613dfb613df6826138f1565b613de0565b82525050565b6000613e0d8286613d7c565b600a82019150613e1d8285613dc9565b600282019150613e2d8284613dea565b601482019150819050949350505050565b6000613e4a8251612e3f565b80915050919050565b6000613e5e8261303e565b82613e688461379d565b9050613e7381613e3e565b92506020821015613eb357613eae7fffffffffffffffffffffffffffffffffffffffffffffffffffffffffffffffff836020036008026137ee565b831692505b5050919050565b6000613ec68285613ba4565b601082019150613ed68284613ba4565b6010820191508190509392505050565b6000613ef28284613dea565b60148201915081905092915050565b6000613f0d8251612c59565b80915050919050565b6000613f218261303e565b82613f2b8461379d565b9050613f3681613f01565b92506004821015613f7657613f717fffffffff00000000000000000000000000000000000000000000000000000000836004036008026137ee565b831692505b5050919050565b6000613f898285613d07565b600482019150613f998284613c68565b601082019150819050939250505056fe4c5350353a204572726f722067656e65726174696e672064617461206b65792f76616c75652070616972734c535031303a204572726f722067656e65726174696e672064617461206b65792f76616c75652070616972734c5350313a206062616c616e63654f66286164647265737329602066756e6374696f6e206e6f7420666f756e644c5350314772617665466f7277616465723a2055502062616c616e6365206973207a65726f4c5350314772617665466f7277616465723a2063616c6c6572206973206e6f742061204c5350304c5350314772617665466f7277616465723a206062616c616e63654f66286164647265737329602066756e6374696f6e206e6f7420666f756e64a26469706673582212205a67a22200567d83ca6a310ee8997bacfe715459747ba9ca0d554257b09cf23f64736f6c63430008110033",
  "linkReferences": {},
  "deployedLinkReferences": {}
}