{
  "_format": "hh-sol-artifact-1",
  "contractName": "LSP1GraveForwader",
  "sourceName": "contracts/LSP1GraveForwarder.sol",
  "abi": [
    {
      "inputs": [
        {
          "internalType": "address",
          "name": "caller",
          "type": "address"
        }
      ],
      "name": "CannotRegisterEOAsAsAssets",
      "type": "error"
    },
    {
      "inputs": [],
      "name": "VERSION",
      "outputs": [
        {
          "internalType": "string",
          "name": "",
          "type": "string"
        }
      ],
      "stateMutability": "view",
      "type": "function"
    },
    {
      "inputs": [
        {
          "internalType": "address",
          "name": "token",
          "type": "address"
        }
      ],
      "name": "addTokenToAllowlist",
      "outputs": [],
      "stateMutability": "nonpayable",
      "type": "function"
    },
    {
      "inputs": [
        {
          "internalType": "address",
          "name": "token",
          "type": "address"
        }
      ],
      "name": "getAddressStatus",
      "outputs": [
        {
          "internalType": "bool",
          "name": "",
          "type": "bool"
        }
      ],
      "stateMutability": "view",
      "type": "function"
    },
    {
      "inputs": [],
      "name": "getGrave",
      "outputs": [
        {
          "internalType": "address",
          "name": "",
          "type": "address"
        }
      ],
      "stateMutability": "view",
      "type": "function"
    },
    {
      "inputs": [
        {
          "internalType": "address",
          "name": "",
          "type": "address"
        }
      ],
      "name": "graveVaults",
      "outputs": [
        {
          "internalType": "address",
          "name": "",
          "type": "address"
        }
      ],
      "stateMutability": "view",
      "type": "function"
    },
    {
      "inputs": [],
      "name": "joinGrave",
      "outputs": [],
      "stateMutability": "nonpayable",
      "type": "function"
    },
    {
      "inputs": [
        {
          "internalType": "address",
          "name": "token",
          "type": "address"
        }
      ],
      "name": "removeTokenFromAllowlist",
      "outputs": [],
      "stateMutability": "nonpayable",
      "type": "function"
    },
    {
      "inputs": [
        {
          "internalType": "address",
          "name": "grave",
          "type": "address"
        }
      ],
      "name": "setGrave",
      "outputs": [],
      "stateMutability": "nonpayable",
      "type": "function"
    },
    {
      "inputs": [
        {
          "internalType": "bytes4",
          "name": "interfaceId",
          "type": "bytes4"
        }
      ],
      "name": "supportsInterface",
      "outputs": [
        {
          "internalType": "bool",
          "name": "",
          "type": "bool"
        }
      ],
      "stateMutability": "view",
      "type": "function"
    },
    {
      "inputs": [
        {
          "internalType": "address",
          "name": "",
          "type": "address"
        },
        {
          "internalType": "address",
          "name": "",
          "type": "address"
        }
      ],
      "name": "tokenAllowlist",
      "outputs": [
        {
          "internalType": "bool",
          "name": "",
          "type": "bool"
        }
      ],
      "stateMutability": "view",
      "type": "function"
    },
    {
      "inputs": [
        {
          "internalType": "address",
          "name": "notifier",
          "type": "address"
        },
        {
          "internalType": "uint256",
          "name": "value",
          "type": "uint256"
        },
        {
          "internalType": "bytes32",
          "name": "typeId",
          "type": "bytes32"
        },
        {
          "internalType": "bytes",
          "name": "data",
          "type": "bytes"
        }
      ],
      "name": "universalReceiverDelegate",
      "outputs": [
        {
          "internalType": "bytes",
          "name": "",
          "type": "bytes"
        }
      ],
      "stateMutability": "nonpayable",
      "type": "function"
    },
    {
      "inputs": [],
      "name": "vaultFactoryAddress",
      "outputs": [
        {
          "internalType": "address",
          "name": "",
          "type": "address"
        }
      ],
      "stateMutability": "view",
      "type": "function"
    }
  ],
  "bytecode": "0x608060405273121828ece3cc0f8cd30fe612fae12a72a9595943600260006101000a81548173ffffffffffffffffffffffffffffffffffffffff021916908373ffffffffffffffffffffffffffffffffffffffff16021790555034801561006557600080fd5b50613c9d806100756000396000f3fe608060405234801561001057600080fd5b50600436106100b45760003560e01c8063623c251511610071578063623c25151461018b5780639c70e227146101bb578063a245bbda146101c5578063ac0d987c146101f5578063e226a1b614610213578063ffa1ad7414610243576100b4565b806301ffc9a7146100b95780631957fba4146100e95780632ad722e2146101055780633841ddf814610121578063420897911461015157806359ff6d3b1461016f575b600080fd5b6100d360048036038101906100ce9190612978565b610261565b6040516100e091906129c0565b60405180910390f35b61010360048036038101906100fe9190612a39565b6102c2565b005b61011f600480360381019061011a9190612a39565b61035a565b005b61013b60048036038101906101369190612a66565b6103da565b60405161014891906129c0565b60405180910390f35b610159610409565b6040516101669190612ab5565b60405180910390f35b61018960048036038101906101849190612a39565b61042f565b005b6101a560048036038101906101a09190612a39565b6104c6565b6040516101b29190612ab5565b60405180910390f35b6101c36104f9565b005b6101df60048036038101906101da9190612c82565b61061b565b6040516101ec9190612d84565b60405180910390f35b6101fd610bf0565b60405161020a9190612ab5565b60405180910390f35b61022d60048036038101906102289190612a39565b610c56565b60405161023a91906129c0565b60405180910390f35b61024b610ce9565b6040516102589190612dfb565b60405180910390f35b600063a245bbda60e01b7bffffffffffffffffffffffffffffffffffffffffffffffffffffffff1916827bffffffffffffffffffffffffffffffffffffffffffffffffffffffff191614806102bb57506102ba82610d22565b5b9050919050565b6000600160003373ffffffffffffffffffffffffffffffffffffffff1673ffffffffffffffffffffffffffffffffffffffff16815260200190815260200160002060008373ffffffffffffffffffffffffffffffffffffffff1673ffffffffffffffffffffffffffffffffffffffff16815260200190815260200160002060006101000a81548160ff02191690831515021790555050565b806000803373ffffffffffffffffffffffffffffffffffffffff1673ffffffffffffffffffffffffffffffffffffffff16815260200190815260200160002060006101000a81548173ffffffffffffffffffffffffffffffffffffffff021916908373ffffffffffffffffffffffffffffffffffffffff16021790555050565b60016020528160005260406000206020528060005260406000206000915091509054906101000a900460ff1681565b600260009054906101000a900473ffffffffffffffffffffffffffffffffffffffff1681565b60018060003373ffffffffffffffffffffffffffffffffffffffff1673ffffffffffffffffffffffffffffffffffffffff16815260200190815260200160002060008373ffffffffffffffffffffffffffffffffffffffff1673ffffffffffffffffffffffffffffffffffffffff16815260200190815260200160002060006101000a81548160ff02191690831515021790555050565b60006020528060005260406000206000915054906101000a900473ffffffffffffffffffffffffffffffffffffffff1681565b6000600260009054906101000a900473ffffffffffffffffffffffffffffffffffffffff1673ffffffffffffffffffffffffffffffffffffffff16631df94eb4336040518263ffffffff1660e01b81526004016105569190612ab5565b6020604051808303816000875af1158015610575573d6000803e3d6000fd5b505050506040513d601f19601f820116820180604052508101906105999190612e32565b9050806000803373ffffffffffffffffffffffffffffffffffffffff1673ffffffffffffffffffffffffffffffffffffffff16815260200190815260200160002060006101000a81548173ffffffffffffffffffffffffffffffffffffffff021916908373ffffffffffffffffffffffffffffffffffffffff16021790555050565b6060600160003373ffffffffffffffffffffffffffffffffffffffff1673ffffffffffffffffffffffffffffffffffffffff16815260200190815260200160002060008673ffffffffffffffffffffffffffffffffffffffff1673ffffffffffffffffffffffffffffffffffffffff16815260200190815260200160002060009054906101000a900460ff16156106bf576106b885858585610d8c565b9050610be8565b600073ffffffffffffffffffffffffffffffffffffffff166000803373ffffffffffffffffffffffffffffffffffffffff1673ffffffffffffffffffffffffffffffffffffffff16815260200190815260200160002060009054906101000a900473ffffffffffffffffffffffffffffffffffffffff1673ffffffffffffffffffffffffffffffffffffffff160361078c576040517f08c379a000000000000000000000000000000000000000000000000000000000815260040161078390612ed1565b60405180910390fd5b61079d336324871b3d60e01b610f3b565b6107c157604051806060016040528060278152602001613c07602791399050610be8565b60008573ffffffffffffffffffffffffffffffffffffffff163b11156108a3578473ffffffffffffffffffffffffffffffffffffffff166370a08231336040518263ffffffff1660e01b815260040161081a9190612ab5565b602060405180830381865afa92505050801561085457506040513d601f19601f820116820180604052508101906108519190612f06565b60015b610878576040518060600160405280603a8152602001613c2e603a91399050610be8565b600081036108a157604051806060016040528060258152602001613be260259139915050610be8565b505b7f20804611b3e2ea21c480dc465142210acf4a2485947541770ec1fb87dee4a55c60001b8303610a3c576000828060200190518101906108e39190612fe1565b5093505050506000336000803373ffffffffffffffffffffffffffffffffffffffff1673ffffffffffffffffffffffffffffffffffffffff16815260200190815260200160002060009054906101000a900473ffffffffffffffffffffffffffffffffffffffff1683600087604051602401610963959493929190613087565b60405160208183030381529060405263760d9bba60e01b6020820180517bffffffffffffffffffffffffffffffffffffffffffffffffffffffff838183161783525050505090503373ffffffffffffffffffffffffffffffffffffffff166344c028fe6000896000856040518563ffffffff1660e01b81526004016109eb9493929190613126565b6000604051808303816000875af1158015610a0a573d6000803e3d6000fd5b505050506040513d6000823e3d601f19601f82011682018060405250810190610a339190613172565b92505050610be8565b7f0b084a55ebf70fd3c06fd755269dac2212c4d3f0f4d09079780bfa50c1b2984d60001b8303610bd557600082806020019051810190610a7c91906131d0565b5093505050506000336000803373ffffffffffffffffffffffffffffffffffffffff1673ffffffffffffffffffffffffffffffffffffffff16815260200190815260200160002060009054906101000a900473ffffffffffffffffffffffffffffffffffffffff1683600087604051602401610afc959493929190613276565b60405160208183030381529060405263511b695260e01b6020820180517bffffffffffffffffffffffffffffffffffffffffffffffffffffffff838183161783525050505090503373ffffffffffffffffffffffffffffffffffffffff166344c028fe6000896000856040518563ffffffff1660e01b8152600401610b849493929190613126565b6000604051808303816000875af1158015610ba3573d6000803e3d6000fd5b505050506040513d6000823e3d601f19601f82011682018060405250810190610bcc9190613172565b92505050610be8565b6040518060200160405280600081525090505b949350505050565b60008060003373ffffffffffffffffffffffffffffffffffffffff1673ffffffffffffffffffffffffffffffffffffffff16815260200190815260200160002060009054906101000a900473ffffffffffffffffffffffffffffffffffffffff16905090565b6000600160003373ffffffffffffffffffffffffffffffffffffffff1673ffffffffffffffffffffffffffffffffffffffff16815260200190815260200160002060008373ffffffffffffffffffffffffffffffffffffffff1673ffffffffffffffffffffffffffffffffffffffff16815260200190815260200160002060009054906101000a900460ff169050919050565b6040518060400160405280600681526020017f302e31342e30000000000000000000000000000000000000000000000000000081525081565b60007f01ffc9a7000000000000000000000000000000000000000000000000000000007bffffffffffffffffffffffffffffffffffffffffffffffffffffffff1916827bffffffffffffffffffffffffffffffffffffffffffffffffffffffff1916149050919050565b60607f429ac7a06903dbc9c13dfcb3c9d11df8194581fa047c96d7a4171fc7402958ea60001b8303610dc857610dc185610ffa565b9050610f33565b7f20804611b3e2ea21c480dc465142210acf4a2485947541770ec1fb87dee4a55c60001b8303610e0a57610e038563b3c4928f60e01b6111aa565b9050610f33565b7fb23eae7e6d1564b295b4c3e3be402d9a2f0776c57bdf365903496f6fa481ab0060001b8303610e4457610e3d85610ffa565b9050610f33565b7f0b084a55ebf70fd3c06fd755269dac2212c4d3f0f4d09079780bfa50c1b2984d60001b8303610e8657610e7f85633a27170660e01b6111aa565b9050610f33565b7f0c622e58e6b7089ae35f1af1c86d997be92fcdd8c9509652022d41aa6516947160001b8303610ec057610eb98561137c565b9050610f33565b7f79855c97dbc259ce395421d933d7bc0699b0f1561f988f09a9e8633fd542fe5c60001b8303610efa57610ef38561144e565b9050610f33565b6040518060400160405280601981526020017f4c5350313a20747970654964206f7574206f662073636f70650000000000000081525090505b949350505050565b6000806301ffc9a760e01b83604051602401610f5791906132df565b604051602081830303815290604052907bffffffffffffffffffffffffffffffffffffffffffffffffffffffff19166020820180517bffffffffffffffffffffffffffffffffffffffffffffffffffffffff838183161783525050505090506000806000602060008551602087018a617530fa92503d91506000519050828015610fe2575060208210155b8015610fee5750600081115b94505050505092915050565b6060813273ffffffffffffffffffffffffffffffffffffffff168173ffffffffffffffffffffffffffffffffffffffff160361106d57806040517fa52953450000000000000000000000000000000000000000000000000000000081526004016110649190612ab5565b60405180910390fd5b8273ffffffffffffffffffffffffffffffffffffffff166370a08231336040518263ffffffff1660e01b81526004016110a69190612ab5565b602060405180830381865afa9250505080156110e057506040513d601f19601f820116820180604052508101906110dd9190612f06565b60015b611104576040518060600160405280602d8152602001613bb5602d913991506111a4565b6000811461114a576040518060400160405280601e81526020017f4c5350313a2066756c6c2062616c616e6365206973206e6f742073656e7400008152509250506111a4565b506000806111583386611520565b915091506000825114801561116e575060008151145b15611195576040518060600160405280602b8152602001613b5e602b9139935050506111a4565b61119f8282611796565b935050505b50919050565b6060823273ffffffffffffffffffffffffffffffffffffffff168173ffffffffffffffffffffffffffffffffffffffff160361121d57806040517fa52953450000000000000000000000000000000000000000000000000000000081526004016112149190612ab5565b60405180910390fd5b60008473ffffffffffffffffffffffffffffffffffffffff163b1461131b578373ffffffffffffffffffffffffffffffffffffffff166370a08231336040518263ffffffff1660e01b81526004016112759190612ab5565b602060405180830381865afa9250505080156112af57506040513d601f19601f820116820180604052508101906112ac9190612f06565b60015b6112d3576040518060600160405280602d8152602001613bb5602d91399150611375565b60008103611319576040518060400160405280601581526020017f4c5350313a2062616c616e6365206973207a65726f0000000000000000000000815250925050611375565b505b600080611329338787611856565b915091506000825114801561133f575060008151145b15611366576040518060600160405280602b8152602001613b5e602b913993505050611375565b6113708282611796565b935050505b5092915050565b6060813273ffffffffffffffffffffffffffffffffffffffff168173ffffffffffffffffffffffffffffffffffffffff16036113ef57806040517fa52953450000000000000000000000000000000000000000000000000000000081526004016113e69190612ab5565b60405180910390fd5b6000806113fc3386611bcd565b9150915060008251148015611412575060008151145b15611439576040518060600160405280602c8152602001613b89602c913993505050611448565b6114438282611796565b935050505b50919050565b6060813273ffffffffffffffffffffffffffffffffffffffff168173ffffffffffffffffffffffffffffffffffffffff16036114c157806040517fa52953450000000000000000000000000000000000000000000000000000000081526004016114b89190612ab5565b60405180910390fd5b6000806114ce3386611e50565b91509150600082511480156114e4575060008151145b1561150b576040518060600160405280602c8152602001613b89602c91399350505061151a565b6115158282611796565b935050505b50919050565b60608060008490506000611533826121cd565b905061153e81612278565b61154957505061178f565b600060801b6fffffffffffffffffffffffffffffffff19168161156b90613358565b6fffffffffffffffffffffffffffffffff19160361158a57505061178f565b600060018261159890613358565b60801c6115a5919061340a565b905060006115c369812c4334633eb816c80d60b01b8860601b612296565b905060008473ffffffffffffffffffffffffffffffffffffffff166354f6127f836040518263ffffffff1660e01b8152600401611600919061344e565b600060405180830381865afa15801561161d573d6000803e3d6000fd5b505050506040513d6000823e3d601f19601f820116820180604052508101906116469190613172565b9050601481511461165b57505050505061178f565b6000602082611669906134aa565b6bffffffffffffffffffffffff1916901b60801c905060006116ae7f6460ee3c0aac563ccbf76d6e1d07bada78e3a9514e6382b736ed3f478ab7b90b60001b836122d6565b9050846fffffffffffffffffffffffffffffffff16826fffffffffffffffffffffffffffffffff160361171a5761170a7f6460ee3c0aac563ccbf76d6e1d07bada78e3a9514e6382b736ed3f478ab7b90b60001b868387612313565b985098505050505050505061178f565b846fffffffffffffffffffffffffffffffff16826fffffffffffffffffffffffffffffffff16101561178757611777877f6460ee3c0aac563ccbf76d6e1d07bada78e3a9514e6382b736ed3f478ab7b90b60001b878486896124bc565b985098505050505050505061178f565b505050505050505b9250929050565b60603373ffffffffffffffffffffffffffffffffffffffff16639790242184846040518363ffffffff1660e01b81526004016117d39291906136db565b600060405180830381600087803b1580156117ed57600080fd5b505af19250505080156117fe575060015b61183d573d806000811461182e576040519150601f19603f3d011682016040523d82523d6000602084013e611833565b606091505b5080915050611850565b6040518060200160405280600081525090505b92915050565b60608060008590506000611869826121cd565b905061187481612278565b6118b45760008151036118ac57600060801b6040516020016118969190613733565b60405160208183030381529060405290506118b3565b5050611bc5565b5b6000816118c090613358565b60801c90506fffffffffffffffffffffffffffffffff8016816fffffffffffffffffffffffffffffffff16036118f857505050611bc5565b600061191469812c4334633eb816c80d60b01b8960601b612296565b905060008473ffffffffffffffffffffffffffffffffffffffff166354f6127f836040518263ffffffff1660e01b8152600401611951919061344e565b600060405180830381865afa15801561196e573d6000803e3d6000fd5b505050506040513d6000823e3d601f19601f820116820180604052508101906119979190613172565b51146119a65750505050611bc5565b600367ffffffffffffffff8111156119c1576119c0612b57565b5b6040519080825280602002602001820160405280156119ef5781602001602082028036833780820191505090505b509550600367ffffffffffffffff811115611a0d57611a0c612b57565b5b604051908082528060200260200182016040528015611a4057816020015b6060815260200190600190039081611a2b5790505b5094507f6460ee3c0aac563ccbf76d6e1d07bada78e3a9514e6382b736ed3f478ab7b90b60001b86600081518110611a7b57611a7a61374e565b5b602002602001018181525050600182611a94919061377d565b604051602001611aa491906137f7565b60405160208183030381529060405285600081518110611ac757611ac661374e565b5b6020026020010181905250611aff7f6460ee3c0aac563ccbf76d6e1d07bada78e3a9514e6382b736ed3f478ab7b90b60001b836122d6565b86600181518110611b1357611b1261374e565b5b60200260200101818152505087604051602001611b30919061385a565b60405160208183030381529060405285600181518110611b5357611b5261374e565b5b60200260200101819052508086600281518110611b7357611b7261374e565b5b6020026020010181815250508683604051602001611b929291906138d2565b60405160208183030381529060405285600281518110611bb557611bb461374e565b5b6020026020010181905250505050505b935093915050565b60608060008490506000611be082612861565b9050611beb81612278565b611bf6575050611e49565b600081511480611c385750600060801b6fffffffffffffffffffffffffffffffff191681611c2390613358565b6fffffffffffffffffffffffffffffffff1916145b15611c44575050611e49565b6000600182611c5290613358565b60801c611c5f919061340a565b90506000611c7d69192448c3c0f88c7f238c60b01b8860601b612296565b905060008473ffffffffffffffffffffffffffffffffffffffff166354f6127f836040518263ffffffff1660e01b8152600401611cba919061344e565b600060405180830381865afa158015611cd7573d6000803e3d6000fd5b505050506040513d6000823e3d601f19601f82011682018060405250810190611d009190613172565b90506014815114611d15575050505050611e49565b6000602082611d23906134aa565b6bffffffffffffffffffffffff1916901b60801c90506000611d687f55482936e01da86729a45d2b87a6b1d3bc582bea0ec00e38bdb340e3af6f9f0660001b836122d6565b9050846fffffffffffffffffffffffffffffffff16826fffffffffffffffffffffffffffffffff1603611dd457611dc47f55482936e01da86729a45d2b87a6b1d3bc582bea0ec00e38bdb340e3af6f9f0660001b868387612313565b9850985050505050505050611e49565b846fffffffffffffffffffffffffffffffff16826fffffffffffffffffffffffffffffffff161015611e4157611e31877f55482936e01da86729a45d2b87a6b1d3bc582bea0ec00e38bdb340e3af6f9f0660001b878486896124bc565b9850985050505050505050611e49565b505050505050505b9250929050565b60608060008490506000611e6382612861565b9050611e6e81612278565b611eae576000815103611ea657600060801b604051602001611e909190613733565b6040516020818303038152906040529050611ead565b50506121c6565b5b600081611eba90613358565b60801c90506fffffffffffffffffffffffffffffffff8016816fffffffffffffffffffffffffffffffff1603611ef2575050506121c6565b6000611f0e69192448c3c0f88c7f238c60b01b8860601b612296565b905060008473ffffffffffffffffffffffffffffffffffffffff166354f6127f836040518263ffffffff1660e01b8152600401611f4b919061344e565b600060405180830381865afa158015611f68573d6000803e3d6000fd5b505050506040513d6000823e3d601f19601f82011682018060405250810190611f919190613172565b5114611fa057505050506121c6565b600367ffffffffffffffff811115611fbb57611fba612b57565b5b604051908082528060200260200182016040528015611fe95781602001602082028036833780820191505090505b509550600367ffffffffffffffff81111561200757612006612b57565b5b60405190808252806020026020018201604052801561203a57816020015b60608152602001906001900390816120255790505b5094507f55482936e01da86729a45d2b87a6b1d3bc582bea0ec00e38bdb340e3af6f9f0660001b866000815181106120755761207461374e565b5b60200260200101818152505060018261208e919061377d565b60405160200161209e91906137f7565b604051602081830303815290604052856000815181106120c1576120c061374e565b5b60200260200101819052506120f97f55482936e01da86729a45d2b87a6b1d3bc582bea0ec00e38bdb340e3af6f9f0660001b836122d6565b8660018151811061210d5761210c61374e565b5b6020026020010181815250508660405160200161212a919061385a565b6040516020818303038152906040528560018151811061214d5761214c61374e565b5b6020026020010181905250808660028151811061216d5761216c61374e565b5b6020026020010181815250506328af17e660e01b836040516020016121939291906138d2565b604051602081830303815290604052856002815181106121b6576121b561374e565b5b6020026020010181905250505050505b9250929050565b60608173ffffffffffffffffffffffffffffffffffffffff166354f6127f7f6460ee3c0aac563ccbf76d6e1d07bada78e3a9514e6382b736ed3f478ab7b90b60001b6040518263ffffffff1660e01b815260040161222b919061344e565b600060405180830381865afa158015612248573d6000803e3d6000fd5b505050506040513d6000823e3d601f19601f820116820180604052508101906122719190613172565b9050919050565b6000601082510361228c5760019050612291565b600090505b919050565b60008083600060f01b846040516020016122b2939291906139b5565b6040516020818303038152906040529050806122cd90613a07565b91505092915050565b600080838360801b6040516020016122ef929190613a6e565b60405160208183030381529060405290508061230a90613a07565b91505092915050565b606080600367ffffffffffffffff81111561233157612330612b57565b5b60405190808252806020026020018201604052801561235f5781602001602082028036833780820191505090505b509150600367ffffffffffffffff81111561237d5761237c612b57565b5b6040519080825280602002602001820160405280156123b057816020015b606081526020019060019003908161239b5790505b50905085826000815181106123c8576123c761374e565b5b602002602001018181525050846040516020016123e591906137f7565b604051602081830303815290604052816000815181106124085761240761374e565b5b602002602001018190525082826001815181106124285761242761374e565b5b60200260200101818152505060405180602001604052806000815250816001815181106124585761245761374e565b5b602002602001018190525083826002815181106124785761247761374e565b5b60200260200101818152505060405180602001604052806000815250816002815181106124a8576124a761374e565b5b602002602001018190525094509492505050565b606080600567ffffffffffffffff8111156124da576124d9612b57565b5b6040519080825280602002602001820160405280156125085781602001602082028036833780820191505090505b509150600567ffffffffffffffff81111561252657612525612b57565b5b60405190808252806020026020018201604052801561255957816020015b60608152602001906001900390816125445790505b50905086826000815181106125715761257061374e565b5b6020026020010181815250508560405160200161258e91906137f7565b604051602081830303815290604052816000815181106125b1576125b061374e565b5b602002602001018190525082826001815181106125d1576125d061374e565b5b60200260200101818152505060405180602001604052806000815250816001815181106126015761260061374e565b5b6020026020010181905250600061261888886122d6565b905060008973ffffffffffffffffffffffffffffffffffffffff166354f6127f836040518263ffffffff1660e01b8152600401612655919061344e565b600060405180830381865afa158015612672573d6000803e3d6000fd5b505050506040513d6000823e3d601f19601f8201168201806040525081019061269b9190613172565b6126a4906134aa565b905086846002815181106126bb576126ba61374e565b5b602002602001018181525050806040516020016126d89190613a9a565b604051602081830303815290604052836002815181106126fb576126fa61374e565b5b6020026020010181905250818460038151811061271b5761271a61374e565b5b602002602001018181525050604051806020016040528060008152508360038151811061274b5761274a61374e565b5b602002602001018190525060006127628683612296565b905060008b73ffffffffffffffffffffffffffffffffffffffff166354f6127f836040518263ffffffff1660e01b815260040161279f919061344e565b600060405180830381865afa1580156127bc573d6000803e3d6000fd5b505050506040513d6000823e3d601f19601f820116820180604052508101906127e59190613172565b6127ee90613aca565b88604051602001612800929190613b31565b604051602081830303815290604052905081866004815181106128265761282561374e565b5b60200260200101818152505080856004815181106128475761284661374e565b5b602002602001018190525050505050965096945050505050565b60608173ffffffffffffffffffffffffffffffffffffffff166354f6127f7f55482936e01da86729a45d2b87a6b1d3bc582bea0ec00e38bdb340e3af6f9f0660001b6040518263ffffffff1660e01b81526004016128bf919061344e565b600060405180830381865afa1580156128dc573d6000803e3d6000fd5b505050506040513d6000823e3d601f19601f820116820180604052508101906129059190613172565b9050919050565b6000604051905090565b600080fd5b600080fd5b60007fffffffff0000000000000000000000000000000000000000000000000000000082169050919050565b61295581612920565b811461296057600080fd5b50565b6000813590506129728161294c565b92915050565b60006020828403121561298e5761298d612916565b5b600061299c84828501612963565b91505092915050565b60008115159050919050565b6129ba816129a5565b82525050565b60006020820190506129d560008301846129b1565b92915050565b600073ffffffffffffffffffffffffffffffffffffffff82169050919050565b6000612a06826129db565b9050919050565b612a16816129fb565b8114612a2157600080fd5b50565b600081359050612a3381612a0d565b92915050565b600060208284031215612a4f57612a4e612916565b5b6000612a5d84828501612a24565b91505092915050565b60008060408385031215612a7d57612a7c612916565b5b6000612a8b85828601612a24565b9250506020612a9c85828601612a24565b9150509250929050565b612aaf816129fb565b82525050565b6000602082019050612aca6000830184612aa6565b92915050565b6000819050919050565b612ae381612ad0565b8114612aee57600080fd5b50565b600081359050612b0081612ada565b92915050565b6000819050919050565b612b1981612b06565b8114612b2457600080fd5b50565b600081359050612b3681612b10565b92915050565b600080fd5b600080fd5b6000601f19601f8301169050919050565b7f4e487b7100000000000000000000000000000000000000000000000000000000600052604160045260246000fd5b612b8f82612b46565b810181811067ffffffffffffffff82111715612bae57612bad612b57565b5b80604052505050565b6000612bc161290c565b9050612bcd8282612b86565b919050565b600067ffffffffffffffff821115612bed57612bec612b57565b5b612bf682612b46565b9050602081019050919050565b82818337600083830152505050565b6000612c25612c2084612bd2565b612bb7565b905082815260208101848484011115612c4157612c40612b41565b5b612c4c848285612c03565b509392505050565b600082601f830112612c6957612c68612b3c565b5b8135612c79848260208601612c12565b91505092915050565b60008060008060808587031215612c9c57612c9b612916565b5b6000612caa87828801612a24565b9450506020612cbb87828801612af1565b9350506040612ccc87828801612b27565b925050606085013567ffffffffffffffff811115612ced57612cec61291b565b5b612cf987828801612c54565b91505092959194509250565b600081519050919050565b600082825260208201905092915050565b60005b83811015612d3f578082015181840152602081019050612d24565b60008484015250505050565b6000612d5682612d05565b612d608185612d10565b9350612d70818560208601612d21565b612d7981612b46565b840191505092915050565b60006020820190508181036000830152612d9e8184612d4b565b905092915050565b600081519050919050565b600082825260208201905092915050565b6000612dcd82612da6565b612dd78185612db1565b9350612de7818560208601612d21565b612df081612b46565b840191505092915050565b60006020820190508181036000830152612e158184612dc2565b905092915050565b600081519050612e2c81612a0d565b92915050565b600060208284031215612e4857612e47612916565b5b6000612e5684828501612e1d565b91505092915050565b7f4c5350314772617665466f7277616465723a2075736572207661756c74206e6f60008201527f7420736574000000000000000000000000000000000000000000000000000000602082015250565b6000612ebb602583612db1565b9150612ec682612e5f565b604082019050919050565b60006020820190508181036000830152612eea81612eae565b9050919050565b600081519050612f0081612ada565b92915050565b600060208284031215612f1c57612f1b612916565b5b6000612f2a84828501612ef1565b91505092915050565b6000612f3e826129db565b9050919050565b612f4e81612f33565b8114612f5957600080fd5b50565b600081519050612f6b81612f45565b92915050565b6000612f84612f7f84612bd2565b612bb7565b905082815260208101848484011115612fa057612f9f612b41565b5b612fab848285612d21565b509392505050565b600082601f830112612fc857612fc7612b3c565b5b8151612fd8848260208601612f71565b91505092915050565b600080600080600060a08688031215612ffd57612ffc612916565b5b600061300b88828901612f5c565b955050602061301c88828901612f5c565b945050604061302d88828901612f5c565b935050606061303e88828901612ef1565b925050608086015167ffffffffffffffff81111561305f5761305e61291b565b5b61306b88828901612fb3565b9150509295509295909350565b61308181612ad0565b82525050565b600060a08201905061309c6000830188612aa6565b6130a96020830187612aa6565b6130b66040830186613078565b6130c360608301856129b1565b81810360808301526130d58184612d4b565b90509695505050505050565b6000819050919050565b6000819050919050565b600061311061310b613106846130e1565b6130eb565b612ad0565b9050919050565b613120816130f5565b82525050565b600060808201905061313b6000830187613117565b6131486020830186612aa6565b6131556040830185613117565b81810360608301526131678184612d4b565b905095945050505050565b60006020828403121561318857613187612916565b5b600082015167ffffffffffffffff8111156131a6576131a561291b565b5b6131b284828501612fb3565b91505092915050565b6000815190506131ca81612b10565b92915050565b600080600080600060a086880312156131ec576131eb612916565b5b60006131fa88828901612f5c565b955050602061320b88828901612f5c565b945050604061321c88828901612f5c565b935050606061322d888289016131bb565b925050608086015167ffffffffffffffff81111561324e5761324d61291b565b5b61325a88828901612fb3565b9150509295509295909350565b61327081612b06565b82525050565b600060a08201905061328b6000830188612aa6565b6132986020830187612aa6565b6132a56040830186613267565b6132b260608301856129b1565b81810360808301526132c48184612d4b565b90509695505050505050565b6132d981612920565b82525050565b60006020820190506132f460008301846132d0565b92915050565b6000819050602082019050919050565b60007fffffffffffffffffffffffffffffffff0000000000000000000000000000000082169050919050565b6000613342825161330a565b80915050919050565b600082821b905092915050565b600061336382612d05565b8261336d846132fa565b905061337881613336565b925060108210156133b8576133b37fffffffffffffffffffffffffffffffff000000000000000000000000000000008360100360080261334b565b831692505b5050919050565b60006fffffffffffffffffffffffffffffffff82169050919050565b7f4e487b7100000000000000000000000000000000000000000000000000000000600052601160045260246000fd5b6000613415826133bf565b9150613420836133bf565b925082820390506fffffffffffffffffffffffffffffffff811115613448576134476133db565b5b92915050565b60006020820190506134636000830184613267565b92915050565b60007fffffffffffffffffffffffffffffffffffffffff00000000000000000000000082169050919050565b60006134a18251613469565b80915050919050565b60006134b582612d05565b826134bf846132fa565b90506134ca81613495565b9250601482101561350a576135057fffffffffffffffffffffffffffffffffffffffff0000000000000000000000008360140360080261334b565b831692505b5050919050565b600081519050919050565b600082825260208201905092915050565b6000819050602082019050919050565b61354681612b06565b82525050565b6000613558838361353d565b60208301905092915050565b6000602082019050919050565b600061357c82613511565b613586818561351c565b93506135918361352d565b8060005b838110156135c25781516135a9888261354c565b97506135b483613564565b925050600181019050613595565b5085935050505092915050565b600081519050919050565b600082825260208201905092915050565b6000819050602082019050919050565b600082825260208201905092915050565b600061361782612d05565b61362181856135fb565b9350613631818560208601612d21565b61363a81612b46565b840191505092915050565b6000613651838361360c565b905092915050565b6000602082019050919050565b6000613671826135cf565b61367b81856135da565b93508360208202850161368d856135eb565b8060005b858110156136c957848403895281516136aa8582613645565b94506136b583613659565b925060208a01995050600181019050613691565b50829750879550505050505092915050565b600060408201905081810360008301526136f58185613571565b905081810360208301526137098184613666565b90509392505050565b6000819050919050565b61372d6137288261330a565b613712565b82525050565b600061373f828461371c565b60108201915081905092915050565b7f4e487b7100000000000000000000000000000000000000000000000000000000600052603260045260246000fd5b6000613788826133bf565b9150613793836133bf565b925082820190506fffffffffffffffffffffffffffffffff8111156137bb576137ba6133db565b5b92915050565b60008160801b9050919050565b60006137d9826137c1565b9050919050565b6137f16137ec826133bf565b6137ce565b82525050565b600061380382846137e0565b60108201915081905092915050565b60008160601b9050919050565b600061382a82613812565b9050919050565b600061383c8261381f565b9050919050565b61385461384f826129fb565b613831565b82525050565b60006138668284613843565b60148201915081905092915050565b6000819050919050565b61389061388b82612920565b613875565b82525050565b600081905092915050565b60006138ac82612d05565b6138b68185613896565b93506138c6818560208601612d21565b80840191505092915050565b60006138de828561387f565b6004820191506138ee82846138a1565b91508190509392505050565b60007fffffffffffffffffffff0000000000000000000000000000000000000000000082169050919050565b6000819050919050565b61394161393c826138fa565b613926565b82525050565b60007fffff00000000000000000000000000000000000000000000000000000000000082169050919050565b6000819050919050565b61398e61398982613947565b613973565b82525050565b6000819050919050565b6139af6139aa82613469565b613994565b82525050565b60006139c18286613930565b600a820191506139d1828561397d565b6002820191506139e1828461399e565b601482019150819050949350505050565b60006139fe8251612b06565b80915050919050565b6000613a1282612d05565b82613a1c846132fa565b9050613a27816139f2565b92506020821015613a6757613a627fffffffffffffffffffffffffffffffffffffffffffffffffffffffffffffffff8360200360080261334b565b831692505b5050919050565b6000613a7a828561371c565b601082019150613a8a828461371c565b6010820191508190509392505050565b6000613aa6828461399e565b60148201915081905092915050565b6000613ac18251612920565b80915050919050565b6000613ad582612d05565b82613adf846132fa565b9050613aea81613ab5565b92506004821015613b2a57613b257fffffffff000000000000000000000000000000000000000000000000000000008360040360080261334b565b831692505b5050919050565b6000613b3d828561387f565b600482019150613b4d82846137e0565b601082019150819050939250505056fe4c5350353a204572726f722067656e65726174696e672064617461206b65792f76616c75652070616972734c535031303a204572726f722067656e65726174696e672064617461206b65792f76616c75652070616972734c5350313a206062616c616e63654f66286164647265737329602066756e6374696f6e206e6f7420666f756e644c5350314772617665466f7277616465723a2055502062616c616e6365206973207a65726f4c5350314772617665466f7277616465723a2063616c6c6572206973206e6f742061204c5350304c5350314772617665466f7277616465723a206062616c616e63654f66286164647265737329602066756e6374696f6e206e6f7420666f756e64a2646970667358221220462ddd232f568aa78079468fa64932134117e721de72190e10aed05fe9e6227364736f6c63430008110033",
  "linkReferences": {},
  "deployedLinkReferences": {}
}